{
  "contractName": "DeQuora",
  "abi": [
    {
      "inputs": [],
      "stateMutability": "nonpayable",
      "type": "constructor"
    },
    {
      "anonymous": false,
      "inputs": [
        {
          "indexed": false,
          "internalType": "string",
          "name": "",
          "type": "string"
        }
      ],
      "name": "main_deployed",
      "type": "event"
    },
    {
      "anonymous": false,
      "inputs": [
        {
          "components": [
            {
              "internalType": "uint256",
              "name": "id",
              "type": "uint256"
            },
            {
              "internalType": "address",
              "name": "account",
              "type": "address"
            },
            {
              "internalType": "string",
              "name": "name",
              "type": "string"
            },
            {
              "internalType": "uint256[]",
              "name": "questions",
              "type": "uint256[]"
            },
            {
              "internalType": "uint256[]",
              "name": "answers",
              "type": "uint256[]"
            }
          ],
          "indexed": false,
          "internalType": "struct DeQuora.User",
          "name": "",
          "type": "tuple"
        }
      ],
      "name": "new_user_added",
      "type": "event"
    },
    {
      "anonymous": false,
      "inputs": [
        {
          "components": [
            {
              "internalType": "uint256",
              "name": "id",
              "type": "uint256"
            },
            {
              "internalType": "string",
              "name": "question",
              "type": "string"
            },
            {
              "internalType": "address",
              "name": "author",
              "type": "address"
            },
            {
              "internalType": "uint256",
              "name": "total_answers",
              "type": "uint256"
            },
            {
              "internalType": "uint256",
              "name": "likes",
              "type": "uint256"
            },
            {
              "internalType": "address[]",
              "name": "liked_by",
              "type": "address[]"
            }
          ],
          "indexed": false,
          "internalType": "struct DeQuora.Question",
          "name": "",
          "type": "tuple"
        }
      ],
      "name": "question_added",
      "type": "event"
    },
    {
      "inputs": [
        {
          "internalType": "uint256",
          "name": "",
          "type": "uint256"
        },
        {
          "internalType": "uint256",
          "name": "",
          "type": "uint256"
        }
      ],
      "name": "answers",
      "outputs": [
        {
          "internalType": "uint256",
          "name": "id",
          "type": "uint256"
        },
        {
          "internalType": "string",
          "name": "answer",
          "type": "string"
        },
        {
          "internalType": "address",
          "name": "author",
          "type": "address"
        },
        {
          "internalType": "uint256",
          "name": "likes",
          "type": "uint256"
        }
      ],
      "stateMutability": "view",
      "type": "function",
      "constant": true
    },
    {
      "inputs": [
        {
          "internalType": "uint256",
          "name": "",
          "type": "uint256"
        }
      ],
      "name": "questions",
      "outputs": [
        {
          "internalType": "uint256",
          "name": "id",
          "type": "uint256"
        },
        {
          "internalType": "string",
          "name": "question",
          "type": "string"
        },
        {
          "internalType": "address",
          "name": "author",
          "type": "address"
        },
        {
          "internalType": "uint256",
          "name": "total_answers",
          "type": "uint256"
        },
        {
          "internalType": "uint256",
          "name": "likes",
          "type": "uint256"
        }
      ],
      "stateMutability": "view",
      "type": "function",
      "constant": true
    },
    {
      "inputs": [],
      "name": "total_questions",
      "outputs": [
        {
          "internalType": "uint256",
          "name": "",
          "type": "uint256"
        }
      ],
      "stateMutability": "view",
      "type": "function",
      "constant": true
    },
    {
      "inputs": [],
      "name": "total_users",
      "outputs": [
        {
          "internalType": "uint256",
          "name": "",
          "type": "uint256"
        }
      ],
      "stateMutability": "view",
      "type": "function",
      "constant": true
    },
    {
      "inputs": [
        {
          "internalType": "address",
          "name": "",
          "type": "address"
        }
      ],
      "name": "users",
      "outputs": [
        {
          "internalType": "uint256",
          "name": "id",
          "type": "uint256"
        },
        {
          "internalType": "address",
          "name": "account",
          "type": "address"
        },
        {
          "internalType": "string",
          "name": "name",
          "type": "string"
        }
      ],
      "stateMutability": "view",
      "type": "function",
      "constant": true
    },
    {
      "inputs": [
        {
          "internalType": "string",
          "name": "_name",
          "type": "string"
        }
      ],
      "name": "create_user",
      "outputs": [
        {
          "components": [
            {
              "internalType": "uint256",
              "name": "id",
              "type": "uint256"
            },
            {
              "internalType": "address",
              "name": "account",
              "type": "address"
            },
            {
              "internalType": "string",
              "name": "name",
              "type": "string"
            },
            {
              "internalType": "uint256[]",
              "name": "questions",
              "type": "uint256[]"
            },
            {
              "internalType": "uint256[]",
              "name": "answers",
              "type": "uint256[]"
            }
          ],
          "internalType": "struct DeQuora.User",
          "name": "",
          "type": "tuple"
        }
      ],
      "stateMutability": "payable",
      "type": "function",
      "payable": true
    },
    {
      "inputs": [
        {
          "internalType": "address",
          "name": "_user_address",
          "type": "address"
        }
      ],
      "name": "get_user_details",
      "outputs": [
        {
          "components": [
            {
              "internalType": "uint256",
              "name": "id",
              "type": "uint256"
            },
            {
              "internalType": "address",
              "name": "account",
              "type": "address"
            },
            {
              "internalType": "string",
              "name": "name",
              "type": "string"
            },
            {
              "internalType": "uint256[]",
              "name": "questions",
              "type": "uint256[]"
            },
            {
              "internalType": "uint256[]",
              "name": "answers",
              "type": "uint256[]"
            }
          ],
          "internalType": "struct DeQuora.User",
          "name": "",
          "type": "tuple"
        }
      ],
      "stateMutability": "view",
      "type": "function",
      "constant": true
    },
    {
      "inputs": [
        {
          "internalType": "string",
          "name": "_question",
          "type": "string"
        }
      ],
      "name": "add_question",
      "outputs": [
        {
          "components": [
            {
              "internalType": "uint256",
              "name": "id",
              "type": "uint256"
            },
            {
              "internalType": "string",
              "name": "question",
              "type": "string"
            },
            {
              "internalType": "address",
              "name": "author",
              "type": "address"
            },
            {
              "internalType": "uint256",
              "name": "total_answers",
              "type": "uint256"
            },
            {
              "internalType": "uint256",
              "name": "likes",
              "type": "uint256"
            },
            {
              "internalType": "address[]",
              "name": "liked_by",
              "type": "address[]"
            }
          ],
          "internalType": "struct DeQuora.Question",
          "name": "",
          "type": "tuple"
        }
      ],
      "stateMutability": "payable",
      "type": "function",
      "payable": true
    },
    {
      "inputs": [],
      "name": "get_all_questions",
      "outputs": [
        {
          "components": [
            {
              "internalType": "uint256",
              "name": "id",
              "type": "uint256"
            },
            {
              "internalType": "string",
              "name": "question",
              "type": "string"
            },
            {
              "internalType": "address",
              "name": "author",
              "type": "address"
            },
            {
              "internalType": "uint256",
              "name": "total_answers",
              "type": "uint256"
            },
            {
              "internalType": "uint256",
              "name": "likes",
              "type": "uint256"
            },
            {
              "internalType": "address[]",
              "name": "liked_by",
              "type": "address[]"
            }
          ],
          "internalType": "struct DeQuora.Question[]",
          "name": "",
          "type": "tuple[]"
        }
      ],
      "stateMutability": "view",
      "type": "function",
      "constant": true
    },
    {
      "inputs": [
        {
          "internalType": "uint256",
          "name": "_question_id",
          "type": "uint256"
        }
      ],
      "name": "get_question",
      "outputs": [
        {
          "components": [
            {
              "internalType": "uint256",
              "name": "id",
              "type": "uint256"
            },
            {
              "internalType": "string",
              "name": "question",
              "type": "string"
            },
            {
              "internalType": "address",
              "name": "author",
              "type": "address"
            },
            {
              "internalType": "uint256",
              "name": "total_answers",
              "type": "uint256"
            },
            {
              "internalType": "uint256",
              "name": "likes",
              "type": "uint256"
            },
            {
              "internalType": "address[]",
              "name": "liked_by",
              "type": "address[]"
            }
          ],
          "internalType": "struct DeQuora.Question",
          "name": "",
          "type": "tuple"
        }
      ],
      "stateMutability": "view",
      "type": "function",
      "constant": true
    },
    {
      "inputs": [
        {
          "components": [
            {
              "internalType": "uint256",
              "name": "id",
              "type": "uint256"
            },
            {
              "internalType": "string",
              "name": "question",
              "type": "string"
            },
            {
              "internalType": "address",
              "name": "author",
              "type": "address"
            },
            {
              "internalType": "uint256",
              "name": "total_answers",
              "type": "uint256"
            },
            {
              "internalType": "uint256",
              "name": "likes",
              "type": "uint256"
            },
            {
              "internalType": "address[]",
              "name": "liked_by",
              "type": "address[]"
            }
          ],
          "internalType": "struct DeQuora.Question",
          "name": "_question",
          "type": "tuple"
        },
        {
          "internalType": "uint256",
          "name": "_question_id",
          "type": "uint256"
        }
      ],
      "name": "set_question",
      "outputs": [],
      "stateMutability": "nonpayable",
      "type": "function"
    },
    {
      "inputs": [
        {
          "internalType": "uint256",
          "name": "_question_id",
          "type": "uint256"
        },
        {
          "internalType": "string",
          "name": "_answer",
          "type": "string"
        }
      ],
      "name": "add_answer",
      "outputs": [
        {
          "components": [
            {
              "internalType": "uint256",
              "name": "id",
              "type": "uint256"
            },
            {
              "internalType": "string",
              "name": "answer",
              "type": "string"
            },
            {
              "internalType": "address",
              "name": "author",
              "type": "address"
            },
            {
              "internalType": "uint256",
              "name": "likes",
              "type": "uint256"
            },
            {
              "internalType": "address[]",
              "name": "liked_by",
              "type": "address[]"
            }
          ],
          "internalType": "struct DeQuora.Answer",
          "name": "",
          "type": "tuple"
        }
      ],
      "stateMutability": "nonpayable",
      "type": "function"
    },
    {
      "inputs": [
        {
          "internalType": "uint256",
          "name": "_question_id",
          "type": "uint256"
        },
        {
          "internalType": "uint256",
          "name": "_answer_id",
          "type": "uint256"
        }
      ],
      "name": "get_answer",
      "outputs": [
        {
          "components": [
            {
              "internalType": "uint256",
              "name": "id",
              "type": "uint256"
            },
            {
              "internalType": "string",
              "name": "answer",
              "type": "string"
            },
            {
              "internalType": "address",
              "name": "author",
              "type": "address"
            },
            {
              "internalType": "uint256",
              "name": "likes",
              "type": "uint256"
            },
            {
              "internalType": "address[]",
              "name": "liked_by",
              "type": "address[]"
            }
          ],
          "internalType": "struct DeQuora.Answer",
          "name": "",
          "type": "tuple"
        }
      ],
      "stateMutability": "view",
      "type": "function",
      "constant": true
    },
    {
      "inputs": [
        {
          "internalType": "uint256",
          "name": "_question_id",
          "type": "uint256"
        },
        {
          "internalType": "uint256",
          "name": "_answer_id",
          "type": "uint256"
        },
        {
          "components": [
            {
              "internalType": "uint256",
              "name": "id",
              "type": "uint256"
            },
            {
              "internalType": "string",
              "name": "answer",
              "type": "string"
            },
            {
              "internalType": "address",
              "name": "author",
              "type": "address"
            },
            {
              "internalType": "uint256",
              "name": "likes",
              "type": "uint256"
            },
            {
              "internalType": "address[]",
              "name": "liked_by",
              "type": "address[]"
            }
          ],
          "internalType": "struct DeQuora.Answer",
          "name": "_answer",
          "type": "tuple"
        }
      ],
      "name": "set_answer",
      "outputs": [
        {
          "components": [
            {
              "internalType": "uint256",
              "name": "id",
              "type": "uint256"
            },
            {
              "internalType": "string",
              "name": "question",
              "type": "string"
            },
            {
              "internalType": "address",
              "name": "author",
              "type": "address"
            },
            {
              "internalType": "uint256",
              "name": "total_answers",
              "type": "uint256"
            },
            {
              "internalType": "uint256",
              "name": "likes",
              "type": "uint256"
            },
            {
              "internalType": "address[]",
              "name": "liked_by",
              "type": "address[]"
            }
          ],
          "internalType": "struct DeQuora.Question",
          "name": "",
          "type": "tuple"
        }
      ],
      "stateMutability": "nonpayable",
      "type": "function"
    },
    {
      "inputs": [
        {
          "internalType": "uint256",
          "name": "_question_id",
          "type": "uint256"
        },
        {
          "internalType": "uint256",
          "name": "_answer_id",
          "type": "uint256"
        },
        {
          "internalType": "address",
          "name": "_user_address",
          "type": "address"
        }
      ],
      "name": "like_answer",
      "outputs": [
        {
          "components": [
            {
              "internalType": "uint256",
              "name": "id",
              "type": "uint256"
            },
            {
              "internalType": "string",
              "name": "answer",
              "type": "string"
            },
            {
              "internalType": "address",
              "name": "author",
              "type": "address"
            },
            {
              "internalType": "uint256",
              "name": "likes",
              "type": "uint256"
            },
            {
              "internalType": "address[]",
              "name": "liked_by",
              "type": "address[]"
            }
          ],
          "internalType": "struct DeQuora.Answer",
          "name": "",
          "type": "tuple"
        }
      ],
      "stateMutability": "nonpayable",
      "type": "function"
    }
  ],
  "bytecode": "0x60806040523480156200001157600080fd5b506000808190555060006001819055507f316a024183dffe386f9e64eeb7d2108a2f170f4c8708641f33f165f6dda8b9736040516200005090620000bf565b60405180910390a1620000e1565b600082825260208201905092915050565b7f4d61696e206973206465706c6f79656400000000000000000000000000000000600082015250565b6000620000a76010836200005e565b9150620000b4826200006f565b602082019050919050565b60006020820190508181036000830152620000da8162000098565b9050919050565b612f7f80620000f16000396000f3fe6080604052600436106100e85760003560e01c80638053a9961161008a578063d2965f0411610059578063d2965f0414610343578063df16b7ab14610380578063e7cc62bd146103bd578063ff30ae0c146103e8576100e8565b80638053a99614610273578063a87430ba1461029c578063c84ccaef146102db578063cdea694e14610306576100e8565b8063403aa93b116100c6578063403aa93b1461019957806348e8158a146101d65780634ee1d75214610206578063676c988114610243576100e8565b80632401519c146100ed57806330de49841461012d57806331b1b97814610158575b600080fd5b3480156100f957600080fd5b50610114600480360381019061010f9190611e94565b610425565b6040516101249493929190611fbd565b60405180910390f35b34801561013957600080fd5b5061014261051a565b60405161014f9190612272565b60405180910390f35b34801561016457600080fd5b5061017f600480360381019061017a9190612294565b61070d565b6040516101909594939291906122c1565b60405180910390f35b3480156101a557600080fd5b506101c060048036038101906101bb9190612294565b6107fb565b6040516101cd91906123ab565b60405180910390f35b6101f060048036038101906101eb9190612502565b610a2a565b6040516101fd919061267e565b60405180910390f35b34801561021257600080fd5b5061022d600480360381019061022891906126cc565b610bff565b60405161023a919061279c565b60405180910390f35b61025d60048036038101906102589190612502565b610d62565b60405161026a91906123ab565b60405180910390f35b34801561027f57600080fd5b5061029a60048036038101906102959190612968565b610f90565b005b3480156102a857600080fd5b506102c360048036038101906102be91906129c4565b6110ac565b6040516102d2939291906129f1565b60405180910390f35b3480156102e757600080fd5b506102f061117e565b6040516102fd9190612a2f565b60405180910390f35b34801561031257600080fd5b5061032d60048036038101906103289190612b0e565b611184565b60405161033a91906123ab565b60405180910390f35b34801561034f57600080fd5b5061036a600480360381019061036591906129c4565b6112d6565b604051610377919061267e565b60405180910390f35b34801561038c57600080fd5b506103a760048036038101906103a29190612b7d565b6114d7565b6040516103b4919061279c565b60405180910390f35b3480156103c957600080fd5b506103d26116e8565b6040516103df9190612a2f565b60405180910390f35b3480156103f457600080fd5b5061040f600480360381019061040a9190611e94565b6116ee565b60405161041c919061279c565b60405180910390f35b6003602052816000526040600020818154811061044157600080fd5b90600052602060002090600502016000915091505080600001549080600101805461046b90612c08565b80601f016020809104026020016040519081016040528092919081815260200182805461049790612c08565b80156104e45780601f106104b9576101008083540402835291602001916104e4565b820191906000526020600020905b8154815290600101906020018083116104c757829003601f168201915b5050505050908060020160009054906101000a900473ffffffffffffffffffffffffffffffffffffffff16908060030154905084565b60606004805480602002602001604051908101604052809291908181526020016000905b8282101561070457838290600052602060002090600602016040518060c00160405290816000820154815260200160018201805461057b90612c08565b80601f01602080910402602001604051908101604052809291908181526020018280546105a790612c08565b80156105f45780601f106105c9576101008083540402835291602001916105f4565b820191906000526020600020905b8154815290600101906020018083116105d757829003601f168201915b505050505081526020016002820160009054906101000a900473ffffffffffffffffffffffffffffffffffffffff1673ffffffffffffffffffffffffffffffffffffffff1673ffffffffffffffffffffffffffffffffffffffff1681526020016003820154815260200160048201548152602001600582018054806020026020016040519081016040528092919081815260200182805480156106ec57602002820191906000526020600020905b8160009054906101000a900473ffffffffffffffffffffffffffffffffffffffff1673ffffffffffffffffffffffffffffffffffffffff16815260200190600101908083116106a2575b5050505050815250508152602001906001019061053e565b50505050905090565b6004818154811061071d57600080fd5b906000526020600020906006020160009150905080600001549080600101805461074690612c08565b80601f016020809104026020016040519081016040528092919081815260200182805461077290612c08565b80156107bf5780601f10610794576101008083540402835291602001916107bf565b820191906000526020600020905b8154815290600101906020018083116107a257829003601f168201915b5050505050908060020160009054906101000a900473ffffffffffffffffffffffffffffffffffffffff16908060030154908060040154905085565b610803611942565b61080b611942565b60005b600154811015610a2057836004828154811061082d5761082c612c3a565b5b9060005260206000209060060201600001541415610a0d576004818154811061085957610858612c3a565b5b90600052602060002090600602016040518060c00160405290816000820154815260200160018201805461088c90612c08565b80601f01602080910402602001604051908101604052809291908181526020018280546108b890612c08565b80156109055780601f106108da57610100808354040283529160200191610905565b820191906000526020600020905b8154815290600101906020018083116108e857829003601f168201915b505050505081526020016002820160009054906101000a900473ffffffffffffffffffffffffffffffffffffffff1673ffffffffffffffffffffffffffffffffffffffff1673ffffffffffffffffffffffffffffffffffffffff1681526020016003820154815260200160048201548152602001600582018054806020026020016040519081016040528092919081815260200182805480156109fd57602002820191906000526020600020905b8160009054906101000a900473ffffffffffffffffffffffffffffffffffffffff1673ffffffffffffffffffffffffffffffffffffffff16815260200190600101908083116109b3575b5050505050815250509150610a20565b8080610a1890612c98565b91505061080e565b5080915050919050565b610a3261198e565b600082511415610a77576040517f08c379a0000000000000000000000000000000000000000000000000000000008152600401610a6e90612d2d565b60405180910390fd5b606060006040518060a0016040528060005481526020013373ffffffffffffffffffffffffffffffffffffffff16815260200185815260200183815260200183815250905080600260003373ffffffffffffffffffffffffffffffffffffffff1673ffffffffffffffffffffffffffffffffffffffff1681526020019081526020016000206000820151816000015560208201518160010160006101000a81548173ffffffffffffffffffffffffffffffffffffffff021916908373ffffffffffffffffffffffffffffffffffffffff1602179055506040820151816002019080519060200190610b699291906119d3565b506060820151816003019080519060200190610b86929190611a59565b506080820151816004019080519060200190610ba3929190611a59565b50905050600080815480929190610bb990612c98565b91905055507f282a36b6c0a2cff0ae90d0c099853c7bd21f09c60eb100ba9bf4ebba48398c3381604051610bed919061267e565b60405180910390a18092505050919050565b610c07611aa6565b6000610c12856107fb565b90506000610c2086866116ee565b905060005b816080015151811015610cd2578473ffffffffffffffffffffffffffffffffffffffff1682608001518281518110610c6057610c5f612c3a565b5b602002602001015173ffffffffffffffffffffffffffffffffffffffff161415610cbf576040517f08c379a0000000000000000000000000000000000000000000000000000000008152600401610cb690612dbf565b60405180910390fd5b8080610cca90612c98565b915050610c25565b50838160800151826060015181518110610cef57610cee612c3a565b5b602002602001019073ffffffffffffffffffffffffffffffffffffffff16908173ffffffffffffffffffffffffffffffffffffffff1681525050806060018051809190610d3b90612c98565b81525050610d4a868683611184565b9150610d568287610f90565b80925050509392505050565b610d6a611942565b600082511415610daf576040517f08c379a0000000000000000000000000000000000000000000000000000000008152600401610da690612e2b565b60405180910390fd5b60006040518060c0016040528060015481526020018481526020013373ffffffffffffffffffffffffffffffffffffffff1681526020016000815260200160008152602001600067ffffffffffffffff811115610e0f57610e0e6123d7565b5b604051908082528060200260200182016040528015610e3d5781602001602082028036833780820191505090505b5081525090506004819080600181540180825580915050600190039060005260206000209060060201600090919091909150600082015181600001556020820151816001019080519060200190610e959291906119d3565b5060408201518160020160006101000a81548173ffffffffffffffffffffffffffffffffffffffff021916908373ffffffffffffffffffffffffffffffffffffffff160217905550606082015181600301556080820151816004015560a0820151816005019080519060200190610f0d929190611aeb565b50505060016000815480929190610f2390612c98565b919050555060056003600083600001518152602001908152602001600020908054610f4f929190611b75565b507f3e49e1ff220215f62d8bcccf158ed0c89db018f69aaea3d37db64d060dcb5b1881604051610f7f91906123ab565b60405180910390a180915050919050565b60005b6001548110156110a7578160048281548110610fb257610fb1612c3a565b5b9060005260206000209060060201600001541415611094578260048281548110610fdf57610fde612c3a565b5b90600052602060002090600602016000820151816000015560208201518160010190805190602001906110139291906119d3565b5060408201518160020160006101000a81548173ffffffffffffffffffffffffffffffffffffffff021916908373ffffffffffffffffffffffffffffffffffffffff160217905550606082015181600301556080820151816004015560a082015181600501908051906020019061108b929190611aeb565b509050506110a7565b808061109f90612c98565b915050610f93565b505050565b60026020528060005260406000206000915090508060000154908060010160009054906101000a900473ffffffffffffffffffffffffffffffffffffffff16908060020180546110fb90612c08565b80601f016020809104026020016040519081016040528092919081815260200182805461112790612c08565b80156111745780601f1061114957610100808354040283529160200191611174565b820191906000526020600020905b81548152906001019060200180831161115757829003601f168201915b5050505050905083565b60015481565b61118c611942565b6000611197856107fb565b905060005b81606001518110156112ca57846003600088815260200190815260200160002082815481106111ce576111cd612c3a565b5b90600052602060002090600502016000015414156112b7578360036000888152602001908152602001600020828154811061120c5761120b612c3a565b5b90600052602060002090600502016000820151816000015560208201518160010190805190602001906112409291906119d3565b5060408201518160020160006101000a81548173ffffffffffffffffffffffffffffffffffffffff021916908373ffffffffffffffffffffffffffffffffffffffff1602179055506060820151816003015560808201518160040190805190602001906112ae929190611aeb565b509050506112ca565b80806112c290612c98565b91505061119c565b50809150509392505050565b6112de61198e565b6000600260008473ffffffffffffffffffffffffffffffffffffffff1673ffffffffffffffffffffffffffffffffffffffff1681526020019081526020016000206040518060a0016040529081600082015481526020016001820160009054906101000a900473ffffffffffffffffffffffffffffffffffffffff1673ffffffffffffffffffffffffffffffffffffffff1673ffffffffffffffffffffffffffffffffffffffff16815260200160028201805461139a90612c08565b80601f01602080910402602001604051908101604052809291908181526020018280546113c690612c08565b80156114135780601f106113e857610100808354040283529160200191611413565b820191906000526020600020905b8154815290600101906020018083116113f657829003601f168201915b505050505081526020016003820180548060200260200160405190810160405280929190818152602001828054801561146b57602002820191906000526020600020905b815481526020019060010190808311611457575b50505050508152602001600482018054806020026020016040519081016040528092919081815260200182805480156114c357602002820191906000526020600020905b8154815260200190600101908083116114af575b505050505081525050905080915050919050565b6114df611aa6565b600082511415611524576040517f08c379a000000000000000000000000000000000000000000000000000000000815260040161151b90612e97565b60405180910390fd5b600061152f846107fb565b90503373ffffffffffffffffffffffffffffffffffffffff16816040015173ffffffffffffffffffffffffffffffffffffffff1614156115a4576040517f08c379a000000000000000000000000000000000000000000000000000000000815260040161159b90612f29565b60405180910390fd5b606060006040518060a00160405280846060015181526020018681526020013373ffffffffffffffffffffffffffffffffffffffff16815260200160008152602001838152509050806003600088815260200190815260200160002084606001518154811061161657611615612c3a565b5b906000526020600020906005020160008201518160000155602082015181600101908051906020019061164a9291906119d3565b5060408201518160020160006101000a81548173ffffffffffffffffffffffffffffffffffffffff021916908373ffffffffffffffffffffffffffffffffffffffff1602179055506060820151816003015560808201518160040190805190602001906116b8929190611aeb565b509050508260600180518091906116ce90612c98565b815250506116dc8387610f90565b80935050505092915050565b60005481565b6116f6611aa6565b6000611701846107fb565b905061170b611aa6565b60005b826060015181101561193657846003600088815260200190815260200160002082815481106117405761173f612c3a565b5b90600052602060002090600502016000015414156119235760036000878152602001908152602001600020818154811061177d5761177c612c3a565b5b90600052602060002090600502016040518060a0016040529081600082015481526020016001820180546117b090612c08565b80601f01602080910402602001604051908101604052809291908181526020018280546117dc90612c08565b80156118295780601f106117fe57610100808354040283529160200191611829565b820191906000526020600020905b81548152906001019060200180831161180c57829003601f168201915b505050505081526020016002820160009054906101000a900473ffffffffffffffffffffffffffffffffffffffff1673ffffffffffffffffffffffffffffffffffffffff1673ffffffffffffffffffffffffffffffffffffffff168152602001600382015481526020016004820180548060200260200160405190810160405280929190818152602001828054801561191757602002820191906000526020600020905b8160009054906101000a900473ffffffffffffffffffffffffffffffffffffffff1673ffffffffffffffffffffffffffffffffffffffff16815260200190600101908083116118cd575b50505050508152505091505b808061192e90612c98565b91505061170e565b50809250505092915050565b6040518060c001604052806000815260200160608152602001600073ffffffffffffffffffffffffffffffffffffffff1681526020016000815260200160008152602001606081525090565b6040518060a0016040528060008152602001600073ffffffffffffffffffffffffffffffffffffffff1681526020016060815260200160608152602001606081525090565b8280546119df90612c08565b90600052602060002090601f016020900481019282611a015760008555611a48565b82601f10611a1a57805160ff1916838001178555611a48565b82800160010185558215611a48579182015b82811115611a47578251825591602001919060010190611a2c565b5b509050611a559190611c7f565b5090565b828054828255906000526020600020908101928215611a95579160200282015b82811115611a94578251825591602001919060010190611a79565b5b509050611aa29190611c7f565b5090565b6040518060a001604052806000815260200160608152602001600073ffffffffffffffffffffffffffffffffffffffff16815260200160008152602001606081525090565b828054828255906000526020600020908101928215611b64579160200282015b82811115611b635782518260006101000a81548173ffffffffffffffffffffffffffffffffffffffff021916908373ffffffffffffffffffffffffffffffffffffffff16021790555091602001919060010190611b0b565b5b509050611b719190611c7f565b5090565b828054828255906000526020600020906005028101928215611c6e5760005260206000209160050282015b82811115611c6d578282600082015481600001556001820181600101908054611bc890612c08565b611bd3929190611c9c565b506002820160009054906101000a900473ffffffffffffffffffffffffffffffffffffffff168160020160006101000a81548173ffffffffffffffffffffffffffffffffffffffff021916908373ffffffffffffffffffffffffffffffffffffffff160217905550600382015481600301556004820181600401908054611c5b929190611d29565b50505091600501919060050190611ba0565b5b509050611c7b9190611d7b565b5090565b5b80821115611c98576000816000905550600101611c80565b5090565b828054611ca890612c08565b90600052602060002090601f016020900481019282611cca5760008555611d18565b82601f10611cdb5780548555611d18565b82800160010185558215611d1857600052602060002091601f016020900482015b82811115611d17578254825591600101919060010190611cfc565b5b509050611d259190611c7f565b5090565b828054828255906000526020600020908101928215611d6a5760005260206000209182015b82811115611d69578254825591600101919060010190611d4e565b5b509050611d779190611c7f565b5090565b5b80821115611de557600080820160009055600182016000611d9d9190611de9565b6002820160006101000a81549073ffffffffffffffffffffffffffffffffffffffff02191690556003820160009055600482016000611ddc9190611e29565b50600501611d7c565b5090565b508054611df590612c08565b6000825580601f10611e075750611e26565b601f016020900490600052602060002090810190611e259190611c7f565b5b50565b5080546000825590600052602060002090810190611e479190611c7f565b50565b6000604051905090565b600080fd5b600080fd5b6000819050919050565b611e7181611e5e565b8114611e7c57600080fd5b50565b600081359050611e8e81611e68565b92915050565b60008060408385031215611eab57611eaa611e54565b5b6000611eb985828601611e7f565b9250506020611eca85828601611e7f565b9150509250929050565b611edd81611e5e565b82525050565b600081519050919050565b600082825260208201905092915050565b60005b83811015611f1d578082015181840152602081019050611f02565b83811115611f2c576000848401525b50505050565b6000601f19601f8301169050919050565b6000611f4e82611ee3565b611f588185611eee565b9350611f68818560208601611eff565b611f7181611f32565b840191505092915050565b600073ffffffffffffffffffffffffffffffffffffffff82169050919050565b6000611fa782611f7c565b9050919050565b611fb781611f9c565b82525050565b6000608082019050611fd26000830187611ed4565b8181036020830152611fe48186611f43565b9050611ff36040830185611fae565b6120006060830184611ed4565b95945050505050565b600081519050919050565b600082825260208201905092915050565b6000819050602082019050919050565b61203e81611e5e565b82525050565b600082825260208201905092915050565b600061206082611ee3565b61206a8185612044565b935061207a818560208601611eff565b61208381611f32565b840191505092915050565b61209781611f9c565b82525050565b600081519050919050565b600082825260208201905092915050565b6000819050602082019050919050565b60006120d5838361208e565b60208301905092915050565b6000602082019050919050565b60006120f98261209d565b61210381856120a8565b935061210e836120b9565b8060005b8381101561213f57815161212688826120c9565b9750612131836120e1565b925050600181019050612112565b5085935050505092915050565b600060c0830160008301516121646000860182612035565b506020830151848203602086015261217c8282612055565b9150506040830151612191604086018261208e565b5060608301516121a46060860182612035565b5060808301516121b76080860182612035565b5060a083015184820360a08601526121cf82826120ee565b9150508091505092915050565b60006121e8838361214c565b905092915050565b6000602082019050919050565b600061220882612009565b6122128185612014565b93508360208202850161222485612025565b8060005b85811015612260578484038952815161224185826121dc565b945061224c836121f0565b925060208a01995050600181019050612228565b50829750879550505050505092915050565b6000602082019050818103600083015261228c81846121fd565b905092915050565b6000602082840312156122aa576122a9611e54565b5b60006122b884828501611e7f565b91505092915050565b600060a0820190506122d66000830188611ed4565b81810360208301526122e88187611f43565b90506122f76040830186611fae565b6123046060830185611ed4565b6123116080830184611ed4565b9695505050505050565b600060c0830160008301516123336000860182612035565b506020830151848203602086015261234b8282612055565b9150506040830151612360604086018261208e565b5060608301516123736060860182612035565b5060808301516123866080860182612035565b5060a083015184820360a086015261239e82826120ee565b9150508091505092915050565b600060208201905081810360008301526123c5818461231b565b905092915050565b600080fd5b600080fd5b7f4e487b7100000000000000000000000000000000000000000000000000000000600052604160045260246000fd5b61240f82611f32565b810181811067ffffffffffffffff8211171561242e5761242d6123d7565b5b80604052505050565b6000612441611e4a565b905061244d8282612406565b919050565b600067ffffffffffffffff82111561246d5761246c6123d7565b5b61247682611f32565b9050602081019050919050565b82818337600083830152505050565b60006124a56124a084612452565b612437565b9050828152602081018484840111156124c1576124c06123d2565b5b6124cc848285612483565b509392505050565b600082601f8301126124e9576124e86123cd565b5b81356124f9848260208601612492565b91505092915050565b60006020828403121561251857612517611e54565b5b600082013567ffffffffffffffff81111561253657612535611e59565b5b612542848285016124d4565b91505092915050565b600081519050919050565b600082825260208201905092915050565b6000819050602082019050919050565b60006125838383612035565b60208301905092915050565b6000602082019050919050565b60006125a78261254b565b6125b18185612556565b93506125bc83612567565b8060005b838110156125ed5781516125d48882612577565b97506125df8361258f565b9250506001810190506125c0565b5085935050505092915050565b600060a0830160008301516126126000860182612035565b506020830151612625602086018261208e565b506040830151848203604086015261263d8282612055565b91505060608301518482036060860152612657828261259c565b91505060808301518482036080860152612671828261259c565b9150508091505092915050565b6000602082019050818103600083015261269881846125fa565b905092915050565b6126a981611f9c565b81146126b457600080fd5b50565b6000813590506126c6816126a0565b92915050565b6000806000606084860312156126e5576126e4611e54565b5b60006126f386828701611e7f565b935050602061270486828701611e7f565b9250506040612715868287016126b7565b9150509250925092565b600060a0830160008301516127376000860182612035565b506020830151848203602086015261274f8282612055565b9150506040830151612764604086018261208e565b5060608301516127776060860182612035565b506080830151848203608086015261278f82826120ee565b9150508091505092915050565b600060208201905081810360008301526127b6818461271f565b905092915050565b600080fd5b600080fd5b600067ffffffffffffffff8211156127e3576127e26123d7565b5b602082029050602081019050919050565b600080fd5b600061280c612807846127c8565b612437565b9050808382526020820190506020840283018581111561282f5761282e6127f4565b5b835b81811015612858578061284488826126b7565b845260208401935050602081019050612831565b5050509392505050565b600082601f830112612877576128766123cd565b5b81356128878482602086016127f9565b91505092915050565b600060c082840312156128a6576128a56127be565b5b6128b060c0612437565b905060006128c084828501611e7f565b600083015250602082013567ffffffffffffffff8111156128e4576128e36127c3565b5b6128f0848285016124d4565b6020830152506040612904848285016126b7565b604083015250606061291884828501611e7f565b606083015250608061292c84828501611e7f565b60808301525060a082013567ffffffffffffffff8111156129505761294f6127c3565b5b61295c84828501612862565b60a08301525092915050565b6000806040838503121561297f5761297e611e54565b5b600083013567ffffffffffffffff81111561299d5761299c611e59565b5b6129a985828601612890565b92505060206129ba85828601611e7f565b9150509250929050565b6000602082840312156129da576129d9611e54565b5b60006129e8848285016126b7565b91505092915050565b6000606082019050612a066000830186611ed4565b612a136020830185611fae565b8181036040830152612a258184611f43565b9050949350505050565b6000602082019050612a446000830184611ed4565b92915050565b600060a08284031215612a6057612a5f6127be565b5b612a6a60a0612437565b90506000612a7a84828501611e7f565b600083015250602082013567ffffffffffffffff811115612a9e57612a9d6127c3565b5b612aaa848285016124d4565b6020830152506040612abe848285016126b7565b6040830152506060612ad284828501611e7f565b606083015250608082013567ffffffffffffffff811115612af657612af56127c3565b5b612b0284828501612862565b60808301525092915050565b600080600060608486031215612b2757612b26611e54565b5b6000612b3586828701611e7f565b9350506020612b4686828701611e7f565b925050604084013567ffffffffffffffff811115612b6757612b66611e59565b5b612b7386828701612a4a565b9150509250925092565b60008060408385031215612b9457612b93611e54565b5b6000612ba285828601611e7f565b925050602083013567ffffffffffffffff811115612bc357612bc2611e59565b5b612bcf858286016124d4565b9150509250929050565b7f4e487b7100000000000000000000000000000000000000000000000000000000600052602260045260246000fd5b60006002820490506001821680612c2057607f821691505b60208210811415612c3457612c33612bd9565b5b50919050565b7f4e487b7100000000000000000000000000000000000000000000000000000000600052603260045260246000fd5b7f4e487b7100000000000000000000000000000000000000000000000000000000600052601160045260246000fd5b6000612ca382611e5e565b91507fffffffffffffffffffffffffffffffffffffffffffffffffffffffffffffffff821415612cd657612cd5612c69565b5b600182019050919050565b7f4e616d652063616e6e6f7420626520656d707479000000000000000000000000600082015250565b6000612d17601483611eee565b9150612d2282612ce1565b602082019050919050565b60006020820190508181036000830152612d4681612d0a565b9050919050565b7f596f75206861766520616c7265616479206c696b6564207468697320616e737760008201527f6572000000000000000000000000000000000000000000000000000000000000602082015250565b6000612da9602283611eee565b9150612db482612d4d565b604082019050919050565b60006020820190508181036000830152612dd881612d9c565b9050919050565b7f5175657374696f6e2063616e6e6f7420626520656d7074790000000000000000600082015250565b6000612e15601883611eee565b9150612e2082612ddf565b602082019050919050565b60006020820190508181036000830152612e4481612e08565b9050919050565b7f416e737765722063616e6e6f7420626520656d70747900000000000000000000600082015250565b6000612e81601683611eee565b9150612e8c82612e4b565b602082019050919050565b60006020820190508181036000830152612eb081612e74565b9050919050565b7f417574686f722063616e6e6f7420616e73776572206869732f686572206f776e60008201527f207175657374696f6e0000000000000000000000000000000000000000000000602082015250565b6000612f13602983611eee565b9150612f1e82612eb7565b604082019050919050565b60006020820190508181036000830152612f4281612f06565b905091905056fea26469706673582212206c0040dd4167cccb2ad3e08fdb0891e3f79b70040b8f617d84f6c7cbd1ae365964736f6c634300080b0033",
  "immutableReferences": {},
  "source": "// SPDX-License-Identifier: MIT\npragma solidity >=0.4.22 <0.9.0;\n\ncontract DeQuora {\n\n    struct User{\n        uint id;\n        address account;\n        string name;\n        uint[] questions;\n        uint[] answers;\n    }\n\n    struct Question{\n        uint id;\n        string question;\n        address author;\n        uint total_answers;\n        uint likes;\n        address[] liked_by;\n    }\n\n    struct Answer{\n        uint id;\n        string answer;\n        address author;\n        uint256 likes;\n        address[] liked_by;\n    }\n\n\n    uint public total_users;\n    uint public total_questions;\n    mapping(address => User) public users;    \n    mapping(uint => Answer[]) public answers; //question id to answers\n    Question[] public questions; // user address to question\n    Answer[] answers_array;\n\n    event new_user_added(User);\n    event main_deployed(string);\n    event question_added(Question);\n\n\n    constructor(){\n        total_users = 0;\n        total_questions = 0;\n        emit main_deployed('Main is deployed');\n    }\n\n    function create_user(string memory _name) public payable returns(User memory){\n\n        require(bytes(_name).length != 0,\"Name cannot be empty\");\n\n        //Create a new user\n        uint[] memory arr;\n        User memory newUser = User(total_users, msg.sender, _name, arr, arr);\n        users[msg.sender] = newUser;\n        total_users++;\n        emit new_user_added(newUser);\n        \n        //Return the user\n        return newUser;\n    }\n\n    function get_user_details(address _user_address) public view returns(User memory){\n        User memory user = users[_user_address];\n        return user;\n    }\n\n    function add_question(string memory _question) public payable returns(Question memory){\n        require(bytes(_question).length != 0,\"Question cannot be empty\");\n        \n        //Create the question\n        Question memory newQuestion = Question(total_questions, _question, msg.sender, 0, 0, new address[](0));\n        questions.push(newQuestion);\n        total_questions++;\n\n        answers[newQuestion.id] = answers_array;\n\n        emit question_added(newQuestion);\n\n        //return the question\n        return newQuestion;\n    }\n\n    function get_all_questions() public view returns(Question[] memory){\n        return questions;\n    }\n\n    function get_question(uint _question_id) public view returns(Question memory){\n\n        Question memory question;\n\n        //iterate over all the questions\n        for(uint i=0; i<total_questions; i++){\n            // check for the question with the given id\n            if(questions[i].id == _question_id){\n                //return the question with the given id, and corresponding author    \n                question = questions[i];\n                break;\n            }\n        }\n        return question;\n    }\n\n    function set_question(Question memory _question, uint _question_id) public {\n        \n        //iterate over all the questions\n        for(uint i=0; i<total_questions; i++){\n\n            // check for the question to be updated usign the id\n            if(questions[i].id == _question_id){\n\n                //update the question when found\n                questions[i] = _question;\n                break;\n            }\n        }\n    }\n\n    function add_answer(uint _question_id,string memory _answer) public returns(Answer memory){\n\n        require(bytes(_answer).length != 0,\"Answer cannot be empty\");\n\n        //Get the question from all the questions\n        Question memory question= get_question(_question_id);\n\n        require(question.author != msg.sender,\"Author cannot answer his/her own question\");\n\n        //Create the answer\n        address[] memory arr;\n        Answer memory answer = Answer(question.total_answers, _answer, msg.sender,0,arr);\n\n        //Add the answer to records\n        answers[_question_id][question.total_answers] = answer;\n        question.total_answers++;\n\n        //update the question in the array\n        set_question(question, _question_id);\n        return answer;\n    }        \n\n    function get_answer(uint _question_id, uint _answer_id) public view returns(Answer memory){\n\n        //Get the question\n        Question memory question = get_question(_question_id);\n\n        Answer memory answer;\n\n        for(uint i=0; i<question.total_answers; i++){\n            if(answers[_question_id][i].id == _answer_id){\n                answer = answers[_question_id][i];\n            }\n        }\n\n        return answer;\n    }\n\n    function set_answer(uint _question_id, uint _answer_id, Answer memory _answer) public returns(Question memory){\n\n        //Get the question\n        Question memory question = get_question(_question_id);\n\n        for(uint i=0; i<question.total_answers; i++){\n            if(answers[_question_id][i].id == _answer_id){\n                answers[_question_id][i] = _answer;\n                break;\n            }\n        }\n\n        return question;\n    }\n        \n    function like_answer( uint _question_id, uint _answer_id, address _user_address) public returns(Answer memory){\n\n        //Get the question\n        Question memory question = get_question(_question_id);\n\n        // Get the answeer form the mapping\n        Answer memory answer = get_answer(_question_id, _answer_id);\n        \n        for(uint i=0; i<answer.liked_by.length; i++){\n            require(answer.liked_by[i] != _user_address, \"You have already liked this answer\") ;\n        }\n\n        // Increase the likes and update the mapping\n        answer.liked_by[answer.likes] = _user_address;\n        answer.likes++;\n\n        //Update the answer\n        question = set_answer(_question_id, _answer_id ,answer);\n\n        //update the question\n        set_question(question, _question_id);\n\n        //Return the updated likes\n        return answer;\n    } \n\n}\n",
  "sourcePath": "C:\\Users\\Kailash\\Desktop\\All Projects\\De-Quora\\contracts\\contracts\\DeQuora.sol",
  "compiler": {
    "name": "solc",
    "version": "0.8.11+commit.d7f03943.Emscripten.clang"
  },
  "schemaVersion": "3.4.5",
  "updatedAt": "2022-03-30T14:13:21.716Z",
  "networkType": "ethereum",
  "devdoc": {
    "kind": "dev",
    "methods": {},
    "version": 1
  },
  "userdoc": {
    "kind": "user",
    "methods": {},
    "version": 1
  }
}