{
  "contractName": "DeQuora",
  "abi": [
    {
      "inputs": [],
      "stateMutability": "nonpayable",
      "type": "constructor"
    },
    {
      "anonymous": false,
      "inputs": [
        {
          "indexed": false,
          "internalType": "string",
          "name": "",
          "type": "string"
        }
      ],
      "name": "main_deployed",
      "type": "event"
    },
    {
      "anonymous": false,
      "inputs": [
        {
          "components": [
            {
              "internalType": "uint256",
              "name": "id",
              "type": "uint256"
            },
            {
              "internalType": "address",
              "name": "account",
              "type": "address"
            },
            {
              "internalType": "string",
              "name": "name",
              "type": "string"
            },
            {
              "internalType": "uint256[]",
              "name": "questions",
              "type": "uint256[]"
            },
            {
              "internalType": "uint256[]",
              "name": "answered_questions",
              "type": "uint256[]"
            },
            {
              "internalType": "uint256[]",
              "name": "answers",
              "type": "uint256[]"
            },
            {
              "internalType": "uint256",
              "name": "joined_on",
              "type": "uint256"
            }
          ],
          "indexed": false,
          "internalType": "struct DeQuora.User",
          "name": "",
          "type": "tuple"
        }
      ],
      "name": "new_user_added",
      "type": "event"
    },
    {
      "anonymous": false,
      "inputs": [
        {
          "components": [
            {
              "internalType": "uint256",
              "name": "id",
              "type": "uint256"
            },
            {
              "internalType": "string",
              "name": "question",
              "type": "string"
            },
            {
              "internalType": "string",
              "name": "author_name",
              "type": "string"
            },
            {
              "internalType": "address",
              "name": "author_address",
              "type": "address"
            },
            {
              "internalType": "uint256",
              "name": "total_answers",
              "type": "uint256"
            },
            {
              "internalType": "uint256",
              "name": "likes",
              "type": "uint256"
            },
            {
              "internalType": "address[]",
              "name": "liked_by",
              "type": "address[]"
            },
            {
              "internalType": "uint256",
              "name": "created_on",
              "type": "uint256"
            }
          ],
          "indexed": false,
          "internalType": "struct DeQuora.Question",
          "name": "",
          "type": "tuple"
        }
      ],
      "name": "question_added",
      "type": "event"
    },
    {
      "inputs": [
        {
          "internalType": "uint256",
          "name": "",
          "type": "uint256"
        },
        {
          "internalType": "uint256",
          "name": "",
          "type": "uint256"
        }
      ],
      "name": "answers",
      "outputs": [
        {
          "internalType": "uint256",
          "name": "id",
          "type": "uint256"
        },
        {
          "internalType": "uint256",
          "name": "question_id",
          "type": "uint256"
        },
        {
          "internalType": "string",
          "name": "answer",
          "type": "string"
        },
        {
          "internalType": "string",
          "name": "author_name",
          "type": "string"
        },
        {
          "internalType": "address",
          "name": "author_address",
          "type": "address"
        },
        {
          "internalType": "uint256",
          "name": "likes",
          "type": "uint256"
        },
        {
          "internalType": "uint256",
          "name": "created_on",
          "type": "uint256"
        }
      ],
      "stateMutability": "view",
      "type": "function",
      "constant": true
    },
    {
      "inputs": [
        {
          "internalType": "uint256",
          "name": "",
          "type": "uint256"
        }
      ],
      "name": "questions",
      "outputs": [
        {
          "internalType": "uint256",
          "name": "id",
          "type": "uint256"
        },
        {
          "internalType": "string",
          "name": "question",
          "type": "string"
        },
        {
          "internalType": "string",
          "name": "author_name",
          "type": "string"
        },
        {
          "internalType": "address",
          "name": "author_address",
          "type": "address"
        },
        {
          "internalType": "uint256",
          "name": "total_answers",
          "type": "uint256"
        },
        {
          "internalType": "uint256",
          "name": "likes",
          "type": "uint256"
        },
        {
          "internalType": "uint256",
          "name": "created_on",
          "type": "uint256"
        }
      ],
      "stateMutability": "view",
      "type": "function",
      "constant": true
    },
    {
      "inputs": [],
      "name": "total_questions",
      "outputs": [
        {
          "internalType": "uint256",
          "name": "",
          "type": "uint256"
        }
      ],
      "stateMutability": "view",
      "type": "function",
      "constant": true
    },
    {
      "inputs": [],
      "name": "total_users",
      "outputs": [
        {
          "internalType": "uint256",
          "name": "",
          "type": "uint256"
        }
      ],
      "stateMutability": "view",
      "type": "function",
      "constant": true
    },
    {
      "inputs": [
        {
          "internalType": "address",
          "name": "",
          "type": "address"
        }
      ],
      "name": "users",
      "outputs": [
        {
          "internalType": "uint256",
          "name": "id",
          "type": "uint256"
        },
        {
          "internalType": "address",
          "name": "account",
          "type": "address"
        },
        {
          "internalType": "string",
          "name": "name",
          "type": "string"
        },
        {
          "internalType": "uint256",
          "name": "joined_on",
          "type": "uint256"
        }
      ],
      "stateMutability": "view",
      "type": "function",
      "constant": true
    },
    {
      "inputs": [
        {
          "internalType": "string",
          "name": "_name",
          "type": "string"
        }
      ],
      "name": "create_user",
      "outputs": [
        {
          "components": [
            {
              "internalType": "uint256",
              "name": "id",
              "type": "uint256"
            },
            {
              "internalType": "address",
              "name": "account",
              "type": "address"
            },
            {
              "internalType": "string",
              "name": "name",
              "type": "string"
            },
            {
              "internalType": "uint256[]",
              "name": "questions",
              "type": "uint256[]"
            },
            {
              "internalType": "uint256[]",
              "name": "answered_questions",
              "type": "uint256[]"
            },
            {
              "internalType": "uint256[]",
              "name": "answers",
              "type": "uint256[]"
            },
            {
              "internalType": "uint256",
              "name": "joined_on",
              "type": "uint256"
            }
          ],
          "internalType": "struct DeQuora.User",
          "name": "",
          "type": "tuple"
        }
      ],
      "stateMutability": "payable",
      "type": "function",
      "payable": true
    },
    {
      "inputs": [
        {
          "internalType": "address",
          "name": "_user_address",
          "type": "address"
        }
      ],
      "name": "get_user_details",
      "outputs": [
        {
          "components": [
            {
              "internalType": "uint256",
              "name": "id",
              "type": "uint256"
            },
            {
              "internalType": "address",
              "name": "account",
              "type": "address"
            },
            {
              "internalType": "string",
              "name": "name",
              "type": "string"
            },
            {
              "internalType": "uint256[]",
              "name": "questions",
              "type": "uint256[]"
            },
            {
              "internalType": "uint256[]",
              "name": "answered_questions",
              "type": "uint256[]"
            },
            {
              "internalType": "uint256[]",
              "name": "answers",
              "type": "uint256[]"
            },
            {
              "internalType": "uint256",
              "name": "joined_on",
              "type": "uint256"
            }
          ],
          "internalType": "struct DeQuora.User",
          "name": "",
          "type": "tuple"
        }
      ],
      "stateMutability": "view",
      "type": "function",
      "constant": true
    },
    {
      "inputs": [
        {
          "internalType": "string",
          "name": "_question",
          "type": "string"
        }
      ],
      "name": "add_question",
      "outputs": [
        {
          "components": [
            {
              "internalType": "uint256",
              "name": "id",
              "type": "uint256"
            },
            {
              "internalType": "string",
              "name": "question",
              "type": "string"
            },
            {
              "internalType": "string",
              "name": "author_name",
              "type": "string"
            },
            {
              "internalType": "address",
              "name": "author_address",
              "type": "address"
            },
            {
              "internalType": "uint256",
              "name": "total_answers",
              "type": "uint256"
            },
            {
              "internalType": "uint256",
              "name": "likes",
              "type": "uint256"
            },
            {
              "internalType": "address[]",
              "name": "liked_by",
              "type": "address[]"
            },
            {
              "internalType": "uint256",
              "name": "created_on",
              "type": "uint256"
            }
          ],
          "internalType": "struct DeQuora.Question",
          "name": "",
          "type": "tuple"
        }
      ],
      "stateMutability": "payable",
      "type": "function",
      "payable": true
    },
    {
      "inputs": [],
      "name": "get_all_questions",
      "outputs": [
        {
          "components": [
            {
              "internalType": "uint256",
              "name": "id",
              "type": "uint256"
            },
            {
              "internalType": "string",
              "name": "question",
              "type": "string"
            },
            {
              "internalType": "string",
              "name": "author_name",
              "type": "string"
            },
            {
              "internalType": "address",
              "name": "author_address",
              "type": "address"
            },
            {
              "internalType": "uint256",
              "name": "total_answers",
              "type": "uint256"
            },
            {
              "internalType": "uint256",
              "name": "likes",
              "type": "uint256"
            },
            {
              "internalType": "address[]",
              "name": "liked_by",
              "type": "address[]"
            },
            {
              "internalType": "uint256",
              "name": "created_on",
              "type": "uint256"
            }
          ],
          "internalType": "struct DeQuora.Question[]",
          "name": "",
          "type": "tuple[]"
        }
      ],
      "stateMutability": "view",
      "type": "function",
      "constant": true
    },
    {
      "inputs": [
        {
          "internalType": "address",
          "name": "_user_address",
          "type": "address"
        }
      ],
      "name": "get_all_questions",
      "outputs": [
        {
          "components": [
            {
              "internalType": "uint256",
              "name": "id",
              "type": "uint256"
            },
            {
              "internalType": "string",
              "name": "question",
              "type": "string"
            },
            {
              "internalType": "string",
              "name": "author_name",
              "type": "string"
            },
            {
              "internalType": "address",
              "name": "author_address",
              "type": "address"
            },
            {
              "internalType": "uint256",
              "name": "total_answers",
              "type": "uint256"
            },
            {
              "internalType": "uint256",
              "name": "likes",
              "type": "uint256"
            },
            {
              "internalType": "address[]",
              "name": "liked_by",
              "type": "address[]"
            },
            {
              "internalType": "uint256",
              "name": "created_on",
              "type": "uint256"
            }
          ],
          "internalType": "struct DeQuora.Question[]",
          "name": "",
          "type": "tuple[]"
        }
      ],
      "stateMutability": "view",
      "type": "function",
      "constant": true
    },
    {
      "inputs": [
        {
          "internalType": "uint256",
          "name": "_question_id",
          "type": "uint256"
        }
      ],
      "name": "get_question",
      "outputs": [
        {
          "components": [
            {
              "internalType": "uint256",
              "name": "id",
              "type": "uint256"
            },
            {
              "internalType": "string",
              "name": "question",
              "type": "string"
            },
            {
              "internalType": "string",
              "name": "author_name",
              "type": "string"
            },
            {
              "internalType": "address",
              "name": "author_address",
              "type": "address"
            },
            {
              "internalType": "uint256",
              "name": "total_answers",
              "type": "uint256"
            },
            {
              "internalType": "uint256",
              "name": "likes",
              "type": "uint256"
            },
            {
              "internalType": "address[]",
              "name": "liked_by",
              "type": "address[]"
            },
            {
              "internalType": "uint256",
              "name": "created_on",
              "type": "uint256"
            }
          ],
          "internalType": "struct DeQuora.Question",
          "name": "",
          "type": "tuple"
        },
        {
          "components": [
            {
              "internalType": "uint256",
              "name": "id",
              "type": "uint256"
            },
            {
              "internalType": "uint256",
              "name": "question_id",
              "type": "uint256"
            },
            {
              "internalType": "string",
              "name": "answer",
              "type": "string"
            },
            {
              "internalType": "string",
              "name": "author_name",
              "type": "string"
            },
            {
              "internalType": "address",
              "name": "author_address",
              "type": "address"
            },
            {
              "internalType": "uint256",
              "name": "likes",
              "type": "uint256"
            },
            {
              "internalType": "address[]",
              "name": "liked_by",
              "type": "address[]"
            },
            {
              "internalType": "uint256",
              "name": "created_on",
              "type": "uint256"
            }
          ],
          "internalType": "struct DeQuora.Answer[]",
          "name": "",
          "type": "tuple[]"
        },
        {
          "components": [
            {
              "internalType": "uint256",
              "name": "id",
              "type": "uint256"
            },
            {
              "internalType": "address",
              "name": "account",
              "type": "address"
            },
            {
              "internalType": "string",
              "name": "name",
              "type": "string"
            },
            {
              "internalType": "uint256[]",
              "name": "questions",
              "type": "uint256[]"
            },
            {
              "internalType": "uint256[]",
              "name": "answered_questions",
              "type": "uint256[]"
            },
            {
              "internalType": "uint256[]",
              "name": "answers",
              "type": "uint256[]"
            },
            {
              "internalType": "uint256",
              "name": "joined_on",
              "type": "uint256"
            }
          ],
          "internalType": "struct DeQuora.User",
          "name": "",
          "type": "tuple"
        }
      ],
      "stateMutability": "view",
      "type": "function",
      "constant": true
    },
    {
      "inputs": [
        {
          "components": [
            {
              "internalType": "uint256",
              "name": "id",
              "type": "uint256"
            },
            {
              "internalType": "string",
              "name": "question",
              "type": "string"
            },
            {
              "internalType": "string",
              "name": "author_name",
              "type": "string"
            },
            {
              "internalType": "address",
              "name": "author_address",
              "type": "address"
            },
            {
              "internalType": "uint256",
              "name": "total_answers",
              "type": "uint256"
            },
            {
              "internalType": "uint256",
              "name": "likes",
              "type": "uint256"
            },
            {
              "internalType": "address[]",
              "name": "liked_by",
              "type": "address[]"
            },
            {
              "internalType": "uint256",
              "name": "created_on",
              "type": "uint256"
            }
          ],
          "internalType": "struct DeQuora.Question",
          "name": "_question",
          "type": "tuple"
        },
        {
          "internalType": "uint256",
          "name": "_question_id",
          "type": "uint256"
        }
      ],
      "name": "set_question",
      "outputs": [],
      "stateMutability": "nonpayable",
      "type": "function"
    },
    {
      "inputs": [
        {
          "internalType": "uint256",
          "name": "_question_id",
          "type": "uint256"
        },
        {
          "internalType": "string",
          "name": "_answer",
          "type": "string"
        }
      ],
      "name": "add_answer",
      "outputs": [
        {
          "components": [
            {
              "internalType": "uint256",
              "name": "id",
              "type": "uint256"
            },
            {
              "internalType": "uint256",
              "name": "question_id",
              "type": "uint256"
            },
            {
              "internalType": "string",
              "name": "answer",
              "type": "string"
            },
            {
              "internalType": "string",
              "name": "author_name",
              "type": "string"
            },
            {
              "internalType": "address",
              "name": "author_address",
              "type": "address"
            },
            {
              "internalType": "uint256",
              "name": "likes",
              "type": "uint256"
            },
            {
              "internalType": "address[]",
              "name": "liked_by",
              "type": "address[]"
            },
            {
              "internalType": "uint256",
              "name": "created_on",
              "type": "uint256"
            }
          ],
          "internalType": "struct DeQuora.Answer",
          "name": "",
          "type": "tuple"
        }
      ],
      "stateMutability": "payable",
      "type": "function",
      "payable": true
    },
    {
      "inputs": [
        {
          "internalType": "address",
          "name": "_user_address",
          "type": "address"
        }
      ],
      "name": "get_all_answers",
      "outputs": [
        {
          "components": [
            {
              "components": [
                {
                  "internalType": "uint256",
                  "name": "id",
                  "type": "uint256"
                },
                {
                  "internalType": "string",
                  "name": "question",
                  "type": "string"
                },
                {
                  "internalType": "string",
                  "name": "author_name",
                  "type": "string"
                },
                {
                  "internalType": "address",
                  "name": "author_address",
                  "type": "address"
                },
                {
                  "internalType": "uint256",
                  "name": "total_answers",
                  "type": "uint256"
                },
                {
                  "internalType": "uint256",
                  "name": "likes",
                  "type": "uint256"
                },
                {
                  "internalType": "address[]",
                  "name": "liked_by",
                  "type": "address[]"
                },
                {
                  "internalType": "uint256",
                  "name": "created_on",
                  "type": "uint256"
                }
              ],
              "internalType": "struct DeQuora.Question",
              "name": "question",
              "type": "tuple"
            },
            {
              "components": [
                {
                  "internalType": "uint256",
                  "name": "id",
                  "type": "uint256"
                },
                {
                  "internalType": "uint256",
                  "name": "question_id",
                  "type": "uint256"
                },
                {
                  "internalType": "string",
                  "name": "answer",
                  "type": "string"
                },
                {
                  "internalType": "string",
                  "name": "author_name",
                  "type": "string"
                },
                {
                  "internalType": "address",
                  "name": "author_address",
                  "type": "address"
                },
                {
                  "internalType": "uint256",
                  "name": "likes",
                  "type": "uint256"
                },
                {
                  "internalType": "address[]",
                  "name": "liked_by",
                  "type": "address[]"
                },
                {
                  "internalType": "uint256",
                  "name": "created_on",
                  "type": "uint256"
                }
              ],
              "internalType": "struct DeQuora.Answer[]",
              "name": "answers",
              "type": "tuple[]"
            }
          ],
          "internalType": "struct DeQuora.QuestionAnswer[]",
          "name": "",
          "type": "tuple[]"
        }
      ],
      "stateMutability": "view",
      "type": "function",
      "constant": true
    },
    {
      "inputs": [
        {
          "internalType": "uint256",
          "name": "_question_id",
          "type": "uint256"
        },
        {
          "internalType": "uint256",
          "name": "_answer_id",
          "type": "uint256"
        }
      ],
      "name": "get_answer",
      "outputs": [
        {
          "components": [
            {
              "internalType": "uint256",
              "name": "id",
              "type": "uint256"
            },
            {
              "internalType": "uint256",
              "name": "question_id",
              "type": "uint256"
            },
            {
              "internalType": "string",
              "name": "answer",
              "type": "string"
            },
            {
              "internalType": "string",
              "name": "author_name",
              "type": "string"
            },
            {
              "internalType": "address",
              "name": "author_address",
              "type": "address"
            },
            {
              "internalType": "uint256",
              "name": "likes",
              "type": "uint256"
            },
            {
              "internalType": "address[]",
              "name": "liked_by",
              "type": "address[]"
            },
            {
              "internalType": "uint256",
              "name": "created_on",
              "type": "uint256"
            }
          ],
          "internalType": "struct DeQuora.Answer",
          "name": "",
          "type": "tuple"
        }
      ],
      "stateMutability": "view",
      "type": "function",
      "constant": true
    },
    {
      "inputs": [
        {
          "internalType": "uint256",
          "name": "_question_id",
          "type": "uint256"
        },
        {
          "internalType": "uint256",
          "name": "_answer_id",
          "type": "uint256"
        },
        {
          "components": [
            {
              "internalType": "uint256",
              "name": "id",
              "type": "uint256"
            },
            {
              "internalType": "uint256",
              "name": "question_id",
              "type": "uint256"
            },
            {
              "internalType": "string",
              "name": "answer",
              "type": "string"
            },
            {
              "internalType": "string",
              "name": "author_name",
              "type": "string"
            },
            {
              "internalType": "address",
              "name": "author_address",
              "type": "address"
            },
            {
              "internalType": "uint256",
              "name": "likes",
              "type": "uint256"
            },
            {
              "internalType": "address[]",
              "name": "liked_by",
              "type": "address[]"
            },
            {
              "internalType": "uint256",
              "name": "created_on",
              "type": "uint256"
            }
          ],
          "internalType": "struct DeQuora.Answer",
          "name": "_answer",
          "type": "tuple"
        }
      ],
      "name": "set_answer",
      "outputs": [
        {
          "components": [
            {
              "internalType": "uint256",
              "name": "id",
              "type": "uint256"
            },
            {
              "internalType": "string",
              "name": "question",
              "type": "string"
            },
            {
              "internalType": "string",
              "name": "author_name",
              "type": "string"
            },
            {
              "internalType": "address",
              "name": "author_address",
              "type": "address"
            },
            {
              "internalType": "uint256",
              "name": "total_answers",
              "type": "uint256"
            },
            {
              "internalType": "uint256",
              "name": "likes",
              "type": "uint256"
            },
            {
              "internalType": "address[]",
              "name": "liked_by",
              "type": "address[]"
            },
            {
              "internalType": "uint256",
              "name": "created_on",
              "type": "uint256"
            }
          ],
          "internalType": "struct DeQuora.Question",
          "name": "",
          "type": "tuple"
        }
      ],
      "stateMutability": "nonpayable",
      "type": "function"
    },
    {
      "inputs": [
        {
          "internalType": "uint256",
          "name": "_question_id",
          "type": "uint256"
        },
        {
          "internalType": "uint256",
          "name": "_answer_id",
          "type": "uint256"
        },
        {
          "internalType": "address",
          "name": "_user_address",
          "type": "address"
        }
      ],
      "name": "like_answer",
      "outputs": [
        {
          "components": [
            {
              "internalType": "uint256",
              "name": "id",
              "type": "uint256"
            },
            {
              "internalType": "uint256",
              "name": "question_id",
              "type": "uint256"
            },
            {
              "internalType": "string",
              "name": "answer",
              "type": "string"
            },
            {
              "internalType": "string",
              "name": "author_name",
              "type": "string"
            },
            {
              "internalType": "address",
              "name": "author_address",
              "type": "address"
            },
            {
              "internalType": "uint256",
              "name": "likes",
              "type": "uint256"
            },
            {
              "internalType": "address[]",
              "name": "liked_by",
              "type": "address[]"
            },
            {
              "internalType": "uint256",
              "name": "created_on",
              "type": "uint256"
            }
          ],
          "internalType": "struct DeQuora.Answer",
          "name": "",
          "type": "tuple"
        }
      ],
      "stateMutability": "nonpayable",
      "type": "function"
    }
  ],
  "bytecode": "0x60806040523480156200001157600080fd5b506000808190555060006001819055507f316a024183dffe386f9e64eeb7d2108a2f170f4c8708641f33f165f6dda8b9736040516200005090620000bf565b60405180910390a1620000e1565b600082825260208201905092915050565b7f4d61696e206973206465706c6f79656400000000000000000000000000000000600082015250565b6000620000a76010836200005e565b9150620000b4826200006f565b602082019050919050565b60006020820190508181036000830152620000da8162000098565b9050919050565b61508480620000f16000396000f3fe6080604052600436106100fe5760003560e01c8063676c988111610095578063c84ccaef11610064578063c84ccaef146103b0578063d2965f04146103db578063df16b7ab14610418578063e7cc62bd14610448578063ff30ae0c14610473576100fe565b8063676c9881146102c65780637eef0212146102f6578063a87430ba14610333578063b9fe79a214610373576100fe565b8063403aa93b116100d1578063403aa93b146101f157806348e8158a146102305780634ee1d75214610260578063502962091461029d576100fe565b8063213e6733146101035780632401519c1461014057806330de49841461018357806331b1b978146101ae575b600080fd5b34801561010f57600080fd5b5061012a60048036038101906101259190613de7565b6104b0565b6040516101379190614069565b60405180910390f35b34801561014c57600080fd5b506101676004803603810190610162919061408b565b610635565b60405161017a9796959493929190614133565b60405180910390f35b34801561018f57600080fd5b506101986107c4565b6040516101a59190614330565b60405180910390f35b3480156101ba57600080fd5b506101d560048036038101906101d09190614352565b610a54565b6040516101e8979695949392919061437f565b60405180910390f35b3480156101fd57600080fd5b5061021860048036038101906102139190614352565b610bd6565b604051610227939291906146dc565b60405180910390f35b61024a60048036038101906102459190614728565b6113ae565b6040516102579190614771565b60405180910390f35b34801561026c57600080fd5b5061028760048036038101906102829190614793565b6116a3565b60405161029491906148a4565b60405180910390f35b3480156102a957600080fd5b506102c460048036038101906102bf91906149e4565b611808565b005b6102e060048036038101906102db9190614728565b61194b565b6040516102ed9190614069565b60405180910390f35b34801561030257600080fd5b5061031d60048036038101906103189190614a40565b611ce4565b60405161032a9190614bf9565b60405180910390f35b34801561033f57600080fd5b5061035a60048036038101906103559190614a40565b61251d565b60405161036a9493929190614c1b565b60405180910390f35b34801561037f57600080fd5b5061039a60048036038101906103959190614a40565b6125f5565b6040516103a79190614330565b60405180910390f35b3480156103bc57600080fd5b506103c5612b13565b6040516103d29190614c67565b60405180910390f35b3480156103e757600080fd5b5061040260048036038101906103fd9190614a40565b612b19565b60405161040f9190614771565b60405180910390f35b610432600480360381019061042d9190614c82565b612d7c565b60405161043f91906148a4565b60405180910390f35b34801561045457600080fd5b5061045d613177565b60405161046a9190614c67565b60405180910390f35b34801561047f57600080fd5b5061049a6004803603810190610495919061408b565b61317d565b6040516104a791906148a4565b60405180910390f35b6104b861347a565b60006104c385610bd6565b5050905060005b816080015181101561062957846003600088815260200190815260200160002082815481106104fc576104fb614cde565b5b9060005260206000209060080201600001541415610616578360036000888152602001908152602001600020828154811061053a57610539614cde565b5b9060005260206000209060080201600082015181600001556020820151816001015560408201518160020190805190602001906105789291906134d5565b5060608201518160030190805190602001906105959291906134d5565b5060808201518160040160006101000a81548173ffffffffffffffffffffffffffffffffffffffff021916908373ffffffffffffffffffffffffffffffffffffffff16021790555060a0820151816005015560c082015181600601908051906020019061060392919061355b565b5060e08201518160070155905050610629565b808061062190614d3c565b9150506104ca565b50809150509392505050565b6003602052816000526040600020818154811061065157600080fd5b90600052602060002090600802016000915091505080600001549080600101549080600201805461068190614db4565b80601f01602080910402602001604051908101604052809291908181526020018280546106ad90614db4565b80156106fa5780601f106106cf576101008083540402835291602001916106fa565b820191906000526020600020905b8154815290600101906020018083116106dd57829003601f168201915b50505050509080600301805461070f90614db4565b80601f016020809104026020016040519081016040528092919081815260200182805461073b90614db4565b80156107885780601f1061075d57610100808354040283529160200191610788565b820191906000526020600020905b81548152906001019060200180831161076b57829003601f168201915b5050505050908060040160009054906101000a900473ffffffffffffffffffffffffffffffffffffffff16908060050154908060070154905087565b60606004805480602002602001604051908101604052809291908181526020016000905b82821015610a4b5783829060005260206000209060080201604051806101000160405290816000820154815260200160018201805461082690614db4565b80601f016020809104026020016040519081016040528092919081815260200182805461085290614db4565b801561089f5780601f106108745761010080835404028352916020019161089f565b820191906000526020600020905b81548152906001019060200180831161088257829003601f168201915b505050505081526020016002820180546108b890614db4565b80601f01602080910402602001604051908101604052809291908181526020018280546108e490614db4565b80156109315780601f1061090657610100808354040283529160200191610931565b820191906000526020600020905b81548152906001019060200180831161091457829003601f168201915b505050505081526020016003820160009054906101000a900473ffffffffffffffffffffffffffffffffffffffff1673ffffffffffffffffffffffffffffffffffffffff1673ffffffffffffffffffffffffffffffffffffffff168152602001600482015481526020016005820154815260200160068201805480602002602001604051908101604052809291908181526020018280548015610a2957602002820191906000526020600020905b8160009054906101000a900473ffffffffffffffffffffffffffffffffffffffff1673ffffffffffffffffffffffffffffffffffffffff16815260200190600101908083116109df575b50505050508152602001600782015481525050815260200190600101906107e8565b50505050905090565b60048181548110610a6457600080fd5b9060005260206000209060080201600091509050806000015490806001018054610a8d90614db4565b80601f0160208091040260200160405190810160405280929190818152602001828054610ab990614db4565b8015610b065780601f10610adb57610100808354040283529160200191610b06565b820191906000526020600020905b815481529060010190602001808311610ae957829003601f168201915b505050505090806002018054610b1b90614db4565b80601f0160208091040260200160405190810160405280929190818152602001828054610b4790614db4565b8015610b945780601f10610b6957610100808354040283529160200191610b94565b820191906000526020600020905b815481529060010190602001808311610b7757829003601f168201915b5050505050908060030160009054906101000a900473ffffffffffffffffffffffffffffffffffffffff16908060040154908060050154908060070154905087565b610bde61347a565b6060610be86135e5565b610bf061347a565b60005b600154811015610ea2578560048281548110610c1257610c11614cde565b5b9060005260206000209060080201600001541415610e8f5760048181548110610c3e57610c3d614cde565b5b90600052602060002090600802016040518061010001604052908160008201548152602001600182018054610c7290614db4565b80601f0160208091040260200160405190810160405280929190818152602001828054610c9e90614db4565b8015610ceb5780601f10610cc057610100808354040283529160200191610ceb565b820191906000526020600020905b815481529060010190602001808311610cce57829003601f168201915b50505050508152602001600282018054610d0490614db4565b80601f0160208091040260200160405190810160405280929190818152602001828054610d3090614db4565b8015610d7d5780601f10610d5257610100808354040283529160200191610d7d565b820191906000526020600020905b815481529060010190602001808311610d6057829003601f168201915b505050505081526020016003820160009054906101000a900473ffffffffffffffffffffffffffffffffffffffff1673ffffffffffffffffffffffffffffffffffffffff1673ffffffffffffffffffffffffffffffffffffffff168152602001600482015481526020016005820154815260200160068201805480602002602001604051908101604052809291908181526020018280548015610e7557602002820191906000526020600020905b8160009054906101000a900473ffffffffffffffffffffffffffffffffffffffff1673ffffffffffffffffffffffffffffffffffffffff1681526020019060010190808311610e2b575b505050505081526020016007820154815250509150610ea2565b8080610e9a90614d3c565b915050610bf3565b50600060026000836060015173ffffffffffffffffffffffffffffffffffffffff1673ffffffffffffffffffffffffffffffffffffffff1681526020019081526020016000206040518060e0016040529081600082015481526020016001820160009054906101000a900473ffffffffffffffffffffffffffffffffffffffff1673ffffffffffffffffffffffffffffffffffffffff1673ffffffffffffffffffffffffffffffffffffffff168152602001600282018054610f6390614db4565b80601f0160208091040260200160405190810160405280929190818152602001828054610f8f90614db4565b8015610fdc5780601f10610fb157610100808354040283529160200191610fdc565b820191906000526020600020905b815481529060010190602001808311610fbf57829003601f168201915b505050505081526020016003820180548060200260200160405190810160405280929190818152602001828054801561103457602002820191906000526020600020905b815481526020019060010190808311611020575b505050505081526020016004820180548060200260200160405190810160405280929190818152602001828054801561108c57602002820191906000526020600020905b815481526020019060010190808311611078575b50505050508152602001600582018054806020026020016040519081016040528092919081815260200182805480156110e457602002820191906000526020600020905b8154815260200190600101908083116110d0575b50505050508152602001600682015481525050905060006003600084600001518152602001908152602001600020805480602002602001604051908101604052809291908181526020016000905b82821015611395578382906000526020600020906008020160405180610100016040529081600082015481526020016001820154815260200160028201805461117a90614db4565b80601f01602080910402602001604051908101604052809291908181526020018280546111a690614db4565b80156111f35780601f106111c8576101008083540402835291602001916111f3565b820191906000526020600020905b8154815290600101906020018083116111d657829003601f168201915b5050505050815260200160038201805461120c90614db4565b80601f016020809104026020016040519081016040528092919081815260200182805461123890614db4565b80156112855780601f1061125a57610100808354040283529160200191611285565b820191906000526020600020905b81548152906001019060200180831161126857829003601f168201915b505050505081526020016004820160009054906101000a900473ffffffffffffffffffffffffffffffffffffffff1673ffffffffffffffffffffffffffffffffffffffff1673ffffffffffffffffffffffffffffffffffffffff168152602001600582015481526020016006820180548060200260200160405190810160405280929190818152602001828054801561137357602002820191906000526020600020905b8160009054906101000a900473ffffffffffffffffffffffffffffffffffffffff1673ffffffffffffffffffffffffffffffffffffffff1681526020019060010190808311611329575b5050505050815260200160078201548152505081526020019060010190611132565b5050505090508281839550955095505050509193909250565b6113b66135e5565b6000825114156113fb576040517f08c379a00000000000000000000000000000000000000000000000000000000081526004016113f290614e32565b60405180910390fd5b60006040518060e0016040528060005481526020013373ffffffffffffffffffffffffffffffffffffffff168152602001848152602001600680548060200260200160405190810160405280929190818152602001828054801561147e57602002820191906000526020600020905b81548152602001906001019080831161146a575b5050505050815260200160068054806020026020016040519081016040528092919081815260200182805480156114d457602002820191906000526020600020905b8154815260200190600101908083116114c0575b50505050508152602001600680548060200260200160405190810160405280929190818152602001828054801561152a57602002820191906000526020600020905b815481526020019060010190808311611516575b5050505050815260200142815250905080600260003373ffffffffffffffffffffffffffffffffffffffff1673ffffffffffffffffffffffffffffffffffffffff1681526020019081526020016000206000820151816000015560208201518160010160006101000a81548173ffffffffffffffffffffffffffffffffffffffff021916908373ffffffffffffffffffffffffffffffffffffffff16021790555060408201518160020190805190602001906115e79291906134d5565b506060820151816003019080519060200190611604929190613638565b506080820151816004019080519060200190611621929190613638565b5060a082015181600501908051906020019061163e929190613638565b5060c0820151816006015590505060008081548092919061165e90614d3c565b91905055507f35ce3ccc4e4d8114f3dcd288e157c011f700e316ff61ce9a81c2926eba963a0e816040516116929190614771565b60405180910390a180915050919050565b6116ab613685565b60006116b685610bd6565b5050905060006116c6868661317d565b905060005b8160c0015151811015611778578473ffffffffffffffffffffffffffffffffffffffff168260c00151828151811061170657611705614cde565b5b602002602001015173ffffffffffffffffffffffffffffffffffffffff161415611765576040517f08c379a000000000000000000000000000000000000000000000000000000000815260040161175c90614ec4565b60405180910390fd5b808061177090614d3c565b9150506116cb565b50838160c001518260a001518151811061179557611794614cde565b5b602002602001019073ffffffffffffffffffffffffffffffffffffffff16908173ffffffffffffffffffffffffffffffffffffffff16815250508060a00180518091906117e190614d3c565b815250506117f08686836104b0565b91506117fc8287611808565b80925050509392505050565b60005b60015481101561194657816004828154811061182a57611829614cde565b5b906000526020600020906008020160000154141561193357826004828154811061185757611856614cde565b5b906000526020600020906008020160008201518160000155602082015181600101908051906020019061188b9291906134d5565b5060408201518160020190805190602001906118a89291906134d5565b5060608201518160030160006101000a81548173ffffffffffffffffffffffffffffffffffffffff021916908373ffffffffffffffffffffffffffffffffffffffff1602179055506080820151816004015560a0820151816005015560c082015181600601908051906020019061192092919061355b565b5060e08201518160070155905050611946565b808061193e90614d3c565b91505061180b565b505050565b61195361347a565b600082511415611998576040517f08c379a000000000000000000000000000000000000000000000000000000000815260040161198f90614f30565b60405180910390fd5b60006040518061010001604052806001548152602001848152602001600260003373ffffffffffffffffffffffffffffffffffffffff1673ffffffffffffffffffffffffffffffffffffffff1681526020019081526020016000206002018054611a0190614db4565b80601f0160208091040260200160405190810160405280929190818152602001828054611a2d90614db4565b8015611a7a5780601f10611a4f57610100808354040283529160200191611a7a565b820191906000526020600020905b815481529060010190602001808311611a5d57829003601f168201915b505050505081526020013373ffffffffffffffffffffffffffffffffffffffff1681526020016000815260200160008152602001600067ffffffffffffffff811115611ac957611ac8613a69565b5b604051908082528060200260200182016040528015611af75781602001602082028036833780820191505090505b5081526020014281525090506004819080600181540180825580915050600190039060005260206000209060080201600090919091909150600082015181600001556020820151816001019080519060200190611b559291906134d5565b506040820151816002019080519060200190611b729291906134d5565b5060608201518160030160006101000a81548173ffffffffffffffffffffffffffffffffffffffff021916908373ffffffffffffffffffffffffffffffffffffffff1602179055506080820151816004015560a0820151816005015560c0820151816006019080519060200190611bea92919061355b565b5060e08201518160070155505060016000815480929190611c0a90614d3c565b919050555060056003600083600001518152602001908152602001600020908054611c369291906136e0565b50600260003373ffffffffffffffffffffffffffffffffffffffff1673ffffffffffffffffffffffffffffffffffffffff168152602001908152602001600020600301816000015190806001815401808255809150506001900390600052602060002001600090919091909150557f846610f658ae46a4f4637a926d8c97af16c46f919be06404a4438d2ee9965a9e81604051611cd39190614069565b60405180910390a180915050919050565b60606000600260008473ffffffffffffffffffffffffffffffffffffffff1673ffffffffffffffffffffffffffffffffffffffff1681526020019081526020016000206040518060e0016040529081600082015481526020016001820160009054906101000a900473ffffffffffffffffffffffffffffffffffffffff1673ffffffffffffffffffffffffffffffffffffffff1673ffffffffffffffffffffffffffffffffffffffff168152602001600282018054611da290614db4565b80601f0160208091040260200160405190810160405280929190818152602001828054611dce90614db4565b8015611e1b5780601f10611df057610100808354040283529160200191611e1b565b820191906000526020600020905b815481529060010190602001808311611dfe57829003601f168201915b5050505050815260200160038201805480602002602001604051908101604052809291908181526020018280548015611e7357602002820191906000526020600020905b815481526020019060010190808311611e5f575b5050505050815260200160048201805480602002602001604051908101604052809291908181526020018280548015611ecb57602002820191906000526020600020905b815481526020019060010190808311611eb7575b5050505050815260200160058201805480602002602001604051908101604052809291908181526020018280548015611f2357602002820191906000526020600020905b815481526020019060010190808311611f0f575b505050505081526020016006820154815250509050606060005b82608001515181101561251257600060048281548110611f6057611f5f614cde565b5b90600052602060002090600802016040518061010001604052908160008201548152602001600182018054611f9490614db4565b80601f0160208091040260200160405190810160405280929190818152602001828054611fc090614db4565b801561200d5780601f10611fe25761010080835404028352916020019161200d565b820191906000526020600020905b815481529060010190602001808311611ff057829003601f168201915b5050505050815260200160028201805461202690614db4565b80601f016020809104026020016040519081016040528092919081815260200182805461205290614db4565b801561209f5780601f106120745761010080835404028352916020019161209f565b820191906000526020600020905b81548152906001019060200180831161208257829003601f168201915b505050505081526020016003820160009054906101000a900473ffffffffffffffffffffffffffffffffffffffff1673ffffffffffffffffffffffffffffffffffffffff1673ffffffffffffffffffffffffffffffffffffffff16815260200160048201548152602001600582015481526020016006820180548060200260200160405190810160405280929190818152602001828054801561219757602002820191906000526020600020905b8160009054906101000a900473ffffffffffffffffffffffffffffffffffffffff1673ffffffffffffffffffffffffffffffffffffffff168152602001906001019080831161214d575b50505050508152602001600782015481525050905060006003600083600001518152602001908152602001600020805480602002602001604051908101604052809291908181526020016000905b82821015612448578382906000526020600020906008020160405180610100016040529081600082015481526020016001820154815260200160028201805461222d90614db4565b80601f016020809104026020016040519081016040528092919081815260200182805461225990614db4565b80156122a65780601f1061227b576101008083540402835291602001916122a6565b820191906000526020600020905b81548152906001019060200180831161228957829003601f168201915b505050505081526020016003820180546122bf90614db4565b80601f01602080910402602001604051908101604052809291908181526020018280546122eb90614db4565b80156123385780601f1061230d57610100808354040283529160200191612338565b820191906000526020600020905b81548152906001019060200180831161231b57829003601f168201915b505050505081526020016004820160009054906101000a900473ffffffffffffffffffffffffffffffffffffffff1673ffffffffffffffffffffffffffffffffffffffff1673ffffffffffffffffffffffffffffffffffffffff168152602001600582015481526020016006820180548060200260200160405190810160405280929190818152602001828054801561242657602002820191906000526020600020905b8160009054906101000a900473ffffffffffffffffffffffffffffffffffffffff1673ffffffffffffffffffffffffffffffffffffffff16815260200190600101908083116123dc575b50505050508152602001600782015481525050815260200190600101906121e5565b505050509050606060005b82518110156124fb578873ffffffffffffffffffffffffffffffffffffffff1683868151811061248657612485614cde565b5b60200260200101516080015173ffffffffffffffffffffffffffffffffffffffff1614156124e8578285815181106124c1576124c0614cde565b5b60200260200101518286815181106124dc576124db614cde565b5b60200260200101819052505b80806124f390614d3c565b915050612453565b50505050808061250a90614d3c565b915050611f3d565b508092505050919050565b60026020528060005260406000206000915090508060000154908060010160009054906101000a900473ffffffffffffffffffffffffffffffffffffffff169080600201805461256c90614db4565b80601f016020809104026020016040519081016040528092919081815260200182805461259890614db4565b80156125e55780601f106125ba576101008083540402835291602001916125e5565b820191906000526020600020905b8154815290600101906020018083116125c857829003601f168201915b5050505050908060060154905084565b60606000600260008473ffffffffffffffffffffffffffffffffffffffff1673ffffffffffffffffffffffffffffffffffffffff1681526020019081526020016000206040518060e0016040529081600082015481526020016001820160009054906101000a900473ffffffffffffffffffffffffffffffffffffffff1673ffffffffffffffffffffffffffffffffffffffff1673ffffffffffffffffffffffffffffffffffffffff1681526020016002820180546126b390614db4565b80601f01602080910402602001604051908101604052809291908181526020018280546126df90614db4565b801561272c5780601f106127015761010080835404028352916020019161272c565b820191906000526020600020905b81548152906001019060200180831161270f57829003601f168201915b505050505081526020016003820180548060200260200160405190810160405280929190818152602001828054801561278457602002820191906000526020600020905b815481526020019060010190808311612770575b50505050508152602001600482018054806020026020016040519081016040528092919081815260200182805480156127dc57602002820191906000526020600020905b8154815260200190600101908083116127c8575b505050505081526020016005820180548060200260200160405190810160405280929190818152602001828054801561283457602002820191906000526020600020905b815481526020019060010190808311612820575b505050505081526020016006820154815250509050606060005b826060015151811015612b085760048360600151828151811061287457612873614cde565b5b60200260200101518154811061288d5761288c614cde565b5b906000526020600020906008020160405180610100016040529081600082015481526020016001820180546128c190614db4565b80601f01602080910402602001604051908101604052809291908181526020018280546128ed90614db4565b801561293a5780601f1061290f5761010080835404028352916020019161293a565b820191906000526020600020905b81548152906001019060200180831161291d57829003601f168201915b5050505050815260200160028201805461295390614db4565b80601f016020809104026020016040519081016040528092919081815260200182805461297f90614db4565b80156129cc5780601f106129a1576101008083540402835291602001916129cc565b820191906000526020600020905b8154815290600101906020018083116129af57829003601f168201915b505050505081526020016003820160009054906101000a900473ffffffffffffffffffffffffffffffffffffffff1673ffffffffffffffffffffffffffffffffffffffff1673ffffffffffffffffffffffffffffffffffffffff168152602001600482015481526020016005820154815260200160068201805480602002602001604051908101604052809291908181526020018280548015612ac457602002820191906000526020600020905b8160009054906101000a900473ffffffffffffffffffffffffffffffffffffffff1673ffffffffffffffffffffffffffffffffffffffff1681526020019060010190808311612a7a575b50505050508152602001600782015481525050828281518110612aea57612ae9614cde565b5b60200260200101819052508080612b0090614d3c565b91505061284e565b508092505050919050565b60015481565b612b216135e5565b6000600260008473ffffffffffffffffffffffffffffffffffffffff1673ffffffffffffffffffffffffffffffffffffffff1681526020019081526020016000206040518060e0016040529081600082015481526020016001820160009054906101000a900473ffffffffffffffffffffffffffffffffffffffff1673ffffffffffffffffffffffffffffffffffffffff1673ffffffffffffffffffffffffffffffffffffffff168152602001600282018054612bdd90614db4565b80601f0160208091040260200160405190810160405280929190818152602001828054612c0990614db4565b8015612c565780601f10612c2b57610100808354040283529160200191612c56565b820191906000526020600020905b815481529060010190602001808311612c3957829003601f168201915b5050505050815260200160038201805480602002602001604051908101604052809291908181526020018280548015612cae57602002820191906000526020600020905b815481526020019060010190808311612c9a575b5050505050815260200160048201805480602002602001604051908101604052809291908181526020018280548015612d0657602002820191906000526020600020905b815481526020019060010190808311612cf2575b5050505050815260200160058201805480602002602001604051908101604052809291908181526020018280548015612d5e57602002820191906000526020600020905b815481526020019060010190808311612d4a575b50505050508152602001600682015481525050905080915050919050565b612d84613685565b600082511415612dc9576040517f08c379a0000000000000000000000000000000000000000000000000000000008152600401612dc090614f9c565b60405180910390fd5b6000612dd484610bd6565b505090503373ffffffffffffffffffffffffffffffffffffffff16816060015173ffffffffffffffffffffffffffffffffffffffff161415612e4b576040517f08c379a0000000000000000000000000000000000000000000000000000000008152600401612e429061502e565b60405180910390fd5b6060600060405180610100016040528084608001518152602001878152602001868152602001600260003373ffffffffffffffffffffffffffffffffffffffff1673ffffffffffffffffffffffffffffffffffffffff1681526020019081526020016000206002018054612ebe90614db4565b80601f0160208091040260200160405190810160405280929190818152602001828054612eea90614db4565b8015612f375780601f10612f0c57610100808354040283529160200191612f37565b820191906000526020600020905b815481529060010190602001808311612f1a57829003601f168201915b505050505081526020013373ffffffffffffffffffffffffffffffffffffffff168152602001600081526020018381526020014281525090506003600087815260200190815260200160002081908060018154018082558091505060019003906000526020600020906008020160009091909190915060008201518160000155602082015181600101556040820151816002019080519060200190612fdd9291906134d5565b506060820151816003019080519060200190612ffa9291906134d5565b5060808201518160040160006101000a81548173ffffffffffffffffffffffffffffffffffffffff021916908373ffffffffffffffffffffffffffffffffffffffff16021790555060a0820151816005015560c082015181600601908051906020019061306892919061355b565b5060e08201518160070155505082608001805180919061308790614d3c565b81525050600260003373ffffffffffffffffffffffffffffffffffffffff1673ffffffffffffffffffffffffffffffffffffffff168152602001908152602001600020600401869080600181540180825580915050600190039060005260206000200160009091909190915055600260003373ffffffffffffffffffffffffffffffffffffffff1673ffffffffffffffffffffffffffffffffffffffff1681526020019081526020016000206005018160000151908060018154018082558091505060019003906000526020600020016000909190919091505561316b8387611808565b80935050505092915050565b60005481565b613185613685565b600061319084610bd6565b5050905061319c613685565b60005b826080015181101561346e57846003600088815260200190815260200160002082815481106131d1576131d0614cde565b5b906000526020600020906008020160000154141561345b5760036000878152602001908152602001600020818154811061320e5761320d614cde565b5b906000526020600020906008020160405180610100016040529081600082015481526020016001820154815260200160028201805461324c90614db4565b80601f016020809104026020016040519081016040528092919081815260200182805461327890614db4565b80156132c55780601f1061329a576101008083540402835291602001916132c5565b820191906000526020600020905b8154815290600101906020018083116132a857829003601f168201915b505050505081526020016003820180546132de90614db4565b80601f016020809104026020016040519081016040528092919081815260200182805461330a90614db4565b80156133575780601f1061332c57610100808354040283529160200191613357565b820191906000526020600020905b81548152906001019060200180831161333a57829003601f168201915b505050505081526020016004820160009054906101000a900473ffffffffffffffffffffffffffffffffffffffff1673ffffffffffffffffffffffffffffffffffffffff1673ffffffffffffffffffffffffffffffffffffffff168152602001600582015481526020016006820180548060200260200160405190810160405280929190818152602001828054801561344557602002820191906000526020600020905b8160009054906101000a900473ffffffffffffffffffffffffffffffffffffffff1673ffffffffffffffffffffffffffffffffffffffff16815260200190600101908083116133fb575b5050505050815260200160078201548152505091505b808061346690614d3c565b91505061319f565b50809250505092915050565b604051806101000160405280600081526020016060815260200160608152602001600073ffffffffffffffffffffffffffffffffffffffff168152602001600081526020016000815260200160608152602001600081525090565b8280546134e190614db4565b90600052602060002090601f016020900481019282613503576000855561354a565b82601f1061351c57805160ff191683800117855561354a565b8280016001018555821561354a579182015b8281111561354957825182559160200191906001019061352e565b5b509050613557919061381e565b5090565b8280548282559060005260206000209081019282156135d4579160200282015b828111156135d35782518260006101000a81548173ffffffffffffffffffffffffffffffffffffffff021916908373ffffffffffffffffffffffffffffffffffffffff1602179055509160200191906001019061357b565b5b5090506135e1919061381e565b5090565b6040518060e0016040528060008152602001600073ffffffffffffffffffffffffffffffffffffffff16815260200160608152602001606081526020016060815260200160608152602001600081525090565b828054828255906000526020600020908101928215613674579160200282015b82811115613673578251825591602001919060010190613658565b5b509050613681919061381e565b5090565b60405180610100016040528060008152602001600081526020016060815260200160608152602001600073ffffffffffffffffffffffffffffffffffffffff1681526020016000815260200160608152602001600081525090565b82805482825590600052602060002090600802810192821561380d5760005260206000209160080282015b8281111561380c5782826000820154816000015560018201548160010155600282018160020190805461373d90614db4565b61374892919061383b565b50600382018160030190805461375d90614db4565b61376892919061383b565b506004820160009054906101000a900473ffffffffffffffffffffffffffffffffffffffff168160040160006101000a81548173ffffffffffffffffffffffffffffffffffffffff021916908373ffffffffffffffffffffffffffffffffffffffff1602179055506005820154816005015560068201816006019080546137f09291906138c8565b506007820154816007015550509160080191906008019061370b565b5b50905061381a919061391a565b5090565b5b8082111561383757600081600090555060010161381f565b5090565b82805461384790614db4565b90600052602060002090601f01602090048101928261386957600085556138b7565b82601f1061387a57805485556138b7565b828001600101855582156138b757600052602060002091601f016020900482015b828111156138b657825482559160010191906001019061389b565b5b5090506138c4919061381e565b5090565b8280548282559060005260206000209081019282156139095760005260206000209182015b828111156139085782548255916001019190600101906138ed565b5b509050613916919061381e565b5090565b5b808211156139a457600080820160009055600182016000905560028201600061394491906139a8565b60038201600061395491906139a8565b6004820160006101000a81549073ffffffffffffffffffffffffffffffffffffffff0219169055600582016000905560068201600061399391906139e8565b60078201600090555060080161391b565b5090565b5080546139b490614db4565b6000825580601f106139c657506139e5565b601f0160209004906000526020600020908101906139e4919061381e565b5b50565b5080546000825590600052602060002090810190613a06919061381e565b50565b6000604051905090565b600080fd5b600080fd5b6000819050919050565b613a3081613a1d565b8114613a3b57600080fd5b50565b600081359050613a4d81613a27565b92915050565b600080fd5b6000601f19601f8301169050919050565b7f4e487b7100000000000000000000000000000000000000000000000000000000600052604160045260246000fd5b613aa182613a58565b810181811067ffffffffffffffff82111715613ac057613abf613a69565b5b80604052505050565b6000613ad3613a09565b9050613adf8282613a98565b919050565b600080fd5b600080fd5b600080fd5b600067ffffffffffffffff821115613b0e57613b0d613a69565b5b613b1782613a58565b9050602081019050919050565b82818337600083830152505050565b6000613b46613b4184613af3565b613ac9565b905082815260208101848484011115613b6257613b61613aee565b5b613b6d848285613b24565b509392505050565b600082601f830112613b8a57613b89613ae9565b5b8135613b9a848260208601613b33565b91505092915050565b600073ffffffffffffffffffffffffffffffffffffffff82169050919050565b6000613bce82613ba3565b9050919050565b613bde81613bc3565b8114613be957600080fd5b50565b600081359050613bfb81613bd5565b92915050565b600067ffffffffffffffff821115613c1c57613c1b613a69565b5b602082029050602081019050919050565b600080fd5b6000613c45613c4084613c01565b613ac9565b90508083825260208201905060208402830185811115613c6857613c67613c2d565b5b835b81811015613c915780613c7d8882613bec565b845260208401935050602081019050613c6a565b5050509392505050565b600082601f830112613cb057613caf613ae9565b5b8135613cc0848260208601613c32565b91505092915050565b60006101008284031215613ce057613cdf613a53565b5b613ceb610100613ac9565b90506000613cfb84828501613a3e565b6000830152506020613d0f84828501613a3e565b602083015250604082013567ffffffffffffffff811115613d3357613d32613ae4565b5b613d3f84828501613b75565b604083015250606082013567ffffffffffffffff811115613d6357613d62613ae4565b5b613d6f84828501613b75565b6060830152506080613d8384828501613bec565b60808301525060a0613d9784828501613a3e565b60a08301525060c082013567ffffffffffffffff811115613dbb57613dba613ae4565b5b613dc784828501613c9b565b60c08301525060e0613ddb84828501613a3e565b60e08301525092915050565b600080600060608486031215613e0057613dff613a13565b5b6000613e0e86828701613a3e565b9350506020613e1f86828701613a3e565b925050604084013567ffffffffffffffff811115613e4057613e3f613a18565b5b613e4c86828701613cc9565b9150509250925092565b613e5f81613a1d565b82525050565b600081519050919050565b600082825260208201905092915050565b60005b83811015613e9f578082015181840152602081019050613e84565b83811115613eae576000848401525b50505050565b6000613ebf82613e65565b613ec98185613e70565b9350613ed9818560208601613e81565b613ee281613a58565b840191505092915050565b613ef681613bc3565b82525050565b600081519050919050565b600082825260208201905092915050565b6000819050602082019050919050565b6000613f348383613eed565b60208301905092915050565b6000602082019050919050565b6000613f5882613efc565b613f628185613f07565b9350613f6d83613f18565b8060005b83811015613f9e578151613f858882613f28565b9750613f9083613f40565b925050600181019050613f71565b5085935050505092915050565b600061010083016000830151613fc46000860182613e56565b5060208301518482036020860152613fdc8282613eb4565b91505060408301518482036040860152613ff68282613eb4565b915050606083015161400b6060860182613eed565b50608083015161401e6080860182613e56565b5060a083015161403160a0860182613e56565b5060c083015184820360c08601526140498282613f4d565b91505060e083015161405e60e0860182613e56565b508091505092915050565b600060208201905081810360008301526140838184613fab565b905092915050565b600080604083850312156140a2576140a1613a13565b5b60006140b085828601613a3e565b92505060206140c185828601613a3e565b9150509250929050565b6140d481613a1d565b82525050565b600082825260208201905092915050565b60006140f682613e65565b61410081856140da565b9350614110818560208601613e81565b61411981613a58565b840191505092915050565b61412d81613bc3565b82525050565b600060e082019050614148600083018a6140cb565b61415560208301896140cb565b818103604083015261416781886140eb565b9050818103606083015261417b81876140eb565b905061418a6080830186614124565b61419760a08301856140cb565b6141a460c08301846140cb565b98975050505050505050565b600081519050919050565b600082825260208201905092915050565b6000819050602082019050919050565b6000610100830160008301516141f56000860182613e56565b506020830151848203602086015261420d8282613eb4565b915050604083015184820360408601526142278282613eb4565b915050606083015161423c6060860182613eed565b50608083015161424f6080860182613e56565b5060a083015161426260a0860182613e56565b5060c083015184820360c086015261427a8282613f4d565b91505060e083015161428f60e0860182613e56565b508091505092915050565b60006142a683836141dc565b905092915050565b6000602082019050919050565b60006142c6826141b0565b6142d081856141bb565b9350836020820285016142e2856141cc565b8060005b8581101561431e57848403895281516142ff858261429a565b945061430a836142ae565b925060208a019950506001810190506142e6565b50829750879550505050505092915050565b6000602082019050818103600083015261434a81846142bb565b905092915050565b60006020828403121561436857614367613a13565b5b600061437684828501613a3e565b91505092915050565b600060e082019050614394600083018a6140cb565b81810360208301526143a681896140eb565b905081810360408301526143ba81886140eb565b90506143c96060830187614124565b6143d660808301866140cb565b6143e360a08301856140cb565b6143f060c08301846140cb565b98975050505050505050565b600081519050919050565b600082825260208201905092915050565b6000819050602082019050919050565b6000610100830160008301516144416000860182613e56565b5060208301516144546020860182613e56565b506040830151848203604086015261446c8282613eb4565b915050606083015184820360608601526144868282613eb4565b915050608083015161449b6080860182613eed565b5060a08301516144ae60a0860182613e56565b5060c083015184820360c08601526144c68282613f4d565b91505060e08301516144db60e0860182613e56565b508091505092915050565b60006144f28383614428565b905092915050565b6000602082019050919050565b6000614512826143fc565b61451c8185614407565b93508360208202850161452e85614418565b8060005b8581101561456a578484038952815161454b85826144e6565b9450614556836144fa565b925060208a01995050600181019050614532565b50829750879550505050505092915050565b600081519050919050565b600082825260208201905092915050565b6000819050602082019050919050565b60006145b48383613e56565b60208301905092915050565b6000602082019050919050565b60006145d88261457c565b6145e28185614587565b93506145ed83614598565b8060005b8381101561461e57815161460588826145a8565b9750614610836145c0565b9250506001810190506145f1565b5085935050505092915050565b600060e0830160008301516146436000860182613e56565b5060208301516146566020860182613eed565b506040830151848203604086015261466e8282613eb4565b9150506060830151848203606086015261468882826145cd565b915050608083015184820360808601526146a282826145cd565b91505060a083015184820360a08601526146bc82826145cd565b91505060c08301516146d160c0860182613e56565b508091505092915050565b600060608201905081810360008301526146f68186613fab565b9050818103602083015261470a8185614507565b9050818103604083015261471e818461462b565b9050949350505050565b60006020828403121561473e5761473d613a13565b5b600082013567ffffffffffffffff81111561475c5761475b613a18565b5b61476884828501613b75565b91505092915050565b6000602082019050818103600083015261478b818461462b565b905092915050565b6000806000606084860312156147ac576147ab613a13565b5b60006147ba86828701613a3e565b93505060206147cb86828701613a3e565b92505060406147dc86828701613bec565b9150509250925092565b6000610100830160008301516147ff6000860182613e56565b5060208301516148126020860182613e56565b506040830151848203604086015261482a8282613eb4565b915050606083015184820360608601526148448282613eb4565b91505060808301516148596080860182613eed565b5060a083015161486c60a0860182613e56565b5060c083015184820360c08601526148848282613f4d565b91505060e083015161489960e0860182613e56565b508091505092915050565b600060208201905081810360008301526148be81846147e6565b905092915050565b600061010082840312156148dd576148dc613a53565b5b6148e8610100613ac9565b905060006148f884828501613a3e565b600083015250602082013567ffffffffffffffff81111561491c5761491b613ae4565b5b61492884828501613b75565b602083015250604082013567ffffffffffffffff81111561494c5761494b613ae4565b5b61495884828501613b75565b604083015250606061496c84828501613bec565b606083015250608061498084828501613a3e565b60808301525060a061499484828501613a3e565b60a08301525060c082013567ffffffffffffffff8111156149b8576149b7613ae4565b5b6149c484828501613c9b565b60c08301525060e06149d884828501613a3e565b60e08301525092915050565b600080604083850312156149fb576149fa613a13565b5b600083013567ffffffffffffffff811115614a1957614a18613a18565b5b614a25858286016148c6565b9250506020614a3685828601613a3e565b9150509250929050565b600060208284031215614a5657614a55613a13565b5b6000614a6484828501613bec565b91505092915050565b600081519050919050565b600082825260208201905092915050565b6000819050602082019050919050565b600082825260208201905092915050565b6000614ab5826143fc565b614abf8185614a99565b935083602082028501614ad185614418565b8060005b85811015614b0d5784840389528151614aee85826144e6565b9450614af9836144fa565b925060208a01995050600181019050614ad5565b50829750879550505050505092915050565b60006040830160008301518482036000860152614b3c82826141dc565b91505060208301518482036020860152614b568282614aaa565b9150508091505092915050565b6000614b6f8383614b1f565b905092915050565b6000602082019050919050565b6000614b8f82614a6d565b614b998185614a78565b935083602082028501614bab85614a89565b8060005b85811015614be75784840389528151614bc88582614b63565b9450614bd383614b77565b925060208a01995050600181019050614baf565b50829750879550505050505092915050565b60006020820190508181036000830152614c138184614b84565b905092915050565b6000608082019050614c3060008301876140cb565b614c3d6020830186614124565b8181036040830152614c4f81856140eb565b9050614c5e60608301846140cb565b95945050505050565b6000602082019050614c7c60008301846140cb565b92915050565b60008060408385031215614c9957614c98613a13565b5b6000614ca785828601613a3e565b925050602083013567ffffffffffffffff811115614cc857614cc7613a18565b5b614cd485828601613b75565b9150509250929050565b7f4e487b7100000000000000000000000000000000000000000000000000000000600052603260045260246000fd5b7f4e487b7100000000000000000000000000000000000000000000000000000000600052601160045260246000fd5b6000614d4782613a1d565b91507fffffffffffffffffffffffffffffffffffffffffffffffffffffffffffffffff821415614d7a57614d79614d0d565b5b600182019050919050565b7f4e487b7100000000000000000000000000000000000000000000000000000000600052602260045260246000fd5b60006002820490506001821680614dcc57607f821691505b60208210811415614de057614ddf614d85565b5b50919050565b7f4e616d652063616e6e6f7420626520656d707479000000000000000000000000600082015250565b6000614e1c6014836140da565b9150614e2782614de6565b602082019050919050565b60006020820190508181036000830152614e4b81614e0f565b9050919050565b7f596f75206861766520616c7265616479206c696b6564207468697320616e737760008201527f6572000000000000000000000000000000000000000000000000000000000000602082015250565b6000614eae6022836140da565b9150614eb982614e52565b604082019050919050565b60006020820190508181036000830152614edd81614ea1565b9050919050565b7f5175657374696f6e2063616e6e6f7420626520656d7074790000000000000000600082015250565b6000614f1a6018836140da565b9150614f2582614ee4565b602082019050919050565b60006020820190508181036000830152614f4981614f0d565b9050919050565b7f416e737765722063616e6e6f7420626520656d70747900000000000000000000600082015250565b6000614f866016836140da565b9150614f9182614f50565b602082019050919050565b60006020820190508181036000830152614fb581614f79565b9050919050565b7f417574686f722063616e6e6f7420616e73776572206869732f686572206f776e60008201527f207175657374696f6e0000000000000000000000000000000000000000000000602082015250565b60006150186029836140da565b915061502382614fbc565b604082019050919050565b600060208201905081810360008301526150478161500b565b905091905056fea2646970667358221220289ffe59714e92e8c378ffea602eddebacc2d45bcfc81aff84cc9a4413b2396c64736f6c634300080b0033",
  "immutableReferences": {},
  "source": "// SPDX-License-Identifier: MIT\npragma solidity >=0.4.22 <0.9.0;\n\ncontract DeQuora {\n\n    struct User{\n        uint id;\n        address account;\n        string name;\n        uint[] questions;\n        uint[] answered_questions;\n        uint[] answers;\n        uint256 joined_on;\n    }\n\n    struct Question{\n        uint id;\n        string question;\n        string author_name;\n        address author_address;\n        uint total_answers;\n        uint likes;\n        address[] liked_by;\n        uint256 created_on;\n    }\n\n    struct Answer{\n        uint id;\n        uint question_id;\n        string answer;\n        string author_name;\n        address author_address;\n        uint256 likes;\n        address[] liked_by;\n        uint256 created_on;\n    }\n\n    struct QuestionAnswer{\n        Question question;\n        Answer[] answers;\n    }\n\n    uint public total_users;\n    uint public total_questions;\n    mapping(address => User) public users;    \n    mapping(uint => Answer[]) public answers; //question id to answers\n    Question[] public questions; // user address to question\n    Answer[] answers_array;\n    uint[] arr;\n\n    event new_user_added(User);\n    event main_deployed(string);\n    event question_added(Question);\n\n\n    constructor(){\n        total_users = 0;\n        total_questions = 0;\n        emit main_deployed('Main is deployed');\n    }\n\n    function create_user(string memory _name) public payable returns(User memory){\n\n        require(bytes(_name).length != 0,\"Name cannot be empty\");\n\n        //Create a new user\n        User memory newUser = User(total_users, msg.sender, _name, arr, arr, arr, block.timestamp);\n        users[msg.sender] = newUser;\n        total_users++;\n        emit new_user_added(newUser);\n        \n        //Return the user\n        return newUser;\n    }\n\n    function get_user_details(address _user_address) public view returns(User memory){\n        User memory user = users[_user_address];\n        return user;       \n    }\n\n    function add_question(string memory _question) public payable returns(Question memory){\n        require(bytes(_question).length != 0,\"Question cannot be empty\");\n        \n        //Create the question\n        Question memory newQuestion = Question(total_questions, _question, users[msg.sender].name ,msg.sender, 0, 0, new address[](0), block.timestamp);\n        questions.push(newQuestion);\n        total_questions++;\n\n        answers[newQuestion.id] = answers_array;\n        users[msg.sender].questions.push(newQuestion.id);\n\n        emit question_added(newQuestion);\n\n        //return the question\n        return newQuestion;\n    }\n\n    function get_all_questions() public view returns(Question[] memory){\n        return questions;\n    }\n\n    function get_all_questions(address _user_address) public view returns(Question[] memory){\n        \n        User memory _user = users[_user_address];\n\n        Question[] memory _questions;\n        for(uint i=0;i<_user.questions.length;i++){\n            _questions[i] = questions[_user.questions[i]];\n        }\n\n        return _questions;\n\n    }\n\n    function get_question(uint _question_id) public view returns(Question memory, Answer[] memory, User memory){\n\n        Question memory question;\n\n        //iterate over all the questions\n        for(uint i=0; i<total_questions; i++){\n            // check for the question with the given id\n            if(questions[i].id == _question_id){\n                //return the question with the given id, and corresponding author    \n                question = questions[i];\n                break;\n            }\n        }\n        User memory _author = users[question.author_address];\n        Answer[] memory _answers = answers[question.id];\n        return (question, _answers, _author);\n    }\n\n    function set_question(Question memory _question, uint _question_id) public {\n        \n        //iterate over all the questions\n        for(uint i=0; i<total_questions; i++){\n\n            // check for the question to be updated usign the id\n            if(questions[i].id == _question_id){\n\n                //update the question when found\n                questions[i] = _question;\n                break;\n            }\n        }\n    }\n\n    function add_answer(uint _question_id,string memory _answer) public payable returns(Answer memory){\n\n        require(bytes(_answer).length != 0,\"Answer cannot be empty\");\n\n        //Get the question from all the questions\n        (Question memory question,,) = get_question(_question_id);\n\n        require(question.author_address != msg.sender,\"Author cannot answer his/her own question\");\n\n        //Create the answer\n        address[] memory address_arr;\n        Answer memory answer = Answer(question.total_answers, _question_id, _answer, users[msg.sender].name, msg.sender,0,address_arr, block.timestamp);\n\n        //Add the answer to records\n        answers[_question_id].push(answer);\n        question.total_answers++;\n\n        //add the answer to user details\n        users[msg.sender].answered_questions.push(_question_id);\n        users[msg.sender].answers.push(answer.id);\n\n        //update the question in the array\n        set_question(question, _question_id);\n        return answer;\n    }        \n\n    function get_all_answers(address _user_address) public view returns(QuestionAnswer[] memory){\n\n        User memory user = users[_user_address];\n        QuestionAnswer[] memory _answers;\n\n        for(uint i=0;i<user.answered_questions.length;i++){\n            \n            Question memory _answered_question = questions[i];\n            Answer[] memory _current_answers = answers[_answered_question.id];\n            Answer[] memory _my_answers;\n            for(uint j=0; j<_current_answers.length; j++){\n                if(_current_answers[i].author_address == _user_address){\n                    _my_answers[i] = _current_answers[i];\n                }\n            }\n        }\n\n        return _answers;\n    }\n\n    function get_answer(uint _question_id, uint _answer_id) public view returns(Answer memory){\n\n        //Get the question\n        (Question memory question,,)= get_question(_question_id);\n\n        Answer memory answer;\n\n        for(uint i=0; i<question.total_answers; i++){\n            if(answers[_question_id][i].id == _answer_id){\n                answer = answers[_question_id][i];\n            }\n        }\n\n        return answer;\n    }\n\n    function set_answer(uint _question_id, uint _answer_id, Answer memory _answer) public returns(Question memory){\n\n        //Get the question\n        (Question memory question,,)= get_question(_question_id);\n\n        for(uint i=0; i<question.total_answers; i++){\n            if(answers[_question_id][i].id == _answer_id){\n                answers[_question_id][i] = _answer;\n                break;\n            }\n        }\n\n        return question;\n    }\n        \n    function like_answer( uint _question_id, uint _answer_id, address _user_address) public returns(Answer memory){\n\n        //Get the question\n        (Question memory question,,)= get_question(_question_id);\n\n        // Get the answeer form the mapping\n        Answer memory answer = get_answer(_question_id, _answer_id);\n        \n        for(uint i=0; i<answer.liked_by.length; i++){\n            require(answer.liked_by[i] != _user_address, \"You have already liked this answer\") ;\n        }\n\n        // Increase the likes and update the mapping\n        answer.liked_by[answer.likes] = _user_address;\n        answer.likes++;\n\n        //Update the answer\n        question = set_answer(_question_id, _answer_id ,answer);\n\n        //update the question\n        set_question(question, _question_id);\n\n        //Return the updated likes\n        return answer;\n    } \n\n}\n",
  "sourcePath": "C:\\Users\\Kailash\\Desktop\\All Projects\\De-Quora\\contracts\\contracts\\DeQuora.sol",
  "compiler": {
    "name": "solc",
    "version": "0.8.11+commit.d7f03943.Emscripten.clang"
  },
  "schemaVersion": "3.4.5",
  "updatedAt": "2022-04-01T19:55:56.146Z",
  "networkType": "ethereum",
  "devdoc": {
    "kind": "dev",
    "methods": {},
    "version": 1
  },
  "userdoc": {
    "kind": "user",
    "methods": {},
    "version": 1
  }
}