{
  "contractName": "DeQuora",
  "abi": [
    {
      "inputs": [],
      "stateMutability": "nonpayable",
      "type": "constructor"
    },
    {
      "anonymous": false,
      "inputs": [
        {
          "indexed": false,
          "internalType": "string",
          "name": "",
          "type": "string"
        }
      ],
      "name": "main_deployed",
      "type": "event"
    },
    {
      "anonymous": false,
      "inputs": [
        {
          "components": [
            {
              "internalType": "uint256",
              "name": "id",
              "type": "uint256"
            },
            {
              "internalType": "address",
              "name": "account",
              "type": "address"
            },
            {
              "internalType": "string",
              "name": "name",
              "type": "string"
            },
            {
              "internalType": "uint256[]",
              "name": "questions",
              "type": "uint256[]"
            },
            {
              "internalType": "uint256[]",
              "name": "answers",
              "type": "uint256[]"
            },
            {
              "internalType": "uint256",
              "name": "joined_on",
              "type": "uint256"
            }
          ],
          "indexed": false,
          "internalType": "struct DeQuora.User",
          "name": "",
          "type": "tuple"
        }
      ],
      "name": "new_user_added",
      "type": "event"
    },
    {
      "anonymous": false,
      "inputs": [
        {
          "components": [
            {
              "internalType": "uint256",
              "name": "id",
              "type": "uint256"
            },
            {
              "internalType": "string",
              "name": "question",
              "type": "string"
            },
            {
              "internalType": "string",
              "name": "author_name",
              "type": "string"
            },
            {
              "internalType": "address",
              "name": "author_address",
              "type": "address"
            },
            {
              "internalType": "uint256",
              "name": "total_answers",
              "type": "uint256"
            },
            {
              "internalType": "uint256",
              "name": "likes",
              "type": "uint256"
            },
            {
              "internalType": "address[]",
              "name": "liked_by",
              "type": "address[]"
            },
            {
              "internalType": "uint256",
              "name": "created_on",
              "type": "uint256"
            }
          ],
          "indexed": false,
          "internalType": "struct DeQuora.Question",
          "name": "",
          "type": "tuple"
        }
      ],
      "name": "question_added",
      "type": "event"
    },
    {
      "inputs": [
        {
          "internalType": "uint256",
          "name": "",
          "type": "uint256"
        },
        {
          "internalType": "uint256",
          "name": "",
          "type": "uint256"
        }
      ],
      "name": "answers",
      "outputs": [
        {
          "internalType": "uint256",
          "name": "id",
          "type": "uint256"
        },
        {
          "internalType": "string",
          "name": "answer",
          "type": "string"
        },
        {
          "internalType": "string",
          "name": "author_name",
          "type": "string"
        },
        {
          "internalType": "address",
          "name": "author_address",
          "type": "address"
        },
        {
          "internalType": "uint256",
          "name": "likes",
          "type": "uint256"
        },
        {
          "internalType": "uint256",
          "name": "created_on",
          "type": "uint256"
        }
      ],
      "stateMutability": "view",
      "type": "function",
      "constant": true
    },
    {
      "inputs": [
        {
          "internalType": "uint256",
          "name": "",
          "type": "uint256"
        }
      ],
      "name": "questions",
      "outputs": [
        {
          "internalType": "uint256",
          "name": "id",
          "type": "uint256"
        },
        {
          "internalType": "string",
          "name": "question",
          "type": "string"
        },
        {
          "internalType": "string",
          "name": "author_name",
          "type": "string"
        },
        {
          "internalType": "address",
          "name": "author_address",
          "type": "address"
        },
        {
          "internalType": "uint256",
          "name": "total_answers",
          "type": "uint256"
        },
        {
          "internalType": "uint256",
          "name": "likes",
          "type": "uint256"
        },
        {
          "internalType": "uint256",
          "name": "created_on",
          "type": "uint256"
        }
      ],
      "stateMutability": "view",
      "type": "function",
      "constant": true
    },
    {
      "inputs": [],
      "name": "total_questions",
      "outputs": [
        {
          "internalType": "uint256",
          "name": "",
          "type": "uint256"
        }
      ],
      "stateMutability": "view",
      "type": "function",
      "constant": true
    },
    {
      "inputs": [],
      "name": "total_users",
      "outputs": [
        {
          "internalType": "uint256",
          "name": "",
          "type": "uint256"
        }
      ],
      "stateMutability": "view",
      "type": "function",
      "constant": true
    },
    {
      "inputs": [
        {
          "internalType": "address",
          "name": "",
          "type": "address"
        }
      ],
      "name": "users",
      "outputs": [
        {
          "internalType": "uint256",
          "name": "id",
          "type": "uint256"
        },
        {
          "internalType": "address",
          "name": "account",
          "type": "address"
        },
        {
          "internalType": "string",
          "name": "name",
          "type": "string"
        },
        {
          "internalType": "uint256",
          "name": "joined_on",
          "type": "uint256"
        }
      ],
      "stateMutability": "view",
      "type": "function",
      "constant": true
    },
    {
      "inputs": [
        {
          "internalType": "string",
          "name": "_name",
          "type": "string"
        }
      ],
      "name": "create_user",
      "outputs": [
        {
          "components": [
            {
              "internalType": "uint256",
              "name": "id",
              "type": "uint256"
            },
            {
              "internalType": "address",
              "name": "account",
              "type": "address"
            },
            {
              "internalType": "string",
              "name": "name",
              "type": "string"
            },
            {
              "internalType": "uint256[]",
              "name": "questions",
              "type": "uint256[]"
            },
            {
              "internalType": "uint256[]",
              "name": "answers",
              "type": "uint256[]"
            },
            {
              "internalType": "uint256",
              "name": "joined_on",
              "type": "uint256"
            }
          ],
          "internalType": "struct DeQuora.User",
          "name": "",
          "type": "tuple"
        }
      ],
      "stateMutability": "payable",
      "type": "function",
      "payable": true
    },
    {
      "inputs": [
        {
          "internalType": "address",
          "name": "_user_address",
          "type": "address"
        }
      ],
      "name": "get_user_details",
      "outputs": [
        {
          "components": [
            {
              "internalType": "uint256",
              "name": "id",
              "type": "uint256"
            },
            {
              "internalType": "address",
              "name": "account",
              "type": "address"
            },
            {
              "internalType": "string",
              "name": "name",
              "type": "string"
            },
            {
              "internalType": "uint256[]",
              "name": "questions",
              "type": "uint256[]"
            },
            {
              "internalType": "uint256[]",
              "name": "answers",
              "type": "uint256[]"
            },
            {
              "internalType": "uint256",
              "name": "joined_on",
              "type": "uint256"
            }
          ],
          "internalType": "struct DeQuora.User",
          "name": "",
          "type": "tuple"
        }
      ],
      "stateMutability": "view",
      "type": "function",
      "constant": true
    },
    {
      "inputs": [
        {
          "internalType": "string",
          "name": "_question",
          "type": "string"
        }
      ],
      "name": "add_question",
      "outputs": [
        {
          "components": [
            {
              "internalType": "uint256",
              "name": "id",
              "type": "uint256"
            },
            {
              "internalType": "string",
              "name": "question",
              "type": "string"
            },
            {
              "internalType": "string",
              "name": "author_name",
              "type": "string"
            },
            {
              "internalType": "address",
              "name": "author_address",
              "type": "address"
            },
            {
              "internalType": "uint256",
              "name": "total_answers",
              "type": "uint256"
            },
            {
              "internalType": "uint256",
              "name": "likes",
              "type": "uint256"
            },
            {
              "internalType": "address[]",
              "name": "liked_by",
              "type": "address[]"
            },
            {
              "internalType": "uint256",
              "name": "created_on",
              "type": "uint256"
            }
          ],
          "internalType": "struct DeQuora.Question",
          "name": "",
          "type": "tuple"
        }
      ],
      "stateMutability": "payable",
      "type": "function",
      "payable": true
    },
    {
      "inputs": [],
      "name": "get_all_questions",
      "outputs": [
        {
          "components": [
            {
              "internalType": "uint256",
              "name": "id",
              "type": "uint256"
            },
            {
              "internalType": "string",
              "name": "question",
              "type": "string"
            },
            {
              "internalType": "string",
              "name": "author_name",
              "type": "string"
            },
            {
              "internalType": "address",
              "name": "author_address",
              "type": "address"
            },
            {
              "internalType": "uint256",
              "name": "total_answers",
              "type": "uint256"
            },
            {
              "internalType": "uint256",
              "name": "likes",
              "type": "uint256"
            },
            {
              "internalType": "address[]",
              "name": "liked_by",
              "type": "address[]"
            },
            {
              "internalType": "uint256",
              "name": "created_on",
              "type": "uint256"
            }
          ],
          "internalType": "struct DeQuora.Question[]",
          "name": "",
          "type": "tuple[]"
        }
      ],
      "stateMutability": "view",
      "type": "function",
      "constant": true
    },
    {
      "inputs": [
        {
          "internalType": "uint256",
          "name": "_question_id",
          "type": "uint256"
        }
      ],
      "name": "get_question",
      "outputs": [
        {
          "components": [
            {
              "internalType": "uint256",
              "name": "id",
              "type": "uint256"
            },
            {
              "internalType": "string",
              "name": "question",
              "type": "string"
            },
            {
              "internalType": "string",
              "name": "author_name",
              "type": "string"
            },
            {
              "internalType": "address",
              "name": "author_address",
              "type": "address"
            },
            {
              "internalType": "uint256",
              "name": "total_answers",
              "type": "uint256"
            },
            {
              "internalType": "uint256",
              "name": "likes",
              "type": "uint256"
            },
            {
              "internalType": "address[]",
              "name": "liked_by",
              "type": "address[]"
            },
            {
              "internalType": "uint256",
              "name": "created_on",
              "type": "uint256"
            }
          ],
          "internalType": "struct DeQuora.Question",
          "name": "",
          "type": "tuple"
        },
        {
          "components": [
            {
              "internalType": "uint256",
              "name": "id",
              "type": "uint256"
            },
            {
              "internalType": "string",
              "name": "answer",
              "type": "string"
            },
            {
              "internalType": "string",
              "name": "author_name",
              "type": "string"
            },
            {
              "internalType": "address",
              "name": "author_address",
              "type": "address"
            },
            {
              "internalType": "uint256",
              "name": "likes",
              "type": "uint256"
            },
            {
              "internalType": "address[]",
              "name": "liked_by",
              "type": "address[]"
            },
            {
              "internalType": "uint256",
              "name": "created_on",
              "type": "uint256"
            }
          ],
          "internalType": "struct DeQuora.Answer[]",
          "name": "",
          "type": "tuple[]"
        },
        {
          "components": [
            {
              "internalType": "uint256",
              "name": "id",
              "type": "uint256"
            },
            {
              "internalType": "address",
              "name": "account",
              "type": "address"
            },
            {
              "internalType": "string",
              "name": "name",
              "type": "string"
            },
            {
              "internalType": "uint256[]",
              "name": "questions",
              "type": "uint256[]"
            },
            {
              "internalType": "uint256[]",
              "name": "answers",
              "type": "uint256[]"
            },
            {
              "internalType": "uint256",
              "name": "joined_on",
              "type": "uint256"
            }
          ],
          "internalType": "struct DeQuora.User",
          "name": "",
          "type": "tuple"
        }
      ],
      "stateMutability": "view",
      "type": "function",
      "constant": true
    },
    {
      "inputs": [
        {
          "components": [
            {
              "internalType": "uint256",
              "name": "id",
              "type": "uint256"
            },
            {
              "internalType": "string",
              "name": "question",
              "type": "string"
            },
            {
              "internalType": "string",
              "name": "author_name",
              "type": "string"
            },
            {
              "internalType": "address",
              "name": "author_address",
              "type": "address"
            },
            {
              "internalType": "uint256",
              "name": "total_answers",
              "type": "uint256"
            },
            {
              "internalType": "uint256",
              "name": "likes",
              "type": "uint256"
            },
            {
              "internalType": "address[]",
              "name": "liked_by",
              "type": "address[]"
            },
            {
              "internalType": "uint256",
              "name": "created_on",
              "type": "uint256"
            }
          ],
          "internalType": "struct DeQuora.Question",
          "name": "_question",
          "type": "tuple"
        },
        {
          "internalType": "uint256",
          "name": "_question_id",
          "type": "uint256"
        }
      ],
      "name": "set_question",
      "outputs": [],
      "stateMutability": "nonpayable",
      "type": "function"
    },
    {
      "inputs": [
        {
          "internalType": "uint256",
          "name": "_question_id",
          "type": "uint256"
        },
        {
          "internalType": "string",
          "name": "_answer",
          "type": "string"
        }
      ],
      "name": "add_answer",
      "outputs": [
        {
          "components": [
            {
              "internalType": "uint256",
              "name": "id",
              "type": "uint256"
            },
            {
              "internalType": "string",
              "name": "answer",
              "type": "string"
            },
            {
              "internalType": "string",
              "name": "author_name",
              "type": "string"
            },
            {
              "internalType": "address",
              "name": "author_address",
              "type": "address"
            },
            {
              "internalType": "uint256",
              "name": "likes",
              "type": "uint256"
            },
            {
              "internalType": "address[]",
              "name": "liked_by",
              "type": "address[]"
            },
            {
              "internalType": "uint256",
              "name": "created_on",
              "type": "uint256"
            }
          ],
          "internalType": "struct DeQuora.Answer",
          "name": "",
          "type": "tuple"
        }
      ],
      "stateMutability": "payable",
      "type": "function",
      "payable": true
    },
    {
      "inputs": [
        {
          "internalType": "uint256",
          "name": "_question_id",
          "type": "uint256"
        },
        {
          "internalType": "uint256",
          "name": "_answer_id",
          "type": "uint256"
        }
      ],
      "name": "get_answer",
      "outputs": [
        {
          "components": [
            {
              "internalType": "uint256",
              "name": "id",
              "type": "uint256"
            },
            {
              "internalType": "string",
              "name": "answer",
              "type": "string"
            },
            {
              "internalType": "string",
              "name": "author_name",
              "type": "string"
            },
            {
              "internalType": "address",
              "name": "author_address",
              "type": "address"
            },
            {
              "internalType": "uint256",
              "name": "likes",
              "type": "uint256"
            },
            {
              "internalType": "address[]",
              "name": "liked_by",
              "type": "address[]"
            },
            {
              "internalType": "uint256",
              "name": "created_on",
              "type": "uint256"
            }
          ],
          "internalType": "struct DeQuora.Answer",
          "name": "",
          "type": "tuple"
        }
      ],
      "stateMutability": "view",
      "type": "function",
      "constant": true
    },
    {
      "inputs": [
        {
          "internalType": "uint256",
          "name": "_question_id",
          "type": "uint256"
        },
        {
          "internalType": "uint256",
          "name": "_answer_id",
          "type": "uint256"
        },
        {
          "components": [
            {
              "internalType": "uint256",
              "name": "id",
              "type": "uint256"
            },
            {
              "internalType": "string",
              "name": "answer",
              "type": "string"
            },
            {
              "internalType": "string",
              "name": "author_name",
              "type": "string"
            },
            {
              "internalType": "address",
              "name": "author_address",
              "type": "address"
            },
            {
              "internalType": "uint256",
              "name": "likes",
              "type": "uint256"
            },
            {
              "internalType": "address[]",
              "name": "liked_by",
              "type": "address[]"
            },
            {
              "internalType": "uint256",
              "name": "created_on",
              "type": "uint256"
            }
          ],
          "internalType": "struct DeQuora.Answer",
          "name": "_answer",
          "type": "tuple"
        }
      ],
      "name": "set_answer",
      "outputs": [
        {
          "components": [
            {
              "internalType": "uint256",
              "name": "id",
              "type": "uint256"
            },
            {
              "internalType": "string",
              "name": "question",
              "type": "string"
            },
            {
              "internalType": "string",
              "name": "author_name",
              "type": "string"
            },
            {
              "internalType": "address",
              "name": "author_address",
              "type": "address"
            },
            {
              "internalType": "uint256",
              "name": "total_answers",
              "type": "uint256"
            },
            {
              "internalType": "uint256",
              "name": "likes",
              "type": "uint256"
            },
            {
              "internalType": "address[]",
              "name": "liked_by",
              "type": "address[]"
            },
            {
              "internalType": "uint256",
              "name": "created_on",
              "type": "uint256"
            }
          ],
          "internalType": "struct DeQuora.Question",
          "name": "",
          "type": "tuple"
        }
      ],
      "stateMutability": "nonpayable",
      "type": "function"
    },
    {
      "inputs": [
        {
          "internalType": "uint256",
          "name": "_question_id",
          "type": "uint256"
        },
        {
          "internalType": "uint256",
          "name": "_answer_id",
          "type": "uint256"
        },
        {
          "internalType": "address",
          "name": "_user_address",
          "type": "address"
        }
      ],
      "name": "like_answer",
      "outputs": [
        {
          "components": [
            {
              "internalType": "uint256",
              "name": "id",
              "type": "uint256"
            },
            {
              "internalType": "string",
              "name": "answer",
              "type": "string"
            },
            {
              "internalType": "string",
              "name": "author_name",
              "type": "string"
            },
            {
              "internalType": "address",
              "name": "author_address",
              "type": "address"
            },
            {
              "internalType": "uint256",
              "name": "likes",
              "type": "uint256"
            },
            {
              "internalType": "address[]",
              "name": "liked_by",
              "type": "address[]"
            },
            {
              "internalType": "uint256",
              "name": "created_on",
              "type": "uint256"
            }
          ],
          "internalType": "struct DeQuora.Answer",
          "name": "",
          "type": "tuple"
        }
      ],
      "stateMutability": "nonpayable",
      "type": "function"
    }
  ],
  "bytecode": "0x60806040523480156200001157600080fd5b506000808190555060006001819055507f316a024183dffe386f9e64eeb7d2108a2f170f4c8708641f33f165f6dda8b9736040516200005090620000bf565b60405180910390a1620000e1565b600082825260208201905092915050565b7f4d61696e206973206465706c6f79656400000000000000000000000000000000600082015250565b6000620000a76010836200005e565b9150620000b4826200006f565b602082019050919050565b60006020820190508181036000830152620000da8162000098565b9050919050565b613d2d80620000f16000396000f3fe6080604052600436106100e85760003560e01c8063676c98811161008a578063d2965f0411610059578063d2965f041461034a578063df16b7ab14610387578063e7cc62bd146103b7578063ff30ae0c146103e2576100e8565b8063676c988114610272578063a87430ba146102a2578063c6382a24146102e2578063c84ccaef1461031f576100e8565b8063403aa93b116100c6578063403aa93b1461019d57806348e8158a146101dc5780634ee1d7521461020c5780635029620914610249576100e8565b80632401519c146100ed57806330de49841461012f57806331b1b9781461015a575b600080fd5b3480156100f957600080fd5b50610114600480360381019061010f9190612910565b61041f565b60405161012696959493929190612a39565b60405180910390f35b34801561013b57600080fd5b506101446105a8565b6040516101519190612d3f565b60405180910390f35b34801561016657600080fd5b50610181600480360381019061017c9190612d61565b610838565b6040516101949796959493929190612d8e565b60405180910390f35b3480156101a957600080fd5b506101c460048036038101906101bf9190612d61565b6109ba565b6040516101d39392919061317b565b60405180910390f35b6101f660048036038101906101f191906132fc565b61112f565b6040516102039190613345565b60405180910390f35b34801561021857600080fd5b50610233600480360381019061022e9190613393565b611314565b6040516102409190613490565b60405180910390f35b34801561025557600080fd5b50610270600480360381019061026b91906136a2565b611479565b005b61028c600480360381019061028791906132fc565b6115bc565b60405161029991906136fe565b60405180910390f35b3480156102ae57600080fd5b506102c960048036038101906102c49190613720565b6118e8565b6040516102d9949392919061374d565b60405180910390f35b3480156102ee57600080fd5b50610309600480360381019061030491906138a1565b6119c0565b60405161031691906136fe565b60405180910390f35b34801561032b57600080fd5b50610334611b3b565b6040516103419190613910565b60405180910390f35b34801561035657600080fd5b50610371600480360381019061036c9190613720565b611b41565b60405161037e9190613345565b60405180910390f35b6103a1600480360381019061039c919061392b565b611d4c565b6040516103ae9190613490565b60405180910390f35b3480156103c357600080fd5b506103cc612060565b6040516103d99190613910565b60405180910390f35b3480156103ee57600080fd5b5061040960048036038101906104049190612910565b612066565b6040516104169190613490565b60405180910390f35b6003602052816000526040600020818154811061043b57600080fd5b906000526020600020906007020160009150915050806000015490806001018054610465906139b6565b80601f0160208091040260200160405190810160405280929190818152602001828054610491906139b6565b80156104de5780601f106104b3576101008083540402835291602001916104de565b820191906000526020600020905b8154815290600101906020018083116104c157829003601f168201915b5050505050908060020180546104f3906139b6565b80601f016020809104026020016040519081016040528092919081815260200182805461051f906139b6565b801561056c5780601f106105415761010080835404028352916020019161056c565b820191906000526020600020905b81548152906001019060200180831161054f57829003601f168201915b5050505050908060030160009054906101000a900473ffffffffffffffffffffffffffffffffffffffff16908060040154908060060154905086565b60606004805480602002602001604051908101604052809291908181526020016000905b8282101561082f5783829060005260206000209060080201604051806101000160405290816000820154815260200160018201805461060a906139b6565b80601f0160208091040260200160405190810160405280929190818152602001828054610636906139b6565b80156106835780601f1061065857610100808354040283529160200191610683565b820191906000526020600020905b81548152906001019060200180831161066657829003601f168201915b5050505050815260200160028201805461069c906139b6565b80601f01602080910402602001604051908101604052809291908181526020018280546106c8906139b6565b80156107155780601f106106ea57610100808354040283529160200191610715565b820191906000526020600020905b8154815290600101906020018083116106f857829003601f168201915b505050505081526020016003820160009054906101000a900473ffffffffffffffffffffffffffffffffffffffff1673ffffffffffffffffffffffffffffffffffffffff1673ffffffffffffffffffffffffffffffffffffffff16815260200160048201548152602001600582015481526020016006820180548060200260200160405190810160405280929190818152602001828054801561080d57602002820191906000526020600020905b8160009054906101000a900473ffffffffffffffffffffffffffffffffffffffff1673ffffffffffffffffffffffffffffffffffffffff16815260200190600101908083116107c3575b50505050508152602001600782015481525050815260200190600101906105cc565b50505050905090565b6004818154811061084857600080fd5b9060005260206000209060080201600091509050806000015490806001018054610871906139b6565b80601f016020809104026020016040519081016040528092919081815260200182805461089d906139b6565b80156108ea5780601f106108bf576101008083540402835291602001916108ea565b820191906000526020600020905b8154815290600101906020018083116108cd57829003601f168201915b5050505050908060020180546108ff906139b6565b80601f016020809104026020016040519081016040528092919081815260200182805461092b906139b6565b80156109785780601f1061094d57610100808354040283529160200191610978565b820191906000526020600020905b81548152906001019060200180831161095b57829003601f168201915b5050505050908060030160009054906101000a900473ffffffffffffffffffffffffffffffffffffffff16908060040154908060050154908060070154905087565b6109c2612358565b60606109cc6123b3565b6109d4612358565b60005b600154811015610c865785600482815481106109f6576109f56139e8565b5b9060005260206000209060080201600001541415610c735760048181548110610a2257610a216139e8565b5b90600052602060002090600802016040518061010001604052908160008201548152602001600182018054610a56906139b6565b80601f0160208091040260200160405190810160405280929190818152602001828054610a82906139b6565b8015610acf5780601f10610aa457610100808354040283529160200191610acf565b820191906000526020600020905b815481529060010190602001808311610ab257829003601f168201915b50505050508152602001600282018054610ae8906139b6565b80601f0160208091040260200160405190810160405280929190818152602001828054610b14906139b6565b8015610b615780601f10610b3657610100808354040283529160200191610b61565b820191906000526020600020905b815481529060010190602001808311610b4457829003601f168201915b505050505081526020016003820160009054906101000a900473ffffffffffffffffffffffffffffffffffffffff1673ffffffffffffffffffffffffffffffffffffffff1673ffffffffffffffffffffffffffffffffffffffff168152602001600482015481526020016005820154815260200160068201805480602002602001604051908101604052809291908181526020018280548015610c5957602002820191906000526020600020905b8160009054906101000a900473ffffffffffffffffffffffffffffffffffffffff1673ffffffffffffffffffffffffffffffffffffffff1681526020019060010190808311610c0f575b505050505081526020016007820154815250509150610c86565b8080610c7e90613a46565b9150506109d7565b50600060026000836060015173ffffffffffffffffffffffffffffffffffffffff1673ffffffffffffffffffffffffffffffffffffffff1681526020019081526020016000206040518060c0016040529081600082015481526020016001820160009054906101000a900473ffffffffffffffffffffffffffffffffffffffff1673ffffffffffffffffffffffffffffffffffffffff1673ffffffffffffffffffffffffffffffffffffffff168152602001600282018054610d47906139b6565b80601f0160208091040260200160405190810160405280929190818152602001828054610d73906139b6565b8015610dc05780601f10610d9557610100808354040283529160200191610dc0565b820191906000526020600020905b815481529060010190602001808311610da357829003601f168201915b5050505050815260200160038201805480602002602001604051908101604052809291908181526020018280548015610e1857602002820191906000526020600020905b815481526020019060010190808311610e04575b5050505050815260200160048201805480602002602001604051908101604052809291908181526020018280548015610e7057602002820191906000526020600020905b815481526020019060010190808311610e5c575b50505050508152602001600582015481525050905060006003600084600001518152602001908152602001600020805480602002602001604051908101604052809291908181526020016000905b8282101561111657838290600052602060002090600702016040518060e001604052908160008201548152602001600182018054610efb906139b6565b80601f0160208091040260200160405190810160405280929190818152602001828054610f27906139b6565b8015610f745780601f10610f4957610100808354040283529160200191610f74565b820191906000526020600020905b815481529060010190602001808311610f5757829003601f168201915b50505050508152602001600282018054610f8d906139b6565b80601f0160208091040260200160405190810160405280929190818152602001828054610fb9906139b6565b80156110065780601f10610fdb57610100808354040283529160200191611006565b820191906000526020600020905b815481529060010190602001808311610fe957829003601f168201915b505050505081526020016003820160009054906101000a900473ffffffffffffffffffffffffffffffffffffffff1673ffffffffffffffffffffffffffffffffffffffff1673ffffffffffffffffffffffffffffffffffffffff16815260200160048201548152602001600582018054806020026020016040519081016040528092919081815260200182805480156110f457602002820191906000526020600020905b8160009054906101000a900473ffffffffffffffffffffffffffffffffffffffff1673ffffffffffffffffffffffffffffffffffffffff16815260200190600101908083116110aa575b5050505050815260200160068201548152505081526020019060010190610ebe565b5050505090508281839550955095505050509193909250565b6111376123b3565b60008251141561117c576040517f08c379a000000000000000000000000000000000000000000000000000000000815260040161117390613adb565b60405180910390fd5b606060006040518060c0016040528060005481526020013373ffffffffffffffffffffffffffffffffffffffff16815260200185815260200183815260200183815260200142815250905080600260003373ffffffffffffffffffffffffffffffffffffffff1673ffffffffffffffffffffffffffffffffffffffff1681526020019081526020016000206000820151816000015560208201518160010160006101000a81548173ffffffffffffffffffffffffffffffffffffffff021916908373ffffffffffffffffffffffffffffffffffffffff16021790555060408201518160020190805190602001906112749291906123ff565b506060820151816003019080519060200190611291929190612485565b5060808201518160040190805190602001906112ae929190612485565b5060a082015181600501559050506000808154809291906112ce90613a46565b91905055507f3499e4db2b53f0baeeaf228526c8f4cbda1ac20e62e8197608c69fb9b4ebc252816040516113029190613345565b60405180910390a18092505050919050565b61131c6124d2565b6000611327856109ba565b5050905060006113378686612066565b905060005b8160a00151518110156113e9578473ffffffffffffffffffffffffffffffffffffffff168260a001518281518110611377576113766139e8565b5b602002602001015173ffffffffffffffffffffffffffffffffffffffff1614156113d6576040517f08c379a00000000000000000000000000000000000000000000000000000000081526004016113cd90613b6d565b60405180910390fd5b80806113e190613a46565b91505061133c565b50838160a00151826080015181518110611406576114056139e8565b5b602002602001019073ffffffffffffffffffffffffffffffffffffffff16908173ffffffffffffffffffffffffffffffffffffffff168152505080608001805180919061145290613a46565b815250506114618686836119c0565b915061146d8287611479565b80925050509392505050565b60005b6001548110156115b757816004828154811061149b5761149a6139e8565b5b90600052602060002090600802016000015414156115a45782600482815481106114c8576114c76139e8565b5b90600052602060002090600802016000820151816000015560208201518160010190805190602001906114fc9291906123ff565b5060408201518160020190805190602001906115199291906123ff565b5060608201518160030160006101000a81548173ffffffffffffffffffffffffffffffffffffffff021916908373ffffffffffffffffffffffffffffffffffffffff1602179055506080820151816004015560a0820151816005015560c0820151816006019080519060200190611591929190612525565b5060e082015181600701559050506115b7565b80806115af90613a46565b91505061147c565b505050565b6115c4612358565b600082511415611609576040517f08c379a000000000000000000000000000000000000000000000000000000000815260040161160090613bd9565b60405180910390fd5b60006040518061010001604052806001548152602001848152602001600260003373ffffffffffffffffffffffffffffffffffffffff1673ffffffffffffffffffffffffffffffffffffffff1681526020019081526020016000206002018054611672906139b6565b80601f016020809104026020016040519081016040528092919081815260200182805461169e906139b6565b80156116eb5780601f106116c0576101008083540402835291602001916116eb565b820191906000526020600020905b8154815290600101906020018083116116ce57829003601f168201915b505050505081526020013373ffffffffffffffffffffffffffffffffffffffff1681526020016000815260200160008152602001600067ffffffffffffffff81111561173a576117396131d1565b5b6040519080825280602002602001820160405280156117685781602001602082028036833780820191505090505b50815260200142815250905060048190806001815401808255809150506001900390600052602060002090600802016000909190919091506000820151816000015560208201518160010190805190602001906117c69291906123ff565b5060408201518160020190805190602001906117e39291906123ff565b5060608201518160030160006101000a81548173ffffffffffffffffffffffffffffffffffffffff021916908373ffffffffffffffffffffffffffffffffffffffff1602179055506080820151816004015560a0820151816005015560c082015181600601908051906020019061185b929190612525565b5060e0820151816007015550506001600081548092919061187b90613a46565b9190505550600560036000836000015181526020019081526020016000209080546118a79291906125af565b507f846610f658ae46a4f4637a926d8c97af16c46f919be06404a4438d2ee9965a9e816040516118d791906136fe565b60405180910390a180915050919050565b60026020528060005260406000206000915090508060000154908060010160009054906101000a900473ffffffffffffffffffffffffffffffffffffffff1690806002018054611937906139b6565b80601f0160208091040260200160405190810160405280929190818152602001828054611963906139b6565b80156119b05780601f10611985576101008083540402835291602001916119b0565b820191906000526020600020905b81548152906001019060200180831161199357829003601f168201915b5050505050908060050154905084565b6119c8612358565b60006119d3856109ba565b5050905060005b8160800151811015611b2f5784600360008881526020019081526020016000208281548110611a0c57611a0b6139e8565b5b9060005260206000209060070201600001541415611b1c5783600360008881526020019081526020016000208281548110611a4a57611a496139e8565b5b9060005260206000209060070201600082015181600001556020820151816001019080519060200190611a7e9291906123ff565b506040820151816002019080519060200190611a9b9291906123ff565b5060608201518160030160006101000a81548173ffffffffffffffffffffffffffffffffffffffff021916908373ffffffffffffffffffffffffffffffffffffffff1602179055506080820151816004015560a0820151816005019080519060200190611b09929190612525565b5060c08201518160060155905050611b2f565b8080611b2790613a46565b9150506119da565b50809150509392505050565b60015481565b611b496123b3565b6000600260008473ffffffffffffffffffffffffffffffffffffffff1673ffffffffffffffffffffffffffffffffffffffff1681526020019081526020016000206040518060c0016040529081600082015481526020016001820160009054906101000a900473ffffffffffffffffffffffffffffffffffffffff1673ffffffffffffffffffffffffffffffffffffffff1673ffffffffffffffffffffffffffffffffffffffff168152602001600282018054611c05906139b6565b80601f0160208091040260200160405190810160405280929190818152602001828054611c31906139b6565b8015611c7e5780601f10611c5357610100808354040283529160200191611c7e565b820191906000526020600020905b815481529060010190602001808311611c6157829003601f168201915b5050505050815260200160038201805480602002602001604051908101604052809291908181526020018280548015611cd657602002820191906000526020600020905b815481526020019060010190808311611cc2575b5050505050815260200160048201805480602002602001604051908101604052809291908181526020018280548015611d2e57602002820191906000526020600020905b815481526020019060010190808311611d1a575b50505050508152602001600582015481525050905080915050919050565b611d546124d2565b600082511415611d99576040517f08c379a0000000000000000000000000000000000000000000000000000000008152600401611d9090613c45565b60405180910390fd5b6000611da4846109ba565b505090503373ffffffffffffffffffffffffffffffffffffffff16816060015173ffffffffffffffffffffffffffffffffffffffff161415611e1b576040517f08c379a0000000000000000000000000000000000000000000000000000000008152600401611e1290613cd7565b60405180910390fd5b606060006040518060e0016040528084608001518152602001868152602001600260003373ffffffffffffffffffffffffffffffffffffffff1673ffffffffffffffffffffffffffffffffffffffff1681526020019081526020016000206002018054611e87906139b6565b80601f0160208091040260200160405190810160405280929190818152602001828054611eb3906139b6565b8015611f005780601f10611ed557610100808354040283529160200191611f00565b820191906000526020600020905b815481529060010190602001808311611ee357829003601f168201915b505050505081526020013373ffffffffffffffffffffffffffffffffffffffff1681526020016000815260200183815260200142815250905060036000878152602001908152602001600020819080600181540180825580915050600190039060005260206000209060070201600090919091909150600082015181600001556020820151816001019080519060200190611f9c9291906123ff565b506040820151816002019080519060200190611fb99291906123ff565b5060608201518160030160006101000a81548173ffffffffffffffffffffffffffffffffffffffff021916908373ffffffffffffffffffffffffffffffffffffffff1602179055506080820151816004015560a0820151816005019080519060200190612027929190612525565b5060c08201518160060155505082608001805180919061204690613a46565b815250506120548387611479565b80935050505092915050565b60005481565b61206e6124d2565b6000612079846109ba565b505090506120856124d2565b60005b826080015181101561234c57846003600088815260200190815260200160002082815481106120ba576120b96139e8565b5b9060005260206000209060070201600001541415612339576003600087815260200190815260200160002081815481106120f7576120f66139e8565b5b90600052602060002090600702016040518060e00160405290816000820154815260200160018201805461212a906139b6565b80601f0160208091040260200160405190810160405280929190818152602001828054612156906139b6565b80156121a35780601f10612178576101008083540402835291602001916121a3565b820191906000526020600020905b81548152906001019060200180831161218657829003601f168201915b505050505081526020016002820180546121bc906139b6565b80601f01602080910402602001604051908101604052809291908181526020018280546121e8906139b6565b80156122355780601f1061220a57610100808354040283529160200191612235565b820191906000526020600020905b81548152906001019060200180831161221857829003601f168201915b505050505081526020016003820160009054906101000a900473ffffffffffffffffffffffffffffffffffffffff1673ffffffffffffffffffffffffffffffffffffffff1673ffffffffffffffffffffffffffffffffffffffff168152602001600482015481526020016005820180548060200260200160405190810160405280929190818152602001828054801561232357602002820191906000526020600020905b8160009054906101000a900473ffffffffffffffffffffffffffffffffffffffff1673ffffffffffffffffffffffffffffffffffffffff16815260200190600101908083116122d9575b5050505050815260200160068201548152505091505b808061234490613a46565b915050612088565b50809250505092915050565b604051806101000160405280600081526020016060815260200160608152602001600073ffffffffffffffffffffffffffffffffffffffff168152602001600081526020016000815260200160608152602001600081525090565b6040518060c0016040528060008152602001600073ffffffffffffffffffffffffffffffffffffffff168152602001606081526020016060815260200160608152602001600081525090565b82805461240b906139b6565b90600052602060002090601f01602090048101928261242d5760008555612474565b82601f1061244657805160ff1916838001178555612474565b82800160010185558215612474579182015b82811115612473578251825591602001919060010190612458565b5b50905061248191906126e3565b5090565b8280548282559060005260206000209081019282156124c1579160200282015b828111156124c05782518255916020019190600101906124a5565b5b5090506124ce91906126e3565b5090565b6040518060e00160405280600081526020016060815260200160608152602001600073ffffffffffffffffffffffffffffffffffffffff1681526020016000815260200160608152602001600081525090565b82805482825590600052602060002090810192821561259e579160200282015b8281111561259d5782518260006101000a81548173ffffffffffffffffffffffffffffffffffffffff021916908373ffffffffffffffffffffffffffffffffffffffff16021790555091602001919060010190612545565b5b5090506125ab91906126e3565b5090565b8280548282559060005260206000209060070281019282156126d25760005260206000209160070282015b828111156126d1578282600082015481600001556001820181600101908054612602906139b6565b61260d929190612700565b506002820181600201908054612622906139b6565b61262d929190612700565b506003820160009054906101000a900473ffffffffffffffffffffffffffffffffffffffff168160030160006101000a81548173ffffffffffffffffffffffffffffffffffffffff021916908373ffffffffffffffffffffffffffffffffffffffff1602179055506004820154816004015560058201816005019080546126b592919061278d565b50600682015481600601555050916007019190600701906125da565b5b5090506126df91906127df565b5090565b5b808211156126fc5760008160009055506001016126e4565b5090565b82805461270c906139b6565b90600052602060002090601f01602090048101928261272e576000855561277c565b82601f1061273f578054855561277c565b8280016001018555821561277c57600052602060002091601f016020900482015b8281111561277b578254825591600101919060010190612760565b5b50905061278991906126e3565b5090565b8280548282559060005260206000209081019282156127ce5760005260206000209182015b828111156127cd5782548255916001019190600101906127b2565b5b5090506127db91906126e3565b5090565b5b80821115612861576000808201600090556001820160006128019190612865565b6002820160006128119190612865565b6003820160006101000a81549073ffffffffffffffffffffffffffffffffffffffff0219169055600482016000905560058201600061285091906128a5565b6006820160009055506007016127e0565b5090565b508054612871906139b6565b6000825580601f1061288357506128a2565b601f0160209004906000526020600020908101906128a191906126e3565b5b50565b50805460008255906000526020600020908101906128c391906126e3565b50565b6000604051905090565b600080fd5b600080fd5b6000819050919050565b6128ed816128da565b81146128f857600080fd5b50565b60008135905061290a816128e4565b92915050565b60008060408385031215612927576129266128d0565b5b6000612935858286016128fb565b9250506020612946858286016128fb565b9150509250929050565b612959816128da565b82525050565b600081519050919050565b600082825260208201905092915050565b60005b8381101561299957808201518184015260208101905061297e565b838111156129a8576000848401525b50505050565b6000601f19601f8301169050919050565b60006129ca8261295f565b6129d4818561296a565b93506129e481856020860161297b565b6129ed816129ae565b840191505092915050565b600073ffffffffffffffffffffffffffffffffffffffff82169050919050565b6000612a23826129f8565b9050919050565b612a3381612a18565b82525050565b600060c082019050612a4e6000830189612950565b8181036020830152612a6081886129bf565b90508181036040830152612a7481876129bf565b9050612a836060830186612a2a565b612a906080830185612950565b612a9d60a0830184612950565b979650505050505050565b600081519050919050565b600082825260208201905092915050565b6000819050602082019050919050565b612add816128da565b82525050565b600082825260208201905092915050565b6000612aff8261295f565b612b098185612ae3565b9350612b1981856020860161297b565b612b22816129ae565b840191505092915050565b612b3681612a18565b82525050565b600081519050919050565b600082825260208201905092915050565b6000819050602082019050919050565b6000612b748383612b2d565b60208301905092915050565b6000602082019050919050565b6000612b9882612b3c565b612ba28185612b47565b9350612bad83612b58565b8060005b83811015612bde578151612bc58882612b68565b9750612bd083612b80565b925050600181019050612bb1565b5085935050505092915050565b600061010083016000830151612c046000860182612ad4565b5060208301518482036020860152612c1c8282612af4565b91505060408301518482036040860152612c368282612af4565b9150506060830151612c4b6060860182612b2d565b506080830151612c5e6080860182612ad4565b5060a0830151612c7160a0860182612ad4565b5060c083015184820360c0860152612c898282612b8d565b91505060e0830151612c9e60e0860182612ad4565b508091505092915050565b6000612cb58383612beb565b905092915050565b6000602082019050919050565b6000612cd582612aa8565b612cdf8185612ab3565b935083602082028501612cf185612ac4565b8060005b85811015612d2d5784840389528151612d0e8582612ca9565b9450612d1983612cbd565b925060208a01995050600181019050612cf5565b50829750879550505050505092915050565b60006020820190508181036000830152612d598184612cca565b905092915050565b600060208284031215612d7757612d766128d0565b5b6000612d85848285016128fb565b91505092915050565b600060e082019050612da3600083018a612950565b8181036020830152612db581896129bf565b90508181036040830152612dc981886129bf565b9050612dd86060830187612a2a565b612de56080830186612950565b612df260a0830185612950565b612dff60c0830184612950565b98975050505050505050565b600061010083016000830151612e246000860182612ad4565b5060208301518482036020860152612e3c8282612af4565b91505060408301518482036040860152612e568282612af4565b9150506060830151612e6b6060860182612b2d565b506080830151612e7e6080860182612ad4565b5060a0830151612e9160a0860182612ad4565b5060c083015184820360c0860152612ea98282612b8d565b91505060e0830151612ebe60e0860182612ad4565b508091505092915050565b600081519050919050565b600082825260208201905092915050565b6000819050602082019050919050565b600060e083016000830151612f0d6000860182612ad4565b5060208301518482036020860152612f258282612af4565b91505060408301518482036040860152612f3f8282612af4565b9150506060830151612f546060860182612b2d565b506080830151612f676080860182612ad4565b5060a083015184820360a0860152612f7f8282612b8d565b91505060c0830151612f9460c0860182612ad4565b508091505092915050565b6000612fab8383612ef5565b905092915050565b6000602082019050919050565b6000612fcb82612ec9565b612fd58185612ed4565b935083602082028501612fe785612ee5565b8060005b8581101561302357848403895281516130048582612f9f565b945061300f83612fb3565b925060208a01995050600181019050612feb565b50829750879550505050505092915050565b600081519050919050565b600082825260208201905092915050565b6000819050602082019050919050565b600061306d8383612ad4565b60208301905092915050565b6000602082019050919050565b600061309182613035565b61309b8185613040565b93506130a683613051565b8060005b838110156130d75781516130be8882613061565b97506130c983613079565b9250506001810190506130aa565b5085935050505092915050565b600060c0830160008301516130fc6000860182612ad4565b50602083015161310f6020860182612b2d565b50604083015184820360408601526131278282612af4565b915050606083015184820360608601526131418282613086565b9150506080830151848203608086015261315b8282613086565b91505060a083015161317060a0860182612ad4565b508091505092915050565b600060608201905081810360008301526131958186612e0b565b905081810360208301526131a98185612fc0565b905081810360408301526131bd81846130e4565b9050949350505050565b600080fd5b600080fd5b7f4e487b7100000000000000000000000000000000000000000000000000000000600052604160045260246000fd5b613209826129ae565b810181811067ffffffffffffffff82111715613228576132276131d1565b5b80604052505050565b600061323b6128c6565b90506132478282613200565b919050565b600067ffffffffffffffff821115613267576132666131d1565b5b613270826129ae565b9050602081019050919050565b82818337600083830152505050565b600061329f61329a8461324c565b613231565b9050828152602081018484840111156132bb576132ba6131cc565b5b6132c684828561327d565b509392505050565b600082601f8301126132e3576132e26131c7565b5b81356132f384826020860161328c565b91505092915050565b600060208284031215613312576133116128d0565b5b600082013567ffffffffffffffff8111156133305761332f6128d5565b5b61333c848285016132ce565b91505092915050565b6000602082019050818103600083015261335f81846130e4565b905092915050565b61337081612a18565b811461337b57600080fd5b50565b60008135905061338d81613367565b92915050565b6000806000606084860312156133ac576133ab6128d0565b5b60006133ba868287016128fb565b93505060206133cb868287016128fb565b92505060406133dc8682870161337e565b9150509250925092565b600060e0830160008301516133fe6000860182612ad4565b50602083015184820360208601526134168282612af4565b915050604083015184820360408601526134308282612af4565b91505060608301516134456060860182612b2d565b5060808301516134586080860182612ad4565b5060a083015184820360a08601526134708282612b8d565b91505060c083015161348560c0860182612ad4565b508091505092915050565b600060208201905081810360008301526134aa81846133e6565b905092915050565b600080fd5b600080fd5b600067ffffffffffffffff8211156134d7576134d66131d1565b5b602082029050602081019050919050565b600080fd5b60006135006134fb846134bc565b613231565b90508083825260208201905060208402830185811115613523576135226134e8565b5b835b8181101561354c5780613538888261337e565b845260208401935050602081019050613525565b5050509392505050565b600082601f83011261356b5761356a6131c7565b5b813561357b8482602086016134ed565b91505092915050565b6000610100828403121561359b5761359a6134b2565b5b6135a6610100613231565b905060006135b6848285016128fb565b600083015250602082013567ffffffffffffffff8111156135da576135d96134b7565b5b6135e6848285016132ce565b602083015250604082013567ffffffffffffffff81111561360a576136096134b7565b5b613616848285016132ce565b604083015250606061362a8482850161337e565b606083015250608061363e848285016128fb565b60808301525060a0613652848285016128fb565b60a08301525060c082013567ffffffffffffffff811115613676576136756134b7565b5b61368284828501613556565b60c08301525060e0613696848285016128fb565b60e08301525092915050565b600080604083850312156136b9576136b86128d0565b5b600083013567ffffffffffffffff8111156136d7576136d66128d5565b5b6136e385828601613584565b92505060206136f4858286016128fb565b9150509250929050565b600060208201905081810360008301526137188184612e0b565b905092915050565b600060208284031215613736576137356128d0565b5b60006137448482850161337e565b91505092915050565b60006080820190506137626000830187612950565b61376f6020830186612a2a565b818103604083015261378181856129bf565b90506137906060830184612950565b95945050505050565b600060e082840312156137af576137ae6134b2565b5b6137b960e0613231565b905060006137c9848285016128fb565b600083015250602082013567ffffffffffffffff8111156137ed576137ec6134b7565b5b6137f9848285016132ce565b602083015250604082013567ffffffffffffffff81111561381d5761381c6134b7565b5b613829848285016132ce565b604083015250606061383d8482850161337e565b6060830152506080613851848285016128fb565b60808301525060a082013567ffffffffffffffff811115613875576138746134b7565b5b61388184828501613556565b60a08301525060c0613895848285016128fb565b60c08301525092915050565b6000806000606084860312156138ba576138b96128d0565b5b60006138c8868287016128fb565b93505060206138d9868287016128fb565b925050604084013567ffffffffffffffff8111156138fa576138f96128d5565b5b61390686828701613799565b9150509250925092565b60006020820190506139256000830184612950565b92915050565b60008060408385031215613942576139416128d0565b5b6000613950858286016128fb565b925050602083013567ffffffffffffffff811115613971576139706128d5565b5b61397d858286016132ce565b9150509250929050565b7f4e487b7100000000000000000000000000000000000000000000000000000000600052602260045260246000fd5b600060028204905060018216806139ce57607f821691505b602082108114156139e2576139e1613987565b5b50919050565b7f4e487b7100000000000000000000000000000000000000000000000000000000600052603260045260246000fd5b7f4e487b7100000000000000000000000000000000000000000000000000000000600052601160045260246000fd5b6000613a51826128da565b91507fffffffffffffffffffffffffffffffffffffffffffffffffffffffffffffffff821415613a8457613a83613a17565b5b600182019050919050565b7f4e616d652063616e6e6f7420626520656d707479000000000000000000000000600082015250565b6000613ac560148361296a565b9150613ad082613a8f565b602082019050919050565b60006020820190508181036000830152613af481613ab8565b9050919050565b7f596f75206861766520616c7265616479206c696b6564207468697320616e737760008201527f6572000000000000000000000000000000000000000000000000000000000000602082015250565b6000613b5760228361296a565b9150613b6282613afb565b604082019050919050565b60006020820190508181036000830152613b8681613b4a565b9050919050565b7f5175657374696f6e2063616e6e6f7420626520656d7074790000000000000000600082015250565b6000613bc360188361296a565b9150613bce82613b8d565b602082019050919050565b60006020820190508181036000830152613bf281613bb6565b9050919050565b7f416e737765722063616e6e6f7420626520656d70747900000000000000000000600082015250565b6000613c2f60168361296a565b9150613c3a82613bf9565b602082019050919050565b60006020820190508181036000830152613c5e81613c22565b9050919050565b7f417574686f722063616e6e6f7420616e73776572206869732f686572206f776e60008201527f207175657374696f6e0000000000000000000000000000000000000000000000602082015250565b6000613cc160298361296a565b9150613ccc82613c65565b604082019050919050565b60006020820190508181036000830152613cf081613cb4565b905091905056fea264697066735822122026f182b4d1aa7e66fa2c63a5992b4e9735bd2d486cba5a372a5b2191abb4f6d464736f6c634300080b0033",
  "immutableReferences": {},
  "source": "// SPDX-License-Identifier: MIT\npragma solidity >=0.4.22 <0.9.0;\n\ncontract DeQuora {\n\n    struct User{\n        uint id;\n        address account;\n        string name;\n        uint[] questions;\n        uint[] answers;\n        uint256 joined_on;\n    }\n\n    struct Question{\n        uint id;\n        string question;\n        string author_name;\n        address author_address;\n        uint total_answers;\n        uint likes;\n        address[] liked_by;\n        uint256 created_on;\n    }\n\n    struct Answer{\n        uint id;\n        string answer;\n        string author_name;\n        address author_address;\n        uint256 likes;\n        address[] liked_by;\n        uint256 created_on;\n    }\n\n\n    uint public total_users;\n    uint public total_questions;\n    mapping(address => User) public users;    \n    mapping(uint => Answer[]) public answers; //question id to answers\n    Question[] public questions; // user address to question\n    Answer[] answers_array;\n\n    event new_user_added(User);\n    event main_deployed(string);\n    event question_added(Question);\n\n\n    constructor(){\n        total_users = 0;\n        total_questions = 0;\n        emit main_deployed('Main is deployed');\n    }\n\n    function create_user(string memory _name) public payable returns(User memory){\n\n        require(bytes(_name).length != 0,\"Name cannot be empty\");\n\n        //Create a new user\n        uint[] memory arr;\n        User memory newUser = User(total_users, msg.sender, _name, arr, arr, block.timestamp);\n        users[msg.sender] = newUser;\n        total_users++;\n        emit new_user_added(newUser);\n        \n        //Return the user\n        return newUser;\n    }\n\n    function get_user_details(address _user_address) public view returns(User memory){\n        User memory user = users[_user_address];\n        return user;\n    }\n\n    function add_question(string memory _question) public payable returns(Question memory){\n        require(bytes(_question).length != 0,\"Question cannot be empty\");\n        \n        //Create the question\n        Question memory newQuestion = Question(total_questions, _question, users[msg.sender].name ,msg.sender, 0, 0, new address[](0), block.timestamp);\n        questions.push(newQuestion);\n        total_questions++;\n\n        answers[newQuestion.id] = answers_array;\n\n        emit question_added(newQuestion);\n\n        //return the question\n        return newQuestion;\n    }\n\n    function get_all_questions() public view returns(Question[] memory){\n        return questions;\n    }\n\n    function get_question(uint _question_id) public view returns(Question memory, Answer[] memory, User memory){\n\n        Question memory question;\n\n        //iterate over all the questions\n        for(uint i=0; i<total_questions; i++){\n            // check for the question with the given id\n            if(questions[i].id == _question_id){\n                //return the question with the given id, and corresponding author    \n                question = questions[i];\n                break;\n            }\n        }\n        User memory _author = users[question.author_address];\n        Answer[] memory _answers = answers[question.id];\n        return (question, _answers, _author);\n    }\n\n    function set_question(Question memory _question, uint _question_id) public {\n        \n        //iterate over all the questions\n        for(uint i=0; i<total_questions; i++){\n\n            // check for the question to be updated usign the id\n            if(questions[i].id == _question_id){\n\n                //update the question when found\n                questions[i] = _question;\n                break;\n            }\n        }\n    }\n\n    function add_answer(uint _question_id,string memory _answer) public payable returns(Answer memory){\n\n        require(bytes(_answer).length != 0,\"Answer cannot be empty\");\n\n        //Get the question from all the questions\n        (Question memory question,,) = get_question(_question_id);\n\n        require(question.author_address != msg.sender,\"Author cannot answer his/her own question\");\n\n        //Create the answer\n        address[] memory arr;\n        Answer memory answer = Answer(question.total_answers, _answer, users[msg.sender].name, msg.sender,0,arr, block.timestamp);\n\n        //Add the answer to records\n        answers[_question_id].push(answer);\n        question.total_answers++;\n\n        //update the question in the array\n        set_question(question, _question_id);\n        return answer;\n    }        \n\n    function get_answer(uint _question_id, uint _answer_id) public view returns(Answer memory){\n\n        //Get the question\n        (Question memory question,,)= get_question(_question_id);\n\n        Answer memory answer;\n\n        for(uint i=0; i<question.total_answers; i++){\n            if(answers[_question_id][i].id == _answer_id){\n                answer = answers[_question_id][i];\n            }\n        }\n\n        return answer;\n    }\n\n    function set_answer(uint _question_id, uint _answer_id, Answer memory _answer) public returns(Question memory){\n\n        //Get the question\n        (Question memory question,,)= get_question(_question_id);\n\n        for(uint i=0; i<question.total_answers; i++){\n            if(answers[_question_id][i].id == _answer_id){\n                answers[_question_id][i] = _answer;\n                break;\n            }\n        }\n\n        return question;\n    }\n        \n    function like_answer( uint _question_id, uint _answer_id, address _user_address) public returns(Answer memory){\n\n        //Get the question\n        (Question memory question,,)= get_question(_question_id);\n\n        // Get the answeer form the mapping\n        Answer memory answer = get_answer(_question_id, _answer_id);\n        \n        for(uint i=0; i<answer.liked_by.length; i++){\n            require(answer.liked_by[i] != _user_address, \"You have already liked this answer\") ;\n        }\n\n        // Increase the likes and update the mapping\n        answer.liked_by[answer.likes] = _user_address;\n        answer.likes++;\n\n        //Update the answer\n        question = set_answer(_question_id, _answer_id ,answer);\n\n        //update the question\n        set_question(question, _question_id);\n\n        //Return the updated likes\n        return answer;\n    } \n\n}\n",
  "sourcePath": "C:\\Users\\Kailash\\Desktop\\All Projects\\De-Quora\\contracts\\contracts\\DeQuora.sol",
  "compiler": {
    "name": "solc",
    "version": "0.8.11+commit.d7f03943.Emscripten.clang"
  },
  "schemaVersion": "3.4.5",
  "updatedAt": "2022-03-30T17:44:58.032Z",
  "networkType": "ethereum",
  "devdoc": {
    "kind": "dev",
    "methods": {},
    "version": 1
  },
  "userdoc": {
    "kind": "user",
    "methods": {},
    "version": 1
  }
}