{
  "contractName": "Main",
  "abi": [
    {
      "inputs": [],
      "stateMutability": "nonpayable",
      "type": "constructor"
    },
    {
      "inputs": [],
      "name": "total_users",
      "outputs": [
        {
          "internalType": "uint256",
          "name": "",
          "type": "uint256"
        }
      ],
      "stateMutability": "view",
      "type": "function",
      "constant": true
    },
    {
      "inputs": [
        {
          "internalType": "uint256",
          "name": "",
          "type": "uint256"
        }
      ],
      "name": "users",
      "outputs": [
        {
          "internalType": "contract User",
          "name": "",
          "type": "address"
        }
      ],
      "stateMutability": "view",
      "type": "function",
      "constant": true
    },
    {
      "inputs": [
        {
          "internalType": "string",
          "name": "_name",
          "type": "string"
        }
      ],
      "name": "register",
      "outputs": [
        {
          "internalType": "contract User",
          "name": "",
          "type": "address"
        }
      ],
      "stateMutability": "nonpayable",
      "type": "function"
    }
  ],
  "bytecode": "0x608060405234801561001057600080fd5b5060008081905550612d25806100276000396000f3fe60806040523480156200001157600080fd5b5060043610620000465760003560e01c8063365b98b2146200004b578063e7cc62bd1462000081578063f2c298be14620000a3575b600080fd5b6200006960048036038101906200006391906200026a565b620000d9565b60405162000078919062000327565b60405180910390f35b6200008b6200010c565b6040516200009a919062000355565b60405180910390f35b620000c16004803603810190620000bb9190620004d4565b62000112565b604051620000d0919062000327565b60405180910390f35b60016020528060005260406000206000915054906101000a900473ffffffffffffffffffffffffffffffffffffffff1681565b60005481565b600080825114156200015b576040517f08c379a0000000000000000000000000000000000000000000000000000000008152600401620001529062000586565b60405180910390fd5b6000826040516200016c906200020d565b6200017891906200062a565b604051809103906000f08015801562000195573d6000803e3d6000fd5b50905080600160008054815260200190815260200160002060006101000a81548173ffffffffffffffffffffffffffffffffffffffff021916908373ffffffffffffffffffffffffffffffffffffffff160217905550600080815480929190620001ff906200067d565b919050555080915050919050565b61262480620006cc83390190565b6000604051905090565b600080fd5b600080fd5b6000819050919050565b62000244816200022f565b81146200025057600080fd5b50565b600081359050620002648162000239565b92915050565b60006020828403121562000283576200028262000225565b5b6000620002938482850162000253565b91505092915050565b600073ffffffffffffffffffffffffffffffffffffffff82169050919050565b6000819050919050565b6000620002e7620002e1620002db846200029c565b620002bc565b6200029c565b9050919050565b6000620002fb82620002c6565b9050919050565b60006200030f82620002ee565b9050919050565b620003218162000302565b82525050565b60006020820190506200033e600083018462000316565b92915050565b6200034f816200022f565b82525050565b60006020820190506200036c600083018462000344565b92915050565b600080fd5b600080fd5b6000601f19601f8301169050919050565b7f4e487b7100000000000000000000000000000000000000000000000000000000600052604160045260246000fd5b620003c7826200037c565b810181811067ffffffffffffffff82111715620003e957620003e86200038d565b5b80604052505050565b6000620003fe6200021b565b90506200040c8282620003bc565b919050565b600067ffffffffffffffff8211156200042f576200042e6200038d565b5b6200043a826200037c565b9050602081019050919050565b82818337600083830152505050565b60006200046d620004678462000411565b620003f2565b9050828152602081018484840111156200048c576200048b62000377565b5b6200049984828562000447565b509392505050565b600082601f830112620004b957620004b862000372565b5b8135620004cb84826020860162000456565b91505092915050565b600060208284031215620004ed57620004ec62000225565b5b600082013567ffffffffffffffff8111156200050e576200050d6200022a565b5b6200051c84828501620004a1565b91505092915050565b600082825260208201905092915050565b7f4e616d652063616e6e6f7420626520656d707479000000000000000000000000600082015250565b60006200056e60148362000525565b91506200057b8262000536565b602082019050919050565b60006020820190508181036000830152620005a1816200055f565b9050919050565b600081519050919050565b60005b83811015620005d3578082015181840152602081019050620005b6565b83811115620005e3576000848401525b50505050565b6000620005f682620005a8565b62000602818562000525565b935062000614818560208601620005b3565b6200061f816200037c565b840191505092915050565b60006020820190508181036000830152620006468184620005e9565b905092915050565b7f4e487b7100000000000000000000000000000000000000000000000000000000600052601160045260246000fd5b60006200068a826200022f565b91507fffffffffffffffffffffffffffffffffffffffffffffffffffffffffffffffff821415620006c057620006bf6200064e565b5b60018201905091905056fe60806040523480156200001157600080fd5b5060405162002624380380620026248339818101604052810190620000379190620002a4565b80600090805190602001906200004f92919062000057565b50506200035a565b828054620000659062000324565b90600052602060002090601f016020900481019282620000895760008555620000d5565b82601f10620000a457805160ff1916838001178555620000d5565b82800160010185558215620000d5579182015b82811115620000d4578251825591602001919060010190620000b7565b5b509050620000e49190620000e8565b5090565b5b8082111562000103576000816000905550600101620000e9565b5090565b6000604051905090565b600080fd5b600080fd5b600080fd5b600080fd5b6000601f19601f8301169050919050565b7f4e487b7100000000000000000000000000000000000000000000000000000000600052604160045260246000fd5b620001708262000125565b810181811067ffffffffffffffff8211171562000192576200019162000136565b5b80604052505050565b6000620001a762000107565b9050620001b5828262000165565b919050565b600067ffffffffffffffff821115620001d857620001d762000136565b5b620001e38262000125565b9050602081019050919050565b60005b8381101562000210578082015181840152602081019050620001f3565b8381111562000220576000848401525b50505050565b60006200023d6200023784620001ba565b6200019b565b9050828152602081018484840111156200025c576200025b62000120565b5b62000269848285620001f0565b509392505050565b600082601f8301126200028957620002886200011b565b5b81516200029b84826020860162000226565b91505092915050565b600060208284031215620002bd57620002bc62000111565b5b600082015167ffffffffffffffff811115620002de57620002dd62000116565b5b620002ec8482850162000271565b91505092915050565b7f4e487b7100000000000000000000000000000000000000000000000000000000600052602260045260246000fd5b600060028204905060018216806200033d57607f821691505b60208210811415620003545762000353620002f5565b5b50919050565b6122ba806200036a6000396000f3fe60806040523480156200001157600080fd5b5060043610620000525760003560e01c806306fdde0314620000575780635e8867a51462000079578063676c988114620000af5780639639bbfe14620000e5575b600080fd5b620000616200011d565b60405162000070919062000482565b60405180910390f35b620000976004803603810190620000919190620004f5565b620001b3565b604051620000a69190620005b2565b60405180910390f35b620000cd6004803603810190620000c7919062000720565b620001f3565b604051620000dc9190620005b2565b60405180910390f35b620001036004803603810190620000fd9190620004f5565b620002e5565b6040516200011493929190620007a7565b60405180910390f35b600080546200012c906200081a565b80601f01602080910402602001604051908101604052809291908181526020018280546200015a906200081a565b8015620001ab5780601f106200017f57610100808354040283529160200191620001ab565b820191906000526020600020905b8154815290600101906020018083116200018d57829003601f168201915b505050505081565b60018181548110620001c457600080fd5b906000526020600020016000915054906101000a900473ffffffffffffffffffffffffffffffffffffffff1681565b600080825114156200023c576040517f08c379a00000000000000000000000000000000000000000000000000000000081526004016200023390620008a0565b60405180910390fd5b6000826040516200024d90620003d0565b62000259919062000482565b604051809103906000f08015801562000276573d6000803e3d6000fd5b5090506001819080600181540180825580915050600190039060005260206000200160009091909190916101000a81548173ffffffffffffffffffffffffffffffffffffffff021916908373ffffffffffffffffffffffffffffffffffffffff16021790555080915050919050565b60028181548110620002f657600080fd5b90600052602060002090600402016000915090508060000180546200031b906200081a565b80601f016020809104026020016040519081016040528092919081815260200182805462000349906200081a565b80156200039a5780601f106200036e576101008083540402835291602001916200039a565b820191906000526020600020905b8154815290600101906020018083116200037c57829003601f168201915b5050505050908060010160009054906101000a900473ffffffffffffffffffffffffffffffffffffffff16908060020154905083565b6119c280620008c383390190565b600081519050919050565b600082825260208201905092915050565b60005b838110156200041a578082015181840152602081019050620003fd565b838111156200042a576000848401525b50505050565b6000601f19601f8301169050919050565b60006200044e82620003de565b6200045a8185620003e9565b93506200046c818560208601620003fa565b620004778162000430565b840191505092915050565b600060208201905081810360008301526200049e818462000441565b905092915050565b6000604051905090565b600080fd5b600080fd5b6000819050919050565b620004cf81620004ba565b8114620004db57600080fd5b50565b600081359050620004ef81620004c4565b92915050565b6000602082840312156200050e576200050d620004b0565b5b60006200051e84828501620004de565b91505092915050565b600073ffffffffffffffffffffffffffffffffffffffff82169050919050565b6000819050919050565b6000620005726200056c620005668462000527565b62000547565b62000527565b9050919050565b6000620005868262000551565b9050919050565b60006200059a8262000579565b9050919050565b620005ac816200058d565b82525050565b6000602082019050620005c96000830184620005a1565b92915050565b600080fd5b600080fd5b7f4e487b7100000000000000000000000000000000000000000000000000000000600052604160045260246000fd5b620006138262000430565b810181811067ffffffffffffffff82111715620006355762000634620005d9565b5b80604052505050565b60006200064a620004a6565b905062000658828262000608565b919050565b600067ffffffffffffffff8211156200067b576200067a620005d9565b5b620006868262000430565b9050602081019050919050565b82818337600083830152505050565b6000620006b9620006b3846200065d565b6200063e565b905082815260208101848484011115620006d857620006d7620005d4565b5b620006e584828562000693565b509392505050565b600082601f830112620007055762000704620005cf565b5b813562000717848260208601620006a2565b91505092915050565b600060208284031215620007395762000738620004b0565b5b600082013567ffffffffffffffff8111156200075a5762000759620004b5565b5b6200076884828501620006ed565b91505092915050565b60006200077e8262000527565b9050919050565b620007908162000771565b82525050565b620007a181620004ba565b82525050565b60006060820190508181036000830152620007c3818662000441565b9050620007d4602083018562000785565b620007e3604083018462000796565b949350505050565b7f4e487b7100000000000000000000000000000000000000000000000000000000600052602260045260246000fd5b600060028204905060018216806200083357607f821691505b602082108114156200084a5762000849620007eb565b5b50919050565b7f5175657374696f6e2063616e6e6f7420626520656d7074790000000000000000600082015250565b600062000888601883620003e9565b9150620008958262000850565b602082019050919050565b60006020820190508181036000830152620008bb8162000879565b905091905056fe60806040523480156200001157600080fd5b50604051620019c2380380620019c28339818101604052810190620000379190620002f5565b80600090805190602001906200004f929190620000a8565b5033600160006101000a81548173ffffffffffffffffffffffffffffffffffffffff021916908373ffffffffffffffffffffffffffffffffffffffff1602179055506000600281905550600060048190555050620003ab565b828054620000b69062000375565b90600052602060002090601f016020900481019282620000da576000855562000126565b82601f10620000f557805160ff191683800117855562000126565b8280016001018555821562000126579182015b828111156200012557825182559160200191906001019062000108565b5b50905062000135919062000139565b5090565b5b80821115620001545760008160009055506001016200013a565b5090565b6000604051905090565b600080fd5b600080fd5b600080fd5b600080fd5b6000601f19601f8301169050919050565b7f4e487b7100000000000000000000000000000000000000000000000000000000600052604160045260246000fd5b620001c18262000176565b810181811067ffffffffffffffff82111715620001e357620001e262000187565b5b80604052505050565b6000620001f862000158565b9050620002068282620001b6565b919050565b600067ffffffffffffffff82111562000229576200022862000187565b5b620002348262000176565b9050602081019050919050565b60005b838110156200026157808201518184015260208101905062000244565b8381111562000271576000848401525b50505050565b60006200028e62000288846200020b565b620001ec565b905082815260208101848484011115620002ad57620002ac62000171565b5b620002ba84828562000241565b509392505050565b600082601f830112620002da57620002d96200016c565b5b8151620002ec84826020860162000277565b91505092915050565b6000602082840312156200030e576200030d62000162565b5b600082015167ffffffffffffffff8111156200032f576200032e62000167565b5b6200033d84828501620002c2565b91505092915050565b7f4e487b7100000000000000000000000000000000000000000000000000000000600052602260045260246000fd5b600060028204905060018216806200038e57607f821691505b60208210811415620003a557620003a462000346565b5b50919050565b61160780620003bb6000396000f3fe608060405234801561001057600080fd5b50600436106100935760003560e01c80637cbc8df1116100665780637cbc8df114610136578063a6c3e6b914610166578063cb4f708c14610184578063ccdefb42146101b4578063d1dc9bd8146101d257610093565b806317599cc5146100985780631d48294b146100ca5780633fad9ae0146100e85780636cbfafa514610106575b600080fd5b6100b260048036038101906100ad9190610cb2565b6101f0565b6040516100c193929190610dc8565b60405180910390f35b6100d26102c2565b6040516100df9190611049565b60405180910390f35b6100f06104a9565b6040516100fd919061106b565b60405180910390f35b610120600480360381019061011b91906111c2565b610537565b60405161012d9190611275565b60405180910390f35b610150600480360381019061014b9190610cb2565b610719565b60405161015d9190611297565b60405180910390f35b61016e610758565b60405161017b9190611297565b60405180910390f35b61019e600480360381019061019991906112de565b61077e565b6040516101ab9190611275565b60405180910390f35b6101bc610af1565b6040516101c9919061131e565b60405180910390f35b6101da610af7565b6040516101e7919061131e565b60405180910390f35b600360205280600052604060002060009150905080600001805461021390611368565b80601f016020809104026020016040519081016040528092919081815260200182805461023f90611368565b801561028c5780601f106102615761010080835404028352916020019161028c565b820191906000526020600020905b81548152906001019060200180831161026f57829003601f168201915b5050505050908060010160009054906101000a900473ffffffffffffffffffffffffffffffffffffffff16908060020154905083565b60608060005b6002548110156104a1576003600082815260200190815260200160002060405180608001604052908160008201805461030090611368565b80601f016020809104026020016040519081016040528092919081815260200182805461032c90611368565b80156103795780601f1061034e57610100808354040283529160200191610379565b820191906000526020600020905b81548152906001019060200180831161035c57829003601f168201915b505050505081526020016001820160009054906101000a900473ffffffffffffffffffffffffffffffffffffffff1673ffffffffffffffffffffffffffffffffffffffff1673ffffffffffffffffffffffffffffffffffffffff168152602001600282015481526020016003820180548060200260200160405190810160405280929190818152602001828054801561046757602002820191906000526020600020905b8160009054906101000a900473ffffffffffffffffffffffffffffffffffffffff1673ffffffffffffffffffffffffffffffffffffffff168152602001906001019080831161041d575b5050505050815250508282815181106104835761048261139a565b5b60200260200101819052508080610499906113f8565b9150506102c8565b508091505090565b600080546104b690611368565b80601f01602080910402602001604051908101604052809291908181526020018280546104e290611368565b801561052f5780601f106105045761010080835404028352916020019161052f565b820191906000526020600020905b81548152906001019060200180831161051257829003601f168201915b505050505081565b61053f610afd565b600082511415610584576040517f08c379a000000000000000000000000000000000000000000000000000000000815260040161057b9061148d565b60405180910390fd5b3373ffffffffffffffffffffffffffffffffffffffff16600160009054906101000a900473ffffffffffffffffffffffffffffffffffffffff1673ffffffffffffffffffffffffffffffffffffffff161415610615576040517f08c379a000000000000000000000000000000000000000000000000000000000815260040161060c9061151f565b60405180910390fd5b6060600060405180608001604052808581526020013373ffffffffffffffffffffffffffffffffffffffff16815260200160008152602001838152509050806003600060025481526020019081526020016000206000820151816000019080519060200190610685929190610b3b565b5060208201518160010160006101000a81548173ffffffffffffffffffffffffffffffffffffffff021916908373ffffffffffffffffffffffffffffffffffffffff1602179055506040820151816002015560608201518160030190805190602001906106f3929190610bc1565b509050506002600081548092919061070a906113f8565b91905055508092505050919050565b6005818154811061072957600080fd5b906000526020600020016000915054906101000a900473ffffffffffffffffffffffffffffffffffffffff1681565b600160009054906101000a900473ffffffffffffffffffffffffffffffffffffffff1681565b610786610afd565b6000600360008581526020019081526020016000206040518060800160405290816000820180546107b690611368565b80601f01602080910402602001604051908101604052809291908181526020018280546107e290611368565b801561082f5780601f106108045761010080835404028352916020019161082f565b820191906000526020600020905b81548152906001019060200180831161081257829003601f168201915b505050505081526020016001820160009054906101000a900473ffffffffffffffffffffffffffffffffffffffff1673ffffffffffffffffffffffffffffffffffffffff1673ffffffffffffffffffffffffffffffffffffffff168152602001600282015481526020016003820180548060200260200160405190810160405280929190818152602001828054801561091d57602002820191906000526020600020905b8160009054906101000a900473ffffffffffffffffffffffffffffffffffffffff1673ffffffffffffffffffffffffffffffffffffffff16815260200190600101908083116108d3575b505050505081525050905060005b8160600151518110156109d8578373ffffffffffffffffffffffffffffffffffffffff16826060015182815181106109665761096561139a565b5b602002602001015173ffffffffffffffffffffffffffffffffffffffff1614156109c5576040517f08c379a00000000000000000000000000000000000000000000000000000000081526004016109bc906115b1565b60405180910390fd5b80806109d0906113f8565b91505061092b565b508281606001518260400151815181106109f5576109f461139a565b5b602002602001019073ffffffffffffffffffffffffffffffffffffffff16908173ffffffffffffffffffffffffffffffffffffffff1681525050806040018051809190610a41906113f8565b8152505080600360008681526020019081526020016000206000820151816000019080519060200190610a75929190610b3b565b5060208201518160010160006101000a81548173ffffffffffffffffffffffffffffffffffffffff021916908373ffffffffffffffffffffffffffffffffffffffff160217905550604082015181600201556060820151816003019080519060200190610ae3929190610bc1565b509050508091505092915050565b60025481565b60045481565b604051806080016040528060608152602001600073ffffffffffffffffffffffffffffffffffffffff16815260200160008152602001606081525090565b828054610b4790611368565b90600052602060002090601f016020900481019282610b695760008555610bb0565b82601f10610b8257805160ff1916838001178555610bb0565b82800160010185558215610bb0579182015b82811115610baf578251825591602001919060010190610b94565b5b509050610bbd9190610c4b565b5090565b828054828255906000526020600020908101928215610c3a579160200282015b82811115610c395782518260006101000a81548173ffffffffffffffffffffffffffffffffffffffff021916908373ffffffffffffffffffffffffffffffffffffffff16021790555091602001919060010190610be1565b5b509050610c479190610c4b565b5090565b5b80821115610c64576000816000905550600101610c4c565b5090565b6000604051905090565b600080fd5b600080fd5b6000819050919050565b610c8f81610c7c565b8114610c9a57600080fd5b50565b600081359050610cac81610c86565b92915050565b600060208284031215610cc857610cc7610c72565b5b6000610cd684828501610c9d565b91505092915050565b600081519050919050565b600082825260208201905092915050565b60005b83811015610d19578082015181840152602081019050610cfe565b83811115610d28576000848401525b50505050565b6000601f19601f8301169050919050565b6000610d4a82610cdf565b610d548185610cea565b9350610d64818560208601610cfb565b610d6d81610d2e565b840191505092915050565b600073ffffffffffffffffffffffffffffffffffffffff82169050919050565b6000610da382610d78565b9050919050565b610db381610d98565b82525050565b610dc281610c7c565b82525050565b60006060820190508181036000830152610de28186610d3f565b9050610df16020830185610daa565b610dfe6040830184610db9565b949350505050565b600081519050919050565b600082825260208201905092915050565b6000819050602082019050919050565b600082825260208201905092915050565b6000610e4e82610cdf565b610e588185610e32565b9350610e68818560208601610cfb565b610e7181610d2e565b840191505092915050565b610e8581610d98565b82525050565b610e9481610c7c565b82525050565b600081519050919050565b600082825260208201905092915050565b6000819050602082019050919050565b6000610ed28383610e7c565b60208301905092915050565b6000602082019050919050565b6000610ef682610e9a565b610f008185610ea5565b9350610f0b83610eb6565b8060005b83811015610f3c578151610f238882610ec6565b9750610f2e83610ede565b925050600181019050610f0f565b5085935050505092915050565b60006080830160008301518482036000860152610f668282610e43565b9150506020830151610f7b6020860182610e7c565b506040830151610f8e6040860182610e8b565b5060608301518482036060860152610fa68282610eeb565b9150508091505092915050565b6000610fbf8383610f49565b905092915050565b6000602082019050919050565b6000610fdf82610e06565b610fe98185610e11565b935083602082028501610ffb85610e22565b8060005b8581101561103757848403895281516110188582610fb3565b945061102383610fc7565b925060208a01995050600181019050610fff565b50829750879550505050505092915050565b600060208201905081810360008301526110638184610fd4565b905092915050565b600060208201905081810360008301526110858184610d3f565b905092915050565b600080fd5b600080fd5b7f4e487b7100000000000000000000000000000000000000000000000000000000600052604160045260246000fd5b6110cf82610d2e565b810181811067ffffffffffffffff821117156110ee576110ed611097565b5b80604052505050565b6000611101610c68565b905061110d82826110c6565b919050565b600067ffffffffffffffff82111561112d5761112c611097565b5b61113682610d2e565b9050602081019050919050565b82818337600083830152505050565b600061116561116084611112565b6110f7565b90508281526020810184848401111561118157611180611092565b5b61118c848285611143565b509392505050565b600082601f8301126111a9576111a861108d565b5b81356111b9848260208601611152565b91505092915050565b6000602082840312156111d8576111d7610c72565b5b600082013567ffffffffffffffff8111156111f6576111f5610c77565b5b61120284828501611194565b91505092915050565b600060808301600083015184820360008601526112288282610e43565b915050602083015161123d6020860182610e7c565b5060408301516112506040860182610e8b565b50606083015184820360608601526112688282610eeb565b9150508091505092915050565b6000602082019050818103600083015261128f818461120b565b905092915050565b60006020820190506112ac6000830184610daa565b92915050565b6112bb81610d98565b81146112c657600080fd5b50565b6000813590506112d8816112b2565b92915050565b600080604083850312156112f5576112f4610c72565b5b600061130385828601610c9d565b9250506020611314858286016112c9565b9150509250929050565b60006020820190506113336000830184610db9565b92915050565b7f4e487b7100000000000000000000000000000000000000000000000000000000600052602260045260246000fd5b6000600282049050600182168061138057607f821691505b6020821081141561139457611393611339565b5b50919050565b7f4e487b7100000000000000000000000000000000000000000000000000000000600052603260045260246000fd5b7f4e487b7100000000000000000000000000000000000000000000000000000000600052601160045260246000fd5b600061140382610c7c565b91507fffffffffffffffffffffffffffffffffffffffffffffffffffffffffffffffff821415611436576114356113c9565b5b600182019050919050565b7f416e737765722063616e6e6f7420626520656d70747900000000000000000000600082015250565b6000611477601683610cea565b915061148282611441565b602082019050919050565b600060208201905081810360008301526114a68161146a565b9050919050565b7f417574686f722063616e6e6f7420616e73776572206869732f686572206f776e60008201527f207175657374696f6e0000000000000000000000000000000000000000000000602082015250565b6000611509602983610cea565b9150611514826114ad565b604082019050919050565b60006020820190508181036000830152611538816114fc565b9050919050565b7f596f75206861766520616c7265616479206c696b6564207468697320616e737760008201527f6572000000000000000000000000000000000000000000000000000000000000602082015250565b600061159b602283610cea565b91506115a68261153f565b604082019050919050565b600060208201905081810360008301526115ca8161158e565b905091905056fea2646970667358221220338fa6bd55d63555934e30a87ec80d4c25a50819cb1fbdc7f5fd6682bd60468f64736f6c634300080b0033a2646970667358221220936e8e40737d48f2d817c97b568188f6ed286b240054821370026d09c4ad6bbe64736f6c634300080b0033a2646970667358221220766e1fd53466f8a943bd47d4e04af767f72b4271c99c5d8c1345f7db20ba57dc64736f6c634300080b0033",
  "immutableReferences": {},
  "source": "// SPDX-License-Identifier: MIT\npragma solidity >=0.4.22 <0.9.0;\nimport \"./User.sol\";\n\ncontract Main {\n\n    uint public total_users;\n    mapping(uint => User) public users;\n    // Question[] public all_questions;\n    \n\n    constructor() {\n        total_users = 0;\n        // all_questions = [];\n    }\n\n    function register(string memory _name) public returns(User){\n        require(bytes(_name).length != 0,\"Name cannot be empty\");\n\n        //Create a new user\n        User newUser = new User(_name);\n        users[total_users] = newUser;\n        total_users++;\n\n        //Return the user\n        return newUser;\n    }\n}\n",
  "sourcePath": "C:\\Users\\Kailash\\Desktop\\All Projects\\De-Quora\\contracts\\contracts\\Main.sol",
  "compiler": {
    "name": "solc",
    "version": "0.8.11+commit.d7f03943.Emscripten.clang"
  },
  "schemaVersion": "3.4.5",
  "updatedAt": "2022-03-23T11:39:07.312Z",
  "networkType": "ethereum",
  "devdoc": {
    "kind": "dev",
    "methods": {},
    "version": 1
  },
  "userdoc": {
    "kind": "user",
    "methods": {},
    "version": 1
  }
}