{
  "contractName": "SecondContract",
  "abi": [
    {
      "inputs": [
        {
          "internalType": "string",
          "name": "_word",
          "type": "string"
        }
      ],
      "stateMutability": "nonpayable",
      "type": "constructor"
    },
    {
      "anonymous": false,
      "inputs": [
        {
          "indexed": false,
          "internalType": "string",
          "name": "",
          "type": "string"
        },
        {
          "indexed": false,
          "internalType": "address",
          "name": "",
          "type": "address"
        }
      ],
      "name": "second_contract_created",
      "type": "event"
    },
    {
      "inputs": [],
      "name": "word",
      "outputs": [
        {
          "internalType": "string",
          "name": "",
          "type": "string"
        }
      ],
      "stateMutability": "view",
      "type": "function"
    }
  ],
  "bytecode": "0x608060405234801561001057600080fd5b50604051610656380380610656833981810160405281019061003291906102a9565b8060009080519060200190610048929190610088565b507f597a1dae559cd34518207f80be9ce662169ac49d020958473e34b163fa1cf388813060405161007a929190610388565b60405180910390a150610419565b828054610094906103e7565b90600052602060002090601f0160209004810192826100b657600085556100fd565b82601f106100cf57805160ff19168380011785556100fd565b828001600101855582156100fd579182015b828111156100fc5782518255916020019190600101906100e1565b5b50905061010a919061010e565b5090565b5b8082111561012757600081600090555060010161010f565b5090565b6000604051905090565b600080fd5b600080fd5b600080fd5b600080fd5b6000601f19601f8301169050919050565b7f4e487b7100000000000000000000000000000000000000000000000000000000600052604160045260246000fd5b61019282610149565b810181811067ffffffffffffffff821117156101b1576101b061015a565b5b80604052505050565b60006101c461012b565b90506101d08282610189565b919050565b600067ffffffffffffffff8211156101f0576101ef61015a565b5b6101f982610149565b9050602081019050919050565b60005b83811015610224578082015181840152602081019050610209565b83811115610233576000848401525b50505050565b600061024c610247846101d5565b6101ba565b90508281526020810184848401111561026857610267610144565b5b610273848285610206565b509392505050565b600082601f8301126102905761028f61013f565b5b81516102a0848260208601610239565b91505092915050565b6000602082840312156102bf576102be610135565b5b600082015167ffffffffffffffff8111156102dd576102dc61013a565b5b6102e98482850161027b565b91505092915050565b600081519050919050565b600082825260208201905092915050565b6000610319826102f2565b61032381856102fd565b9350610333818560208601610206565b61033c81610149565b840191505092915050565b600073ffffffffffffffffffffffffffffffffffffffff82169050919050565b600061037282610347565b9050919050565b61038281610367565b82525050565b600060408201905081810360008301526103a2818561030e565b90506103b16020830184610379565b9392505050565b7f4e487b7100000000000000000000000000000000000000000000000000000000600052602260045260246000fd5b600060028204905060018216806103ff57607f821691505b60208210811415610413576104126103b8565b5b50919050565b61022e806104286000396000f3fe608060405234801561001057600080fd5b506004361061002b5760003560e01c80632f64d38614610030575b600080fd5b61003861004e565b6040516100459190610175565b60405180910390f35b6000805461005b906101c6565b80601f0160208091040260200160405190810160405280929190818152602001828054610087906101c6565b80156100d45780601f106100a9576101008083540402835291602001916100d4565b820191906000526020600020905b8154815290600101906020018083116100b757829003601f168201915b505050505081565b600081519050919050565b600082825260208201905092915050565b60005b838110156101165780820151818401526020810190506100fb565b83811115610125576000848401525b50505050565b6000601f19601f8301169050919050565b6000610147826100dc565b61015181856100e7565b93506101618185602086016100f8565b61016a8161012b565b840191505092915050565b6000602082019050818103600083015261018f818461013c565b905092915050565b7f4e487b7100000000000000000000000000000000000000000000000000000000600052602260045260246000fd5b600060028204905060018216806101de57607f821691505b602082108114156101f2576101f1610197565b5b5091905056fea264697066735822122049a266efbfa47ba256394eb7e32683260096e8dd17d6e6800d159aa79973306164736f6c634300080b0033",
  "immutableReferences": {},
  "source": "// SPDX-License-Identifier: MIT\npragma solidity >=0.4.22 <0.9.0;\nimport \"./User.sol\";\n\ncontract Main {\n\n    mapping(address => address) public users;    \n\n    event user_added(string, address);\n    event entering(string, address);\n    event main_deployed(string);\n\n    constructor(){\n        emit main_deployed('Main is deployed');\n    }\n\n\n    // function register(string memory _name) public returns(User){\n\n    //     emit entering(_name, msg.sender);\n\n    //     require(bytes(_name).length != 0,\"Name cannot be empty\");\n\n    //     //Create a new user\n    //     User newUser = new User(_name);\n    //     users[msg.sender] = address(newUser);\n\n    //     emit user_added(_name, address(newUser));\n        \n    //     //Return the user\n    //     return newUser;\n    // }\n\n    function register(string memory _word) public returns(SecondContract){\n        emit entering(_word, msg.sender);\n        \n        SecondContract sec = new SecondContract(_word);\n        users[msg.sender] = address(sec);\n\n        emit user_added(_word, address(sec));\n\n        return sec;\n    }\n\n}\n\ncontract SecondContract {\n\n    string public word;\n    event second_contract_created(string,address);\n\n    constructor(string memory _word){\n        word = _word;\n        emit second_contract_created(_word,address(this));\n    }\n\n}\n",
  "sourcePath": "C:\\Users\\Kailash\\Desktop\\All Projects\\De-Quora\\contracts\\contracts\\Main.sol",
  "compiler": {
    "name": "solc",
    "version": "0.8.11+commit.d7f03943.Emscripten.clang"
  },
  "schemaVersion": "3.4.5",
  "updatedAt": "2022-03-24T16:19:39.724Z",
  "devdoc": {
    "kind": "dev",
    "methods": {},
    "version": 1
  },
  "userdoc": {
    "kind": "user",
    "methods": {},
    "version": 1
  }
}