{
  "contractName": "User",
  "abi": [
    {
      "inputs": [
        {
          "internalType": "string",
          "name": "_name",
          "type": "string"
        }
      ],
      "stateMutability": "nonpayable",
      "type": "constructor"
    },
    {
      "anonymous": false,
      "inputs": [
        {
          "indexed": false,
          "internalType": "contract Question",
          "name": "",
          "type": "address"
        },
        {
          "indexed": false,
          "internalType": "address",
          "name": "",
          "type": "address"
        }
      ],
      "name": "question_added",
      "type": "event"
    },
    {
      "anonymous": false,
      "inputs": [
        {
          "indexed": false,
          "internalType": "string",
          "name": "",
          "type": "string"
        },
        {
          "indexed": false,
          "internalType": "address",
          "name": "",
          "type": "address"
        }
      ],
      "name": "user_created",
      "type": "event"
    },
    {
      "inputs": [
        {
          "internalType": "uint256",
          "name": "",
          "type": "uint256"
        }
      ],
      "name": "my_answers",
      "outputs": [
        {
          "internalType": "string",
          "name": "answer",
          "type": "string"
        },
        {
          "internalType": "address",
          "name": "author",
          "type": "address"
        },
        {
          "internalType": "uint256",
          "name": "likes",
          "type": "uint256"
        }
      ],
      "stateMutability": "view",
      "type": "function"
    },
    {
      "inputs": [
        {
          "internalType": "uint256",
          "name": "",
          "type": "uint256"
        }
      ],
      "name": "my_questions",
      "outputs": [
        {
          "internalType": "contract Question",
          "name": "",
          "type": "address"
        }
      ],
      "stateMutability": "view",
      "type": "function"
    },
    {
      "inputs": [],
      "name": "name",
      "outputs": [
        {
          "internalType": "string",
          "name": "",
          "type": "string"
        }
      ],
      "stateMutability": "view",
      "type": "function"
    },
    {
      "inputs": [],
      "name": "get_user_details",
      "outputs": [
        {
          "internalType": "string",
          "name": "",
          "type": "string"
        }
      ],
      "stateMutability": "view",
      "type": "function"
    },
    {
      "inputs": [],
      "name": "get_questions",
      "outputs": [
        {
          "internalType": "contract Question[]",
          "name": "",
          "type": "address[]"
        }
      ],
      "stateMutability": "view",
      "type": "function"
    },
    {
      "inputs": [
        {
          "internalType": "string",
          "name": "_question",
          "type": "string"
        }
      ],
      "name": "add_question",
      "outputs": [
        {
          "internalType": "contract Question",
          "name": "",
          "type": "address"
        }
      ],
      "stateMutability": "payable",
      "type": "function"
    }
  ],
  "bytecode": "0x60806040523480156200001157600080fd5b5060405162002a4d38038062002a4d8339818101604052810190620000379190620002df565b80600090805190602001906200004f92919062000092565b507f198194f4b3e2ad007399e677270262854d8ad353e0a078a41c7ebadb7c9fc2d5813060405162000083929190620003d2565b60405180910390a1506200046b565b828054620000a09062000435565b90600052602060002090601f016020900481019282620000c4576000855562000110565b82601f10620000df57805160ff191683800117855562000110565b8280016001018555821562000110579182015b828111156200010f578251825591602001919060010190620000f2565b5b5090506200011f919062000123565b5090565b5b808211156200013e57600081600090555060010162000124565b5090565b6000604051905090565b600080fd5b600080fd5b600080fd5b600080fd5b6000601f19601f8301169050919050565b7f4e487b7100000000000000000000000000000000000000000000000000000000600052604160045260246000fd5b620001ab8262000160565b810181811067ffffffffffffffff82111715620001cd57620001cc62000171565b5b80604052505050565b6000620001e262000142565b9050620001f08282620001a0565b919050565b600067ffffffffffffffff82111562000213576200021262000171565b5b6200021e8262000160565b9050602081019050919050565b60005b838110156200024b5780820151818401526020810190506200022e565b838111156200025b576000848401525b50505050565b6000620002786200027284620001f5565b620001d6565b9050828152602081018484840111156200029757620002966200015b565b5b620002a48482856200022b565b509392505050565b600082601f830112620002c457620002c362000156565b5b8151620002d684826020860162000261565b91505092915050565b600060208284031215620002f857620002f76200014c565b5b600082015167ffffffffffffffff81111562000319576200031862000151565b5b6200032784828501620002ac565b91505092915050565b600081519050919050565b600082825260208201905092915050565b6000620003598262000330565b6200036581856200033b565b9350620003778185602086016200022b565b620003828162000160565b840191505092915050565b600073ffffffffffffffffffffffffffffffffffffffff82169050919050565b6000620003ba826200038d565b9050919050565b620003cc81620003ad565b82525050565b60006040820190508181036000830152620003ee81856200034c565b9050620003ff6020830184620003c1565b9392505050565b7f4e487b7100000000000000000000000000000000000000000000000000000000600052602260045260246000fd5b600060028204905060018216806200044e57607f821691505b6020821081141562000465576200046462000406565b5b50919050565b6125d2806200047b6000396000f3fe6080604052600436106200005c5760003560e01c806304455c52146200006157806306fdde0314620000915780635e8867a514620000c1578063676c988114620001055780639639bbfe146200013b578063a7a8f5241462000181575b600080fd5b3480156200006e57600080fd5b5062000079620001b1565b6040516200008891906200071f565b60405180910390f35b3480156200009e57600080fd5b50620000a962000241565b604051620000b89190620007e7565b60405180910390f35b348015620000ce57600080fd5b50620000ed6004803603810190620000e791906200085a565b620002d7565b604051620000fc91906200089d565b60405180910390f35b6200012360048036038101906200011d919062000a0b565b62000317565b6040516200013291906200089d565b60405180910390f35b3480156200014857600080fd5b506200016760048036038101906200016191906200085a565b62000444565b604051620001789392919062000a92565b60405180910390f35b3480156200018e57600080fd5b50620001996200052f565b604051620001a89190620007e7565b60405180910390f35b606060018054806020026020016040519081016040528092919081815260200182805480156200023757602002820191906000526020600020905b8160009054906101000a900473ffffffffffffffffffffffffffffffffffffffff1673ffffffffffffffffffffffffffffffffffffffff1681526020019060010190808311620001ec575b5050505050905090565b60008054620002509062000b05565b80601f01602080910402602001604051908101604052809291908181526020018280546200027e9062000b05565b8015620002cf5780601f10620002a357610100808354040283529160200191620002cf565b820191906000526020600020905b815481529060010190602001808311620002b157829003601f168201915b505050505081565b60018181548110620002e857600080fd5b906000526020600020016000915054906101000a900473ffffffffffffffffffffffffffffffffffffffff1681565b6000808251141562000360576040517f08c379a0000000000000000000000000000000000000000000000000000000008152600401620003579062000b8b565b60405180910390fd5b6000826040516200037190620005c9565b6200037d9190620007e7565b604051809103906000f0801580156200039a573d6000803e3d6000fd5b5090506001819080600181540180825580915050600190039060005260206000200160009091909190916101000a81548173ffffffffffffffffffffffffffffffffffffffff021916908373ffffffffffffffffffffffffffffffffffffffff1602179055507f5e09500d30f44ffee83dbb7c6e21f17359c01cb87296086ac6a2b6df05ede2d681826040516200043392919062000bad565b60405180910390a180915050919050565b600281815481106200045557600080fd5b90600052602060002090600402016000915090508060000180546200047a9062000b05565b80601f0160208091040260200160405190810160405280929190818152602001828054620004a89062000b05565b8015620004f95780601f10620004cd57610100808354040283529160200191620004f9565b820191906000526020600020905b815481529060010190602001808311620004db57829003601f168201915b5050505050908060010160009054906101000a900473ffffffffffffffffffffffffffffffffffffffff16908060020154905083565b606060008054620005409062000b05565b80601f01602080910402602001604051908101604052809291908181526020018280546200056e9062000b05565b8015620005bf5780601f106200059357610100808354040283529160200191620005bf565b820191906000526020600020905b815481529060010190602001808311620005a157829003601f168201915b5050505050905090565b6119c28062000bdb83390190565b600081519050919050565b600082825260208201905092915050565b6000819050602082019050919050565b600073ffffffffffffffffffffffffffffffffffffffff82169050919050565b6000819050919050565b60006200064e62000648620006428462000603565b62000623565b62000603565b9050919050565b600062000662826200062d565b9050919050565b6000620006768262000655565b9050919050565b620006888162000669565b82525050565b60006200069c83836200067d565b60208301905092915050565b6000602082019050919050565b6000620006c282620005d7565b620006ce8185620005e2565b9350620006db83620005f3565b8060005b8381101562000712578151620006f688826200068e565b97506200070383620006a8565b925050600181019050620006df565b5085935050505092915050565b600060208201905081810360008301526200073b8184620006b5565b905092915050565b600081519050919050565b600082825260208201905092915050565b60005b838110156200077f57808201518184015260208101905062000762565b838111156200078f576000848401525b50505050565b6000601f19601f8301169050919050565b6000620007b38262000743565b620007bf81856200074e565b9350620007d18185602086016200075f565b620007dc8162000795565b840191505092915050565b60006020820190508181036000830152620008038184620007a6565b905092915050565b6000604051905090565b600080fd5b600080fd5b6000819050919050565b62000834816200081f565b81146200084057600080fd5b50565b600081359050620008548162000829565b92915050565b60006020828403121562000873576200087262000815565b5b6000620008838482850162000843565b91505092915050565b620008978162000669565b82525050565b6000602082019050620008b460008301846200088c565b92915050565b600080fd5b600080fd5b7f4e487b7100000000000000000000000000000000000000000000000000000000600052604160045260246000fd5b620008fe8262000795565b810181811067ffffffffffffffff8211171562000920576200091f620008c4565b5b80604052505050565b6000620009356200080b565b9050620009438282620008f3565b919050565b600067ffffffffffffffff821115620009665762000965620008c4565b5b620009718262000795565b9050602081019050919050565b82818337600083830152505050565b6000620009a46200099e8462000948565b62000929565b905082815260208101848484011115620009c357620009c2620008bf565b5b620009d08482856200097e565b509392505050565b600082601f830112620009f057620009ef620008ba565b5b813562000a028482602086016200098d565b91505092915050565b60006020828403121562000a245762000a2362000815565b5b600082013567ffffffffffffffff81111562000a455762000a446200081a565b5b62000a5384828501620009d8565b91505092915050565b600062000a698262000603565b9050919050565b62000a7b8162000a5c565b82525050565b62000a8c816200081f565b82525050565b6000606082019050818103600083015262000aae8186620007a6565b905062000abf602083018562000a70565b62000ace604083018462000a81565b949350505050565b7f4e487b7100000000000000000000000000000000000000000000000000000000600052602260045260246000fd5b6000600282049050600182168062000b1e57607f821691505b6020821081141562000b355762000b3462000ad6565b5b50919050565b7f5175657374696f6e2063616e6e6f7420626520656d7074790000000000000000600082015250565b600062000b736018836200074e565b915062000b808262000b3b565b602082019050919050565b6000602082019050818103600083015262000ba68162000b64565b9050919050565b600060408201905062000bc460008301856200088c565b62000bd3602083018462000a70565b939250505056fe60806040523480156200001157600080fd5b50604051620019c2380380620019c28339818101604052810190620000379190620002f5565b80600090805190602001906200004f929190620000a8565b5033600160006101000a81548173ffffffffffffffffffffffffffffffffffffffff021916908373ffffffffffffffffffffffffffffffffffffffff1602179055506000600281905550600060048190555050620003ab565b828054620000b69062000375565b90600052602060002090601f016020900481019282620000da576000855562000126565b82601f10620000f557805160ff191683800117855562000126565b8280016001018555821562000126579182015b828111156200012557825182559160200191906001019062000108565b5b50905062000135919062000139565b5090565b5b80821115620001545760008160009055506001016200013a565b5090565b6000604051905090565b600080fd5b600080fd5b600080fd5b600080fd5b6000601f19601f8301169050919050565b7f4e487b7100000000000000000000000000000000000000000000000000000000600052604160045260246000fd5b620001c18262000176565b810181811067ffffffffffffffff82111715620001e357620001e262000187565b5b80604052505050565b6000620001f862000158565b9050620002068282620001b6565b919050565b600067ffffffffffffffff82111562000229576200022862000187565b5b620002348262000176565b9050602081019050919050565b60005b838110156200026157808201518184015260208101905062000244565b8381111562000271576000848401525b50505050565b60006200028e62000288846200020b565b620001ec565b905082815260208101848484011115620002ad57620002ac62000171565b5b620002ba84828562000241565b509392505050565b600082601f830112620002da57620002d96200016c565b5b8151620002ec84826020860162000277565b91505092915050565b6000602082840312156200030e576200030d62000162565b5b600082015167ffffffffffffffff8111156200032f576200032e62000167565b5b6200033d84828501620002c2565b91505092915050565b7f4e487b7100000000000000000000000000000000000000000000000000000000600052602260045260246000fd5b600060028204905060018216806200038e57607f821691505b60208210811415620003a557620003a462000346565b5b50919050565b61160780620003bb6000396000f3fe608060405234801561001057600080fd5b50600436106100935760003560e01c80637cbc8df1116100665780637cbc8df114610136578063a6c3e6b914610166578063cb4f708c14610184578063ccdefb42146101b4578063d1dc9bd8146101d257610093565b806317599cc5146100985780631d48294b146100ca5780633fad9ae0146100e85780636cbfafa514610106575b600080fd5b6100b260048036038101906100ad9190610cb2565b6101f0565b6040516100c193929190610dc8565b60405180910390f35b6100d26102c2565b6040516100df9190611049565b60405180910390f35b6100f06104a9565b6040516100fd919061106b565b60405180910390f35b610120600480360381019061011b91906111c2565b610537565b60405161012d9190611275565b60405180910390f35b610150600480360381019061014b9190610cb2565b610719565b60405161015d9190611297565b60405180910390f35b61016e610758565b60405161017b9190611297565b60405180910390f35b61019e600480360381019061019991906112de565b61077e565b6040516101ab9190611275565b60405180910390f35b6101bc610af1565b6040516101c9919061131e565b60405180910390f35b6101da610af7565b6040516101e7919061131e565b60405180910390f35b600360205280600052604060002060009150905080600001805461021390611368565b80601f016020809104026020016040519081016040528092919081815260200182805461023f90611368565b801561028c5780601f106102615761010080835404028352916020019161028c565b820191906000526020600020905b81548152906001019060200180831161026f57829003601f168201915b5050505050908060010160009054906101000a900473ffffffffffffffffffffffffffffffffffffffff16908060020154905083565b60608060005b6002548110156104a1576003600082815260200190815260200160002060405180608001604052908160008201805461030090611368565b80601f016020809104026020016040519081016040528092919081815260200182805461032c90611368565b80156103795780601f1061034e57610100808354040283529160200191610379565b820191906000526020600020905b81548152906001019060200180831161035c57829003601f168201915b505050505081526020016001820160009054906101000a900473ffffffffffffffffffffffffffffffffffffffff1673ffffffffffffffffffffffffffffffffffffffff1673ffffffffffffffffffffffffffffffffffffffff168152602001600282015481526020016003820180548060200260200160405190810160405280929190818152602001828054801561046757602002820191906000526020600020905b8160009054906101000a900473ffffffffffffffffffffffffffffffffffffffff1673ffffffffffffffffffffffffffffffffffffffff168152602001906001019080831161041d575b5050505050815250508282815181106104835761048261139a565b5b60200260200101819052508080610499906113f8565b9150506102c8565b508091505090565b600080546104b690611368565b80601f01602080910402602001604051908101604052809291908181526020018280546104e290611368565b801561052f5780601f106105045761010080835404028352916020019161052f565b820191906000526020600020905b81548152906001019060200180831161051257829003601f168201915b505050505081565b61053f610afd565b600082511415610584576040517f08c379a000000000000000000000000000000000000000000000000000000000815260040161057b9061148d565b60405180910390fd5b3373ffffffffffffffffffffffffffffffffffffffff16600160009054906101000a900473ffffffffffffffffffffffffffffffffffffffff1673ffffffffffffffffffffffffffffffffffffffff161415610615576040517f08c379a000000000000000000000000000000000000000000000000000000000815260040161060c9061151f565b60405180910390fd5b6060600060405180608001604052808581526020013373ffffffffffffffffffffffffffffffffffffffff16815260200160008152602001838152509050806003600060025481526020019081526020016000206000820151816000019080519060200190610685929190610b3b565b5060208201518160010160006101000a81548173ffffffffffffffffffffffffffffffffffffffff021916908373ffffffffffffffffffffffffffffffffffffffff1602179055506040820151816002015560608201518160030190805190602001906106f3929190610bc1565b509050506002600081548092919061070a906113f8565b91905055508092505050919050565b6005818154811061072957600080fd5b906000526020600020016000915054906101000a900473ffffffffffffffffffffffffffffffffffffffff1681565b600160009054906101000a900473ffffffffffffffffffffffffffffffffffffffff1681565b610786610afd565b6000600360008581526020019081526020016000206040518060800160405290816000820180546107b690611368565b80601f01602080910402602001604051908101604052809291908181526020018280546107e290611368565b801561082f5780601f106108045761010080835404028352916020019161082f565b820191906000526020600020905b81548152906001019060200180831161081257829003601f168201915b505050505081526020016001820160009054906101000a900473ffffffffffffffffffffffffffffffffffffffff1673ffffffffffffffffffffffffffffffffffffffff1673ffffffffffffffffffffffffffffffffffffffff168152602001600282015481526020016003820180548060200260200160405190810160405280929190818152602001828054801561091d57602002820191906000526020600020905b8160009054906101000a900473ffffffffffffffffffffffffffffffffffffffff1673ffffffffffffffffffffffffffffffffffffffff16815260200190600101908083116108d3575b505050505081525050905060005b8160600151518110156109d8578373ffffffffffffffffffffffffffffffffffffffff16826060015182815181106109665761096561139a565b5b602002602001015173ffffffffffffffffffffffffffffffffffffffff1614156109c5576040517f08c379a00000000000000000000000000000000000000000000000000000000081526004016109bc906115b1565b60405180910390fd5b80806109d0906113f8565b91505061092b565b508281606001518260400151815181106109f5576109f461139a565b5b602002602001019073ffffffffffffffffffffffffffffffffffffffff16908173ffffffffffffffffffffffffffffffffffffffff1681525050806040018051809190610a41906113f8565b8152505080600360008681526020019081526020016000206000820151816000019080519060200190610a75929190610b3b565b5060208201518160010160006101000a81548173ffffffffffffffffffffffffffffffffffffffff021916908373ffffffffffffffffffffffffffffffffffffffff160217905550604082015181600201556060820151816003019080519060200190610ae3929190610bc1565b509050508091505092915050565b60025481565b60045481565b604051806080016040528060608152602001600073ffffffffffffffffffffffffffffffffffffffff16815260200160008152602001606081525090565b828054610b4790611368565b90600052602060002090601f016020900481019282610b695760008555610bb0565b82601f10610b8257805160ff1916838001178555610bb0565b82800160010185558215610bb0579182015b82811115610baf578251825591602001919060010190610b94565b5b509050610bbd9190610c4b565b5090565b828054828255906000526020600020908101928215610c3a579160200282015b82811115610c395782518260006101000a81548173ffffffffffffffffffffffffffffffffffffffff021916908373ffffffffffffffffffffffffffffffffffffffff16021790555091602001919060010190610be1565b5b509050610c479190610c4b565b5090565b5b80821115610c64576000816000905550600101610c4c565b5090565b6000604051905090565b600080fd5b600080fd5b6000819050919050565b610c8f81610c7c565b8114610c9a57600080fd5b50565b600081359050610cac81610c86565b92915050565b600060208284031215610cc857610cc7610c72565b5b6000610cd684828501610c9d565b91505092915050565b600081519050919050565b600082825260208201905092915050565b60005b83811015610d19578082015181840152602081019050610cfe565b83811115610d28576000848401525b50505050565b6000601f19601f8301169050919050565b6000610d4a82610cdf565b610d548185610cea565b9350610d64818560208601610cfb565b610d6d81610d2e565b840191505092915050565b600073ffffffffffffffffffffffffffffffffffffffff82169050919050565b6000610da382610d78565b9050919050565b610db381610d98565b82525050565b610dc281610c7c565b82525050565b60006060820190508181036000830152610de28186610d3f565b9050610df16020830185610daa565b610dfe6040830184610db9565b949350505050565b600081519050919050565b600082825260208201905092915050565b6000819050602082019050919050565b600082825260208201905092915050565b6000610e4e82610cdf565b610e588185610e32565b9350610e68818560208601610cfb565b610e7181610d2e565b840191505092915050565b610e8581610d98565b82525050565b610e9481610c7c565b82525050565b600081519050919050565b600082825260208201905092915050565b6000819050602082019050919050565b6000610ed28383610e7c565b60208301905092915050565b6000602082019050919050565b6000610ef682610e9a565b610f008185610ea5565b9350610f0b83610eb6565b8060005b83811015610f3c578151610f238882610ec6565b9750610f2e83610ede565b925050600181019050610f0f565b5085935050505092915050565b60006080830160008301518482036000860152610f668282610e43565b9150506020830151610f7b6020860182610e7c565b506040830151610f8e6040860182610e8b565b5060608301518482036060860152610fa68282610eeb565b9150508091505092915050565b6000610fbf8383610f49565b905092915050565b6000602082019050919050565b6000610fdf82610e06565b610fe98185610e11565b935083602082028501610ffb85610e22565b8060005b8581101561103757848403895281516110188582610fb3565b945061102383610fc7565b925060208a01995050600181019050610fff565b50829750879550505050505092915050565b600060208201905081810360008301526110638184610fd4565b905092915050565b600060208201905081810360008301526110858184610d3f565b905092915050565b600080fd5b600080fd5b7f4e487b7100000000000000000000000000000000000000000000000000000000600052604160045260246000fd5b6110cf82610d2e565b810181811067ffffffffffffffff821117156110ee576110ed611097565b5b80604052505050565b6000611101610c68565b905061110d82826110c6565b919050565b600067ffffffffffffffff82111561112d5761112c611097565b5b61113682610d2e565b9050602081019050919050565b82818337600083830152505050565b600061116561116084611112565b6110f7565b90508281526020810184848401111561118157611180611092565b5b61118c848285611143565b509392505050565b600082601f8301126111a9576111a861108d565b5b81356111b9848260208601611152565b91505092915050565b6000602082840312156111d8576111d7610c72565b5b600082013567ffffffffffffffff8111156111f6576111f5610c77565b5b61120284828501611194565b91505092915050565b600060808301600083015184820360008601526112288282610e43565b915050602083015161123d6020860182610e7c565b5060408301516112506040860182610e8b565b50606083015184820360608601526112688282610eeb565b9150508091505092915050565b6000602082019050818103600083015261128f818461120b565b905092915050565b60006020820190506112ac6000830184610daa565b92915050565b6112bb81610d98565b81146112c657600080fd5b50565b6000813590506112d8816112b2565b92915050565b600080604083850312156112f5576112f4610c72565b5b600061130385828601610c9d565b9250506020611314858286016112c9565b9150509250929050565b60006020820190506113336000830184610db9565b92915050565b7f4e487b7100000000000000000000000000000000000000000000000000000000600052602260045260246000fd5b6000600282049050600182168061138057607f821691505b6020821081141561139457611393611339565b5b50919050565b7f4e487b7100000000000000000000000000000000000000000000000000000000600052603260045260246000fd5b7f4e487b7100000000000000000000000000000000000000000000000000000000600052601160045260246000fd5b600061140382610c7c565b91507fffffffffffffffffffffffffffffffffffffffffffffffffffffffffffffffff821415611436576114356113c9565b5b600182019050919050565b7f416e737765722063616e6e6f7420626520656d70747900000000000000000000600082015250565b6000611477601683610cea565b915061148282611441565b602082019050919050565b600060208201905081810360008301526114a68161146a565b9050919050565b7f417574686f722063616e6e6f7420616e73776572206869732f686572206f776e60008201527f207175657374696f6e0000000000000000000000000000000000000000000000602082015250565b6000611509602983610cea565b9150611514826114ad565b604082019050919050565b60006020820190508181036000830152611538816114fc565b9050919050565b7f596f75206861766520616c7265616479206c696b6564207468697320616e737760008201527f6572000000000000000000000000000000000000000000000000000000000000602082015250565b600061159b602283610cea565b91506115a68261153f565b604082019050919050565b600060208201905081810360008301526115ca8161158e565b905091905056fea2646970667358221220338fa6bd55d63555934e30a87ec80d4c25a50819cb1fbdc7f5fd6682bd60468f64736f6c634300080b0033a26469706673582212208e80b8c544bb13c6095db965fa27e6ace0004bafe95d63fbdde872918b1b39bc64736f6c634300080b0033",
  "immutableReferences": {},
  "source": "// SPDX-License-Identifier: MIT\npragma solidity >=0.4.22 <0.9.0;\nimport \"./Question.sol\";\n\ncontract User{\n\n    string public name;\n    Question[] public my_questions;\n    Question.Answer[] public my_answers;\n\n    event user_created(string, address);\n    event question_added(Question, address);\n\n    constructor(string memory _name){\n        name = _name;\n        emit user_created(_name, address(this));\n    }\n\n    function get_user_details() public view returns(string memory){\n        return name;\n    }\n\n    function get_questions() public view returns(Question[] memory){\n        return my_questions;\n    }\n\n    function add_question(string memory _question) public payable returns(Question){\n        require(bytes(_question).length != 0,\"Question cannot be empty\");\n        \n        //Create the question\n        Question newQuestion = new Question(_question);\n        my_questions.push(newQuestion);\n        // Main.all_questions.push(newQuestion);\n\n        emit question_added(newQuestion,address(newQuestion));\n\n        //return the question\n        return newQuestion;\n    }\n}\n",
  "sourcePath": "C:\\Users\\Kailash\\Desktop\\All Projects\\De-Quora\\contracts\\contracts\\User.sol",
  "compiler": {
    "name": "solc",
    "version": "0.8.11+commit.d7f03943.Emscripten.clang"
  },
  "schemaVersion": "3.4.5",
  "updatedAt": "2022-03-28T07:19:46.658Z",
  "devdoc": {
    "kind": "dev",
    "methods": {},
    "version": 1
  },
  "userdoc": {
    "kind": "user",
    "methods": {},
    "version": 1
  }
}